{
  "contractName": "DFY",
  "abi": [
    {
      "inputs": [],
      "stateMutability": "nonpayable",
      "type": "constructor"
    },
    {
      "anonymous": false,
      "inputs": [
        {
          "indexed": true,
          "internalType": "address",
          "name": "owner",
          "type": "address"
        },
        {
          "indexed": true,
          "internalType": "address",
          "name": "spender",
          "type": "address"
        },
        {
          "indexed": false,
          "internalType": "uint256",
          "name": "value",
          "type": "uint256"
        }
      ],
      "name": "Approval",
      "type": "event"
    },
    {
      "anonymous": false,
      "inputs": [],
      "name": "MintFinished",
      "type": "event"
    },
    {
      "anonymous": false,
      "inputs": [
        {
          "indexed": true,
          "internalType": "address",
          "name": "previousOwner",
          "type": "address"
        },
        {
          "indexed": true,
          "internalType": "address",
          "name": "newOwner",
          "type": "address"
        }
      ],
      "name": "OwnershipTransferred",
      "type": "event"
    },
    {
      "anonymous": false,
      "inputs": [
        {
          "indexed": false,
          "internalType": "address",
          "name": "account",
          "type": "address"
        }
      ],
      "name": "Paused",
      "type": "event"
    },
    {
      "anonymous": false,
      "inputs": [
        {
          "indexed": true,
          "internalType": "address",
          "name": "to",
          "type": "address"
        },
        {
          "indexed": false,
          "internalType": "uint256",
          "name": "score",
          "type": "uint256"
        }
      ],
      "name": "PawnReputationReduced",
      "type": "event"
    },
    {
      "anonymous": false,
      "inputs": [
        {
          "indexed": true,
          "internalType": "address",
          "name": "to",
          "type": "address"
        },
        {
          "indexed": false,
          "internalType": "uint256",
          "name": "score",
          "type": "uint256"
        }
      ],
      "name": "PawnReputationRewarded",
      "type": "event"
    },
    {
      "anonymous": false,
      "inputs": [],
      "name": "RewardPawnReputationDisabled",
      "type": "event"
    },
    {
      "anonymous": false,
      "inputs": [],
      "name": "RewardPawnReputationEnabled",
      "type": "event"
    },
    {
      "anonymous": false,
      "inputs": [
        {
          "indexed": true,
          "internalType": "bytes32",
          "name": "role",
          "type": "bytes32"
        },
        {
          "indexed": true,
          "internalType": "bytes32",
          "name": "previousAdminRole",
          "type": "bytes32"
        },
        {
          "indexed": true,
          "internalType": "bytes32",
          "name": "newAdminRole",
          "type": "bytes32"
        }
      ],
      "name": "RoleAdminChanged",
      "type": "event"
    },
    {
      "anonymous": false,
      "inputs": [
        {
          "indexed": true,
          "internalType": "bytes32",
          "name": "role",
          "type": "bytes32"
        },
        {
          "indexed": true,
          "internalType": "address",
          "name": "account",
          "type": "address"
        },
        {
          "indexed": true,
          "internalType": "address",
          "name": "sender",
          "type": "address"
        }
      ],
      "name": "RoleGranted",
      "type": "event"
    },
    {
      "anonymous": false,
      "inputs": [
        {
          "indexed": true,
          "internalType": "bytes32",
          "name": "role",
          "type": "bytes32"
        },
        {
          "indexed": true,
          "internalType": "address",
          "name": "account",
          "type": "address"
        },
        {
          "indexed": true,
          "internalType": "address",
          "name": "sender",
          "type": "address"
        }
      ],
      "name": "RoleRevoked",
      "type": "event"
    },
    {
      "anonymous": false,
      "inputs": [
        {
          "indexed": true,
          "internalType": "address",
          "name": "from",
          "type": "address"
        },
        {
          "indexed": true,
          "internalType": "address",
          "name": "to",
          "type": "address"
        },
        {
          "indexed": false,
          "internalType": "uint256",
          "name": "value",
          "type": "uint256"
        }
      ],
      "name": "Transfer",
      "type": "event"
    },
    {
      "anonymous": false,
      "inputs": [],
      "name": "TransferEnabled",
      "type": "event"
    },
    {
      "anonymous": false,
      "inputs": [
        {
          "indexed": false,
          "internalType": "address",
          "name": "account",
          "type": "address"
        }
      ],
      "name": "Unpaused",
      "type": "event"
    },
    {
      "inputs": [],
      "name": "DEFAULT_ADMIN_ROLE",
      "outputs": [
        {
          "internalType": "bytes32",
          "name": "",
          "type": "bytes32"
        }
      ],
      "stateMutability": "view",
      "type": "function"
    },
    {
      "inputs": [],
      "name": "MINTER_ROLE",
      "outputs": [
        {
          "internalType": "bytes32",
          "name": "",
          "type": "bytes32"
        }
      ],
      "stateMutability": "view",
      "type": "function"
    },
    {
      "inputs": [],
      "name": "OPERATOR_ROLE",
      "outputs": [
        {
          "internalType": "bytes32",
          "name": "",
          "type": "bytes32"
        }
      ],
      "stateMutability": "view",
      "type": "function"
    },
    {
      "inputs": [
        {
          "internalType": "address",
          "name": "owner",
          "type": "address"
        },
        {
          "internalType": "address",
          "name": "spender",
          "type": "address"
        }
      ],
      "name": "allowance",
      "outputs": [
        {
          "internalType": "uint256",
          "name": "",
          "type": "uint256"
        }
      ],
      "stateMutability": "view",
      "type": "function"
    },
    {
      "inputs": [
        {
          "internalType": "address",
          "name": "spender",
          "type": "address"
        },
        {
          "internalType": "uint256",
          "name": "amount",
          "type": "uint256"
        }
      ],
      "name": "approve",
      "outputs": [
        {
          "internalType": "bool",
          "name": "",
          "type": "bool"
        }
      ],
      "stateMutability": "nonpayable",
      "type": "function"
    },
    {
      "inputs": [
        {
          "internalType": "address",
          "name": "spender",
          "type": "address"
        },
        {
          "internalType": "uint256",
          "name": "value",
          "type": "uint256"
        }
      ],
      "name": "approveAndCall",
      "outputs": [
        {
          "internalType": "bool",
          "name": "",
          "type": "bool"
        }
      ],
      "stateMutability": "nonpayable",
      "type": "function"
    },
    {
      "inputs": [
        {
          "internalType": "address",
          "name": "spender",
          "type": "address"
        },
        {
          "internalType": "uint256",
          "name": "value",
          "type": "uint256"
        },
        {
          "internalType": "bytes",
          "name": "data",
          "type": "bytes"
        }
      ],
      "name": "approveAndCall",
      "outputs": [
        {
          "internalType": "bool",
          "name": "",
          "type": "bool"
        }
      ],
      "stateMutability": "nonpayable",
      "type": "function"
    },
    {
      "inputs": [
        {
          "internalType": "address",
          "name": "account",
          "type": "address"
        }
      ],
      "name": "balanceOf",
      "outputs": [
        {
          "internalType": "uint256",
          "name": "",
          "type": "uint256"
        }
      ],
      "stateMutability": "view",
      "type": "function"
    },
    {
      "inputs": [
        {
          "internalType": "uint256",
          "name": "amount",
          "type": "uint256"
        }
      ],
      "name": "burn",
      "outputs": [],
      "stateMutability": "nonpayable",
      "type": "function"
    },
    {
      "inputs": [
        {
          "internalType": "address",
          "name": "account",
          "type": "address"
        },
        {
          "internalType": "uint256",
          "name": "amount",
          "type": "uint256"
        }
      ],
      "name": "burnFrom",
      "outputs": [],
      "stateMutability": "nonpayable",
      "type": "function"
    },
    {
      "inputs": [],
      "name": "cap",
      "outputs": [
        {
          "internalType": "uint256",
          "name": "",
          "type": "uint256"
        }
      ],
      "stateMutability": "view",
      "type": "function"
    },
    {
      "inputs": [],
      "name": "decimals",
      "outputs": [
        {
          "internalType": "uint8",
          "name": "",
          "type": "uint8"
        }
      ],
      "stateMutability": "view",
      "type": "function"
    },
    {
      "inputs": [
        {
          "internalType": "address",
          "name": "spender",
          "type": "address"
        },
        {
          "internalType": "uint256",
          "name": "subtractedValue",
          "type": "uint256"
        }
      ],
      "name": "decreaseAllowance",
      "outputs": [
        {
          "internalType": "bool",
          "name": "",
          "type": "bool"
        }
      ],
      "stateMutability": "nonpayable",
      "type": "function"
    },
    {
      "inputs": [],
      "name": "enableTransfer",
      "outputs": [],
      "stateMutability": "nonpayable",
      "type": "function"
    },
    {
      "inputs": [],
      "name": "finishMinting",
      "outputs": [],
      "stateMutability": "nonpayable",
      "type": "function"
    },
    {
      "inputs": [
        {
          "internalType": "bytes32",
          "name": "role",
          "type": "bytes32"
        }
      ],
      "name": "getRoleAdmin",
      "outputs": [
        {
          "internalType": "bytes32",
          "name": "",
          "type": "bytes32"
        }
      ],
      "stateMutability": "view",
      "type": "function"
    },
    {
      "inputs": [
        {
          "internalType": "bytes32",
          "name": "role",
          "type": "bytes32"
        },
        {
          "internalType": "uint256",
          "name": "index",
          "type": "uint256"
        }
      ],
      "name": "getRoleMember",
      "outputs": [
        {
          "internalType": "address",
          "name": "",
          "type": "address"
        }
      ],
      "stateMutability": "view",
      "type": "function"
    },
    {
      "inputs": [
        {
          "internalType": "bytes32",
          "name": "role",
          "type": "bytes32"
        }
      ],
      "name": "getRoleMemberCount",
      "outputs": [
        {
          "internalType": "uint256",
          "name": "",
          "type": "uint256"
        }
      ],
      "stateMutability": "view",
      "type": "function"
    },
    {
      "inputs": [
        {
          "internalType": "bytes32",
          "name": "role",
          "type": "bytes32"
        },
        {
          "internalType": "address",
          "name": "account",
          "type": "address"
        }
      ],
      "name": "grantRole",
      "outputs": [],
      "stateMutability": "nonpayable",
      "type": "function"
    },
    {
      "inputs": [
        {
          "internalType": "bytes32",
          "name": "role",
          "type": "bytes32"
        },
        {
          "internalType": "address",
          "name": "account",
          "type": "address"
        }
      ],
      "name": "hasRole",
      "outputs": [
        {
          "internalType": "bool",
          "name": "",
          "type": "bool"
        }
      ],
      "stateMutability": "view",
      "type": "function"
    },
    {
      "inputs": [
        {
          "internalType": "address",
          "name": "spender",
          "type": "address"
        },
        {
          "internalType": "uint256",
          "name": "addedValue",
          "type": "uint256"
        }
      ],
      "name": "increaseAllowance",
      "outputs": [
        {
          "internalType": "bool",
          "name": "",
          "type": "bool"
        }
      ],
      "stateMutability": "nonpayable",
      "type": "function"
    },
    {
      "inputs": [
        {
          "internalType": "address",
          "name": "to",
          "type": "address"
        },
        {
          "internalType": "uint256",
          "name": "value",
          "type": "uint256"
        }
      ],
      "name": "mint",
      "outputs": [],
      "stateMutability": "nonpayable",
      "type": "function"
    },
    {
      "inputs": [],
      "name": "mintingFinished",
      "outputs": [
        {
          "internalType": "bool",
          "name": "",
          "type": "bool"
        }
      ],
      "stateMutability": "view",
      "type": "function"
    },
    {
      "inputs": [],
      "name": "name",
      "outputs": [
        {
          "internalType": "string",
          "name": "",
          "type": "string"
        }
      ],
      "stateMutability": "view",
      "type": "function"
    },
    {
      "inputs": [],
      "name": "owner",
      "outputs": [
        {
          "internalType": "address",
          "name": "",
          "type": "address"
        }
      ],
      "stateMutability": "view",
      "type": "function"
    },
    {
      "inputs": [],
      "name": "paused",
      "outputs": [
        {
          "internalType": "bool",
          "name": "",
          "type": "bool"
        }
      ],
      "stateMutability": "view",
      "type": "function"
    },
    {
      "inputs": [
        {
          "internalType": "address",
          "name": "tokenAddress",
          "type": "address"
        },
        {
          "internalType": "uint256",
          "name": "tokenAmount",
          "type": "uint256"
        }
      ],
      "name": "recoverERC20",
      "outputs": [],
      "stateMutability": "nonpayable",
      "type": "function"
    },
    {
      "inputs": [],
      "name": "renounceOwnership",
      "outputs": [],
      "stateMutability": "nonpayable",
      "type": "function"
    },
    {
      "inputs": [
        {
          "internalType": "bytes32",
          "name": "role",
          "type": "bytes32"
        },
        {
          "internalType": "address",
          "name": "account",
          "type": "address"
        }
      ],
      "name": "renounceRole",
      "outputs": [],
      "stateMutability": "nonpayable",
      "type": "function"
    },
    {
      "inputs": [
        {
          "internalType": "bytes32",
          "name": "role",
          "type": "bytes32"
        },
        {
          "internalType": "address",
          "name": "account",
          "type": "address"
        }
      ],
      "name": "revokeRole",
      "outputs": [],
      "stateMutability": "nonpayable",
      "type": "function"
    },
    {
      "inputs": [
        {
          "internalType": "bytes4",
          "name": "interfaceId",
          "type": "bytes4"
        }
      ],
      "name": "supportsInterface",
      "outputs": [
        {
          "internalType": "bool",
          "name": "",
          "type": "bool"
        }
      ],
      "stateMutability": "view",
      "type": "function"
    },
    {
      "inputs": [],
      "name": "symbol",
      "outputs": [
        {
          "internalType": "string",
          "name": "",
          "type": "string"
        }
      ],
      "stateMutability": "view",
      "type": "function"
    },
    {
      "inputs": [],
      "name": "totalSupply",
      "outputs": [
        {
          "internalType": "uint256",
          "name": "",
          "type": "uint256"
        }
      ],
      "stateMutability": "view",
      "type": "function"
    },
    {
      "inputs": [
        {
          "internalType": "address",
          "name": "to",
          "type": "address"
        },
        {
          "internalType": "uint256",
          "name": "value",
          "type": "uint256"
        }
      ],
      "name": "transfer",
      "outputs": [
        {
          "internalType": "bool",
          "name": "",
          "type": "bool"
        }
      ],
      "stateMutability": "nonpayable",
      "type": "function"
    },
    {
      "inputs": [
        {
          "internalType": "address",
          "name": "to",
          "type": "address"
        },
        {
          "internalType": "uint256",
          "name": "value",
          "type": "uint256"
        }
      ],
      "name": "transferAndCall",
      "outputs": [
        {
          "internalType": "bool",
          "name": "",
          "type": "bool"
        }
      ],
      "stateMutability": "nonpayable",
      "type": "function"
    },
    {
      "inputs": [
        {
          "internalType": "address",
          "name": "to",
          "type": "address"
        },
        {
          "internalType": "uint256",
          "name": "value",
          "type": "uint256"
        },
        {
          "internalType": "bytes",
          "name": "data",
          "type": "bytes"
        }
      ],
      "name": "transferAndCall",
      "outputs": [
        {
          "internalType": "bool",
          "name": "",
          "type": "bool"
        }
      ],
      "stateMutability": "nonpayable",
      "type": "function"
    },
    {
      "inputs": [],
      "name": "transferEnabled",
      "outputs": [
        {
          "internalType": "bool",
          "name": "",
          "type": "bool"
        }
      ],
      "stateMutability": "view",
      "type": "function"
    },
    {
      "inputs": [
        {
          "internalType": "address",
          "name": "from",
          "type": "address"
        },
        {
          "internalType": "address",
          "name": "to",
          "type": "address"
        },
        {
          "internalType": "uint256",
          "name": "value",
          "type": "uint256"
        }
      ],
      "name": "transferFrom",
      "outputs": [
        {
          "internalType": "bool",
          "name": "",
          "type": "bool"
        }
      ],
      "stateMutability": "nonpayable",
      "type": "function"
    },
    {
      "inputs": [
        {
          "internalType": "address",
          "name": "from",
          "type": "address"
        },
        {
          "internalType": "address",
          "name": "to",
          "type": "address"
        },
        {
          "internalType": "uint256",
          "name": "value",
          "type": "uint256"
        },
        {
          "internalType": "bytes",
          "name": "data",
          "type": "bytes"
        }
      ],
      "name": "transferFromAndCall",
      "outputs": [
        {
          "internalType": "bool",
          "name": "",
          "type": "bool"
        }
      ],
      "stateMutability": "nonpayable",
      "type": "function"
    },
    {
      "inputs": [
        {
          "internalType": "address",
          "name": "from",
          "type": "address"
        },
        {
          "internalType": "address",
          "name": "to",
          "type": "address"
        },
        {
          "internalType": "uint256",
          "name": "value",
          "type": "uint256"
        }
      ],
      "name": "transferFromAndCall",
      "outputs": [
        {
          "internalType": "bool",
          "name": "",
          "type": "bool"
        }
      ],
      "stateMutability": "nonpayable",
      "type": "function"
    },
    {
      "inputs": [],
      "name": "getOwner",
      "outputs": [
        {
          "internalType": "address",
          "name": "",
          "type": "address"
        }
      ],
      "stateMutability": "view",
      "type": "function"
    },
    {
      "inputs": [
        {
          "internalType": "address",
          "name": "newOwner",
          "type": "address"
        }
      ],
      "name": "transferOwnership",
      "outputs": [],
      "stateMutability": "nonpayable",
      "type": "function"
    },
    {
      "inputs": [],
      "name": "rewardPawnReputationEnabled",
      "outputs": [
        {
          "internalType": "bool",
          "name": "",
          "type": "bool"
        }
      ],
      "stateMutability": "view",
      "type": "function"
    },
    {
      "inputs": [],
      "name": "enableRewardPawnReputation",
      "outputs": [],
      "stateMutability": "nonpayable",
      "type": "function"
    },
    {
      "inputs": [],
      "name": "disableRewardPawnReputation",
      "outputs": [],
      "stateMutability": "nonpayable",
      "type": "function"
    },
    {
      "inputs": [
        {
          "internalType": "address",
          "name": "account",
          "type": "address"
        }
      ],
      "name": "pawnReputationOf",
      "outputs": [
        {
          "internalType": "uint256",
          "name": "",
          "type": "uint256"
        }
      ],
      "stateMutability": "view",
      "type": "function"
    },
    {
      "inputs": [
        {
          "internalType": "address",
          "name": "to",
          "type": "address"
        },
        {
          "internalType": "uint256",
          "name": "score",
          "type": "uint256"
        }
      ],
      "name": "rewardPawnReputation",
      "outputs": [
        {
          "internalType": "uint256",
          "name": "",
          "type": "uint256"
        }
      ],
      "stateMutability": "nonpayable",
      "type": "function"
    },
    {
      "inputs": [
        {
          "internalType": "address",
          "name": "to",
          "type": "address"
        },
        {
          "internalType": "uint256",
          "name": "score",
          "type": "uint256"
        }
      ],
      "name": "reducePawnReputation",
      "outputs": [
        {
          "internalType": "uint256",
          "name": "",
          "type": "uint256"
        }
      ],
      "stateMutability": "nonpayable",
      "type": "function"
    }
  ],
  "bytecode": "0x60806040526009805461ffff60a01b19169055600b805460ff191660011790553480156200002c57600080fd5b506040518060400160405280600d81526020016c2232a334902337b9102cb7ba9760991b8152506040518060400160405280600381526020016244465960e81b81525060126b033b2e3c9fd0803ce8000000806000858584828281600390805190602001906200009e9291906200077c565b508051620000b49060049060208401906200077c565b50506005805460ff19166012179055508062000117576040805162461bcd60e51b815260206004820152601560248201527f45524332304361707065643a2063617020697320300000000000000000000000604482015290519081900360640190fd5b6006556200012c6301ffc9a760e01b62000273565b6200013e634bbee2df60e01b62000273565b62000150637dcf646760e11b62000273565b50620001699050600062000163620002f8565b620002fc565b620001987ff0887ba65ee2024ea881d91b74c2450ef19e1557f03bed3ea9f16b037cbe2dc962000163620002f8565b620001c77f523a704056dcd17bcf83bed8b68c59416dac1119be77755efe3bde0a64e46e0c62000163620002f8565b6000620001d3620002f8565b600980546001600160a01b0319166001600160a01b038316908117909155604051919250906000907f8be0079c531659141344cd1fd0a4f28419497f9722a3daafe3b4186f6b6457e0908290a3506200022c846200030c565b81156200024857620002486200024162000322565b8362000331565b801562000259576200025962000440565b50506009805460ff60b01b19169055506200082892505050565b6001600160e01b03198082161415620002d3576040805162461bcd60e51b815260206004820152601c60248201527f4552433136353a20696e76616c696420696e7465726661636520696400000000604482015290519081900360640190fd5b6001600160e01b0319166000908152600760205260409020805460ff19166001179055565b3390565b620003088282620004eb565b5050565b6005805460ff191660ff92909216919091179055565b6009546001600160a01b031690565b6001600160a01b0382166200038d576040805162461bcd60e51b815260206004820152601f60248201527f45524332303a206d696e7420746f20746865207a65726f206164647265737300604482015290519081900360640190fd5b6200039b6000838362000566565b620003b781600254620005cb60201b620019421790919060201c565b6002556001600160a01b03821660009081526020818152604090912054620003ea91839062001942620005cb821b17901c565b6001600160a01b0383166000818152602081815260408083209490945583518581529351929391927fddf252ad1be2c89b69c2b068fc378daa952ba7f163c4a11628f55a4df523b3ef9281900390910190a35050565b6200044a620002f8565b6009546001600160a01b03908116911614620004ad576040805162461bcd60e51b815260206004820181905260248201527f4f776e61626c653a2063616c6c6572206973206e6f7420746865206f776e6572604482015290519081900360640190fd5b6009805460ff60a81b1916600160a81b1790556040517f75fce015c314a132947a3e42f6ab79ab8e05397dabf35b4d742dea228bbadc2d90600090a1565b6000828152600860209081526040909120620005129183906200199c6200062f821b17901c565b15620003085762000522620002f8565b6001600160a01b0316816001600160a01b0316837f2f8788117e7eff1d82e926ec794901d17c78024a50270940304540a733656f0d60405160405180910390a45050565b6200057e8383836200064660201b620019b11760201c565b620005886200065e565b15620005c65760405162461bcd60e51b815260040180806020018281038252602a81526020018062003471602a913960400191505060405180910390fd5b505050565b60008282018381101562000626576040805162461bcd60e51b815260206004820152601b60248201527f536166654d6174683a206164646974696f6e206f766572666c6f770000000000604482015290519081900360640190fd5b90505b92915050565b600062000626836001600160a01b0384166200066e565b620005c6838383620006bd60201b620019b81760201c565b600954600160b01b900460ff1690565b60006200067c83836200075e565b620006b45750815460018181018455600084815260208082209093018490558454848252828601909352604090209190915562000629565b50600062000629565b620006d5838383620005c660201b6200116f1760201c565b6001600160a01b038316620005c6576006546200070a82620006f662000776565b620005cb60201b620019421790919060201c565b1115620005c6576040805162461bcd60e51b815260206004820152601960248201527f45524332304361707065643a2063617020657863656564656400000000000000604482015290519081900360640190fd5b60009081526001919091016020526040902054151590565b60025490565b828054600181600116156101000203166002900490600052602060002090601f016020900481019282620007b45760008555620007ff565b82601f10620007cf57805160ff1916838001178555620007ff565b82800160010185558215620007ff579182015b82811115620007ff578251825591602001919060010190620007e2565b506200080d92915062000811565b5090565b5b808211156200080d576000815560010162000812565b612c3980620008386000396000f3fe608060405234801561001057600080fd5b50600436106102a05760003560e01c8063715018a611610167578063a9059cbb116100ce578063d547741f11610087578063d547741f146109c3578063d8fbe994146109ef578063dd62ed3e14610a25578063f1b50c1d14610a53578063f2fde38b14610a5b578063f5b541a614610a81576102a0565b8063a9059cbb146107e9578063c1d34b8914610815578063ca15c873146108db578063cae9ca51146108f8578063d492cb53146109b3578063d5391393146109bb576102a0565b80639010d07c116101205780639010d07c1461073257806391d148541461075557806395d89b4114610781578063a217fddf14610789578063a457c2d714610791578063a4c1ed96146107bd576102a0565b8063715018a61461069e57806379cc6790146106a65780637d64bcb4146106d2578063893d20e8146106da5780638980f11f146106fe5780638da5cb5b1461072a576102a0565b8063355274ea1161020b57806340c10f19116101c457806340c10f19146105f357806342966c681461061f5780634cd412d51461063c578063597e12c5146106445780635c975abb1461067057806370a0823114610678576102a0565b8063355274ea146104aa57806336568abe146104b257806337eeb1da146104de57806339509351146104e65780633d87fbc0146105125780634000aea014610538576102a0565b80632376cc891161025d5780632376cc89146103d757806323b872dd146103e1578063248a9ca3146104175780632f2ff15d14610434578063313ce567146104605780633177029f1461047e576102a0565b806301ffc9a7146102a557806305d2035b146102e057806306fdde03146102e8578063095ea7b3146103655780631296ee621461039157806318160ddd146103bd575b600080fd5b6102cc600480360360208110156102bb57600080fd5b50356001600160e01b031916610a89565b604080519115158252519081900360200190f35b6102cc610aa8565b6102f0610ab8565b6040805160208082528351818301528351919283929083019185019080838360005b8381101561032a578181015183820152602001610312565b50505050905090810190601f1680156103575780820380516001836020036101000a031916815260200191505b509250505060405180910390f35b6102cc6004803603604081101561037b57600080fd5b506001600160a01b038135169060200135610b4e565b6102cc600480360360408110156103a757600080fd5b506001600160a01b038135169060200135610b6c565b6103c5610b8f565b60408051918252519081900360200190f35b6103df610b95565b005b6102cc600480360360608110156103f757600080fd5b506001600160a01b03813581169160208101359091169060400135610c25565b6103c56004803603602081101561042d57600080fd5b5035610ca4565b6103df6004803603604081101561044a57600080fd5b50803590602001356001600160a01b0316610cb9565b610468610d25565b6040805160ff9092168252519081900360200190f35b6102cc6004803603604081101561049457600080fd5b506001600160a01b038135169060200135610d2e565b6103c5610d4a565b6103df600480360360408110156104c857600080fd5b50803590602001356001600160a01b0316610d50565b6102cc610db1565b6102cc600480360360408110156104fc57600080fd5b506001600160a01b038135169060200135610dba565b6103c56004803603602081101561052857600080fd5b50356001600160a01b0316610e0d565b6102cc6004803603606081101561054e57600080fd5b6001600160a01b038235169160208101359181019060608101604082013564010000000081111561057e57600080fd5b82018360208201111561059057600080fd5b803590602001918460018302840111640100000000831117156105b257600080fd5b91908080601f016020809104026020016040519081016040528093929190818152602001838380828437600092019190915250929550610e28945050505050565b6103df6004803603604081101561060957600080fd5b506001600160a01b038135169060200135610e8d565b6103df6004803603602081101561063557600080fd5b5035610f4b565b6102cc610f5f565b6103c56004803603604081101561065a57600080fd5b506001600160a01b038135169060200135610f6f565b6102cc61104d565b6103c56004803603602081101561068e57600080fd5b50356001600160a01b031661105d565b6103df611078565b6103df600480360360408110156106bc57600080fd5b506001600160a01b03813516906020013561111a565b6103df611174565b6106e2611269565b604080516001600160a01b039092168252519081900360200190f35b6103df6004803603604081101561071457600080fd5b506001600160a01b038135169060200135611278565b6106e261135e565b6106e26004803603604081101561074857600080fd5b508035906020013561136d565b6102cc6004803603604081101561076b57600080fd5b50803590602001356001600160a01b0316611385565b6102f061139d565b6103c56113fe565b6102cc600480360360408110156107a757600080fd5b506001600160a01b038135169060200135611403565b6103c5600480360360408110156107d357600080fd5b506001600160a01b03813516906020013561146b565b6102cc600480360360408110156107ff57600080fd5b506001600160a01b03813516906020013561152c565b6102cc6004803603608081101561082b57600080fd5b6001600160a01b0382358116926020810135909116916040820135919081019060808101606082013564010000000081111561086657600080fd5b82018360208201111561087857600080fd5b8035906020019184600183028401116401000000008311171561089a57600080fd5b91908080601f0160208091040260200160405190810160405280939291908181526020018383808284376000920191909152509295506115ae945050505050565b6103c5600480360360208110156108f157600080fd5b503561160e565b6102cc6004803603606081101561090e57600080fd5b6001600160a01b038235169160208101359181019060608101604082013564010000000081111561093e57600080fd5b82018360208201111561095057600080fd5b8035906020019184600183028401116401000000008311171561097257600080fd5b91908080601f016020809104026020016040519081016040528093929190818152602001838380828437600092019190915250929550611625945050505050565b6103df611678565b6103c5611705565b6103df600480360360408110156109d957600080fd5b50803590602001356001600160a01b0316611717565b6102cc60048036036060811015610a0557600080fd5b506001600160a01b03813581169160208101359091169060400135611770565b6103c560048036036040811015610a3b57600080fd5b506001600160a01b038135811691602001351661178d565b6103df6117b8565b6103df60048036036020811015610a7157600080fd5b50356001600160a01b031661184e565b6103c5611930565b6001600160e01b03191660009081526007602052604090205460ff1690565b600954600160a01b900460ff1690565b60038054604080516020601f6002600019610100600188161502019095169490940493840181900481028201810190925282815260609390929091830182828015610b445780601f10610b1957610100808354040283529160200191610b44565b820191906000526020600020905b815481529060010190602001808311610b2757829003601f168201915b5050505050905090565b6000610b62610b5b611a39565b8484611a3d565b5060015b92915050565b6000610b88838360405180602001604052806000815250610e28565b9392505050565b60025490565b610b9d611a39565b6009546001600160a01b03908116911614610bed576040805162461bcd60e51b81526020600482018190526024820152600080516020612a0b833981519152604482015290519081900360640190fd5b600b805460ff191660011790556040517f331a25e89e715af170692b62159c39ff1b5ff8ee6460d08f75c922a036044b2090600090a1565b6009546000908490600160a81b900460ff1680610c555750610c5560008051602061299d83398151915282611385565b610c905760405162461bcd60e51b815260040180806020018281038252604a815260200180612b3c604a913960600191505060405180910390fd5b610c9b858585611b29565b95945050505050565b60009081526008602052604090206002015490565b600082815260086020526040902060020154610cdc90610cd7611a39565b611385565b610d175760405162461bcd60e51b815260040180806020018281038252602f81526020018061283e602f913960400191505060405180910390fd5b610d218282611ba1565b5050565b60055460ff1690565b6000610b88838360405180602001604052806000815250611625565b60065490565b610d58611a39565b6001600160a01b0316816001600160a01b031614610da75760405162461bcd60e51b815260040180806020018281038252602f815260200180612bab602f913960400191505060405180910390fd5b610d218282611c0a565b600b5460ff1690565b6000610b62610dc7611a39565b84610e088560016000610dd8611a39565b6001600160a01b03908116825260208083019390935260409182016000908120918c168152925290205490611942565b611a3d565b6001600160a01b03166000908152600a602052604090205490565b6000610e34848461152c565b50610e48610e40611a39565b858585611c73565b610e835760405162461bcd60e51b81526004018080602001828103825260268152602001806129bd6026913960400191505060405180910390fd5b5060019392505050565b600954600160a01b900460ff1615610eec576040805162461bcd60e51b815260206004820152601e60248201527f4552433230426173653a206d696e74696e672069732066696e69736865640000604482015290519081900360640190fd5b610f066000805160206128fc833981519152610cd7611a39565b610f415760405162461bcd60e51b815260040180806020018281038252602b815260200180612972602b913960400191505060405180910390fd5b610d218282611db8565b610f5c610f56611a39565b82611ea8565b50565b600954600160a81b900460ff1690565b600b5460009060ff168015610f995750610f9960008051602061299d833981519152610cd7611a39565b610fd45760405162461bcd60e51b8152600401808060200182810382526054815260200180612a4f6054913960600191505060405180910390fd5b600954600160b01b900460ff1615611026576040805162461bcd60e51b815260206004820152601060248201526f14185d5cd8589b194e881c185d5cd95960821b604482015290519081900360640190fd5b6110308383611fa4565b50506001600160a01b03166000908152600a602052604090205490565b600954600160b01b900460ff1690565b6001600160a01b031660009081526020819052604090205490565b611080611a39565b6009546001600160a01b039081169116146110d0576040805162461bcd60e51b81526020600482018190526024820152600080516020612a0b833981519152604482015290519081900360640190fd5b6009546040516000916001600160a01b0316907f8be0079c531659141344cd1fd0a4f28419497f9722a3daafe3b4186f6b6457e0908390a3600980546001600160a01b0319169055565b600061115182604051806060016040528060248152602001612a2b6024913961114a86611145611a39565b61178d565b9190612062565b90506111658361115f611a39565b83611a3d565b61116f8383611ea8565b505050565b600954600160a01b900460ff16156111d3576040805162461bcd60e51b815260206004820152601e60248201527f4552433230426173653a206d696e74696e672069732066696e69736865640000604482015290519081900360640190fd5b6111db611a39565b6009546001600160a01b0390811691161461122b576040805162461bcd60e51b81526020600482018190526024820152600080516020612a0b833981519152604482015290519081900360640190fd5b6009805460ff60a01b1916600160a01b1790556040517fae5184fba832cb2b1f702aca6117b8d265eaf03ad33eb133f19dde0f5920fa0890600090a1565b600061127361135e565b905090565b611280611a39565b6009546001600160a01b039081169116146112d0576040805162461bcd60e51b81526020600482018190526024820152600080516020612a0b833981519152604482015290519081900360640190fd5b816001600160a01b031663a9059cbb6112e761135e565b836040518363ffffffff1660e01b815260040180836001600160a01b0316815260200182815260200192505050602060405180830381600087803b15801561132e57600080fd5b505af1158015611342573d6000803e3d6000fd5b505050506040513d602081101561135857600080fd5b50505050565b6009546001600160a01b031690565b6000828152600860205260408120610b8890836120f9565b6000828152600860205260408120610b889083612105565b60048054604080516020601f6002600019610100600188161502019095169490940493840181900481028201810190925282815260609390929091830182828015610b445780601f10610b1957610100808354040283529160200191610b44565b600081565b6000610b62611410611a39565b84610e0885604051806060016040528060258152602001612b86602591396001600061143a611a39565b6001600160a01b03908116825260208083019390935260409182016000908120918d16815292529020549190612062565b600b5460009060ff168015611495575061149560008051602061299d833981519152610cd7611a39565b6114d05760405162461bcd60e51b8152600401808060200182810382526054815260200180612a4f6054913960600191505060405180910390fd5b600954600160b01b900460ff1615611522576040805162461bcd60e51b815260206004820152601060248201526f14185d5cd8589b194e881c185d5cd95960821b604482015290519081900360640190fd5b611030838361211a565b6000611536611a39565b600954600160a81b900460ff1680611561575061156160008051602061299d83398151915282611385565b61159c5760405162461bcd60e51b815260040180806020018281038252604a815260200180612b3c604a913960600191505060405180910390fd5b6115a684846121f2565b949350505050565b60006115bb858585610c25565b506115c885858585611c73565b6116035760405162461bcd60e51b81526004018080602001828103825260268152602001806129bd6026913960400191505060405180910390fd5b506001949350505050565b6000818152600860205260408120610b6690612206565b60006116318484610b4e565b5061163d848484612211565b610e835760405162461bcd60e51b81526004018080602001828103825260258152602001806128d76025913960400191505060405180910390fd5b611680611a39565b6009546001600160a01b039081169116146116d0576040805162461bcd60e51b81526020600482018190526024820152600080516020612a0b833981519152604482015290519081900360640190fd5b600b805460ff191690556040517fd5a6ce68f4a72b00c0ed656834e01e658a666b1a1f9357553ec9e6204b9cd55690600090a1565b6000805160206128fc83398151915281565b60008281526008602052604090206002015461173590610cd7611a39565b610da75760405162461bcd60e51b81526004018080602001828103825260308152602001806129426030913960400191505060405180910390fd5b60006115a6848484604051806020016040528060008152506115ae565b6001600160a01b03918216600090815260016020908152604080832093909416825291909152205490565b6117c0611a39565b6009546001600160a01b03908116911614611810576040805162461bcd60e51b81526020600482018190526024820152600080516020612a0b833981519152604482015290519081900360640190fd5b6009805460ff60a81b1916600160a81b1790556040517f75fce015c314a132947a3e42f6ab79ab8e05397dabf35b4d742dea228bbadc2d90600090a1565b611856611a39565b6009546001600160a01b039081169116146118a6576040805162461bcd60e51b81526020600482018190526024820152600080516020612a0b833981519152604482015290519081900360640190fd5b6118af81612344565b6118ba600082610cb9565b6118d26000805160206128fc83398151915282610cb9565b6118ea60008051602061299d83398151915282610cb9565b61190960008051602061299d833981519152611904611a39565b611717565b6119236000805160206128fc833981519152611904611a39565b610f5c6000611904611a39565b60008051602061299d83398151915281565b600082820183811015610b88576040805162461bcd60e51b815260206004820152601b60248201527f536166654d6174683a206164646974696f6e206f766572666c6f770000000000604482015290519081900360640190fd5b6000610b88836001600160a01b03841661243d565b61116f8383835b6119c383838361116f565b6001600160a01b03831661116f576006546119e6826119e0610b8f565b90611942565b111561116f576040805162461bcd60e51b815260206004820152601960248201527f45524332304361707065643a2063617020657863656564656400000000000000604482015290519081900360640190fd5b3390565b6001600160a01b038316611a825760405162461bcd60e51b8152600401808060200182810382526024815260200180612b186024913960400191505060405180910390fd5b6001600160a01b038216611ac75760405162461bcd60e51b81526004018080602001828103825260228152602001806128b56022913960400191505060405180910390fd5b6001600160a01b03808416600081815260016020908152604080832094871680845294825291829020859055815185815291517f8c5be1e5ebec7d5bd14f71427d1e84f3dd0314c0f7b2291e5b200ac8c7c3b9259281900390910190a3505050565b6000611b36848484612487565b610e8384611b42611a39565b610e08856040518060600160405280602881526020016129e3602891396001600160a01b038a16600090815260016020526040812090611b80611a39565b6001600160a01b031681526020810191909152604001600020549190612062565b6000828152600860205260409020611bb9908261199c565b15610d2157611bc6611a39565b6001600160a01b0316816001600160a01b0316837f2f8788117e7eff1d82e926ec794901d17c78024a50270940304540a733656f0d60405160405180910390a45050565b6000828152600860205260409020611c2290826125e2565b15610d2157611c2f611a39565b6001600160a01b0316816001600160a01b0316837ff6391f5c32d9c69d2a47ea670b442974b53935d1edc7fd64eb21e047a839171b60405160405180910390a45050565b6000611c87846001600160a01b03166125f7565b611c93575060006115a6565b6000846001600160a01b03166388a7ca5c611cac611a39565b8887876040518563ffffffff1660e01b815260040180856001600160a01b03168152602001846001600160a01b0316815260200183815260200180602001828103825283818151815260200191508051906020019080838360005b83811015611d1f578181015183820152602001611d07565b50505050905090810190601f168015611d4c5780820380516001836020036101000a031916815260200191505b5095505050505050602060405180830381600087803b158015611d6e57600080fd5b505af1158015611d82573d6000803e3d6000fd5b505050506040513d6020811015611d9857600080fd5b50516001600160e01b031916632229f29760e21b14915050949350505050565b6001600160a01b038216611e13576040805162461bcd60e51b815260206004820152601f60248201527f45524332303a206d696e7420746f20746865207a65726f206164647265737300604482015290519081900360640190fd5b611e1f600083836125fd565b600254611e2c9082611942565b6002556001600160a01b038216600090815260208190526040902054611e529082611942565b6001600160a01b0383166000818152602081815260408083209490945583518581529351929391927fddf252ad1be2c89b69c2b068fc378daa952ba7f163c4a11628f55a4df523b3ef9281900390910190a35050565b6001600160a01b038216611eed5760405162461bcd60e51b8152600401808060200182810382526021815260200180612ad26021913960400191505060405180910390fd5b611ef9826000836125fd565b611f368160405180606001604052806022815260200161286d602291396001600160a01b0385166000908152602081905260409020549190612062565b6001600160a01b038316600090815260208190526040902055600254611f5c908261264c565b6002556040805182815290516000916001600160a01b038516917fddf252ad1be2c89b69c2b068fc378daa952ba7f163c4a11628f55a4df523b3ef9181900360200190a35050565b6001600160a01b038216611fe95760405162461bcd60e51b815260040180806020018281038252602f815260200180612aa3602f913960400191505060405180910390fd5b6001600160a01b0382166000908152600a602052604090205461200c9082611942565b6001600160a01b0383166000818152600a6020908152604091829020939093558051848152905191927f6c823becbe4f747c2139de1cfb61b5c01d3dc0628083c6812af72a6bf4ae7ca392918290030190a25050565b600081848411156120f15760405162461bcd60e51b81526004018080602001828103825283818151815260200191508051906020019080838360005b838110156120b657818101518382015260200161209e565b50505050905090810190601f1680156120e35780820380516001836020036101000a031916815260200191505b509250505060405180910390fd5b505050900390565b6000610b88838361268e565b6000610b88836001600160a01b0384166126f2565b6001600160a01b03821661215f5760405162461bcd60e51b815260040180806020018281038252602f815260200180612aa3602f913960400191505060405180910390fd5b61219c816040518060600160405280602481526020016127d5602491396001600160a01b0385166000908152600a60205260409020549190612062565b6001600160a01b0383166000818152600a6020908152604091829020939093558051848152905191927f268f747756c9c51c93832a3b2deffda220b9743ec1af17269bdf94d6ce5d782992918290030190a25050565b6000610b626121ff611a39565b8484612487565b6000610b668261270a565b6000612225846001600160a01b03166125f7565b61223157506000610b88565b6000846001600160a01b0316637b04a2d061224a611a39565b86866040518463ffffffff1660e01b815260040180846001600160a01b0316815260200183815260200180602001828103825283818151815260200191508051906020019080838360005b838110156122ad578181015183820152602001612295565b50505050905090810190601f1680156122da5780820380516001836020036101000a031916815260200191505b50945050505050602060405180830381600087803b1580156122fb57600080fd5b505af115801561230f573d6000803e3d6000fd5b505050506040513d602081101561232557600080fd5b50516001600160e01b0319166307b04a2d60e41b149150509392505050565b61234c611a39565b6009546001600160a01b0390811691161461239c576040805162461bcd60e51b81526020600482018190526024820152600080516020612a0b833981519152604482015290519081900360640190fd5b6001600160a01b0381166123e15760405162461bcd60e51b815260040180806020018281038252602681526020018061288f6026913960400191505060405180910390fd5b6009546040516001600160a01b038084169216907f8be0079c531659141344cd1fd0a4f28419497f9722a3daafe3b4186f6b6457e090600090a3600980546001600160a01b0319166001600160a01b0392909216919091179055565b600061244983836126f2565b61247f57508154600181810184556000848152602080822090930184905584548482528286019093526040902091909155610b66565b506000610b66565b6001600160a01b0383166124cc5760405162461bcd60e51b8152600401808060200182810382526025815260200180612af36025913960400191505060405180910390fd5b6001600160a01b0382166125115760405162461bcd60e51b815260040180806020018281038252602381526020018061281b6023913960400191505060405180910390fd5b61251c8383836125fd565b6125598160405180606001604052806026815260200161291c602691396001600160a01b0386166000908152602081905260409020549190612062565b6001600160a01b0380851660009081526020819052604080822093909355908416815220546125889082611942565b6001600160a01b038084166000818152602081815260409182902094909455805185815290519193928716927fddf252ad1be2c89b69c2b068fc378daa952ba7f163c4a11628f55a4df523b3ef92918290030190a3505050565b6000610b88836001600160a01b03841661270e565b3b151590565b6126088383836119b1565b61261061104d565b1561116f5760405162461bcd60e51b815260040180806020018281038252602a815260200180612bda602a913960400191505060405180910390fd5b6000610b8883836040518060400160405280601e81526020017f536166654d6174683a207375627472616374696f6e206f766572666c6f770000815250612062565b815460009082106126d05760405162461bcd60e51b81526004018080602001828103825260228152602001806127f96022913960400191505060405180910390fd5b8260000182815481106126df57fe5b9060005260206000200154905092915050565b60009081526001919091016020526040902054151590565b5490565b600081815260018301602052604081205480156127ca578354600019808301919081019060009087908390811061274157fe5b906000526020600020015490508087600001848154811061275e57fe5b60009182526020808320909101929092558281526001898101909252604090209084019055865487908061278e57fe5b60019003818190600052602060002001600090559055866001016000878152602001908152602001600020600090556001945050505050610b66565b6000915050610b6656fe45524332303a2072656475636520616d6f756e7420657863656564732062616c616e6365456e756d657261626c655365743a20696e646578206f7574206f6620626f756e647345524332303a207472616e7366657220746f20746865207a65726f2061646472657373416363657373436f6e74726f6c3a2073656e646572206d75737420626520616e2061646d696e20746f206772616e7445524332303a206275726e20616d6f756e7420657863656564732062616c616e63654f776e61626c653a206e6577206f776e657220697320746865207a65726f206164647265737345524332303a20617070726f766520746f20746865207a65726f2061646472657373455243313336333a205f636865636b416e6443616c6c417070726f76652072657665727473f0887ba65ee2024ea881d91b74c2450ef19e1557f03bed3ea9f16b037cbe2dc945524332303a207472616e7366657220616d6f756e7420657863656564732062616c616e6365416363657373436f6e74726f6c3a2073656e646572206d75737420626520616e2061646d696e20746f207265766f6b65526f6c65733a2063616c6c657220646f6573206e6f74206861766520746865204d494e54455220726f6c65523a704056dcd17bcf83bed8b68c59416dac1119be77755efe3bde0a64e46e0c455243313336333a205f636865636b416e6443616c6c5472616e73666572207265766572747345524332303a207472616e7366657220616d6f756e74206578636565647320616c6c6f77616e63654f776e61626c653a2063616c6c6572206973206e6f7420746865206f776e657245524332303a206275726e20616d6f756e74206578636565647320616c6c6f77616e63654446593a20526577617264205061776e2052657075746174696f6e2069732064697361626c6564206f722063616c6c657220646f65736e27742068617665207065726d697373696f6e20746f20646f20746869734446593a20526577617264207061776e2072657075746174696f6e20746f20746865207a65726f206164647265737345524332303a206275726e2066726f6d20746865207a65726f206164647265737345524332303a207472616e736665722066726f6d20746865207a65726f206164647265737345524332303a20617070726f76652066726f6d20746865207a65726f20616464726573734552433230426173653a207472616e73666572206973206e6f7420656e61626c6564206f722066726f6d20646f6573206e6f74206861766520746865204f50455241544f5220726f6c6545524332303a2064656372656173656420616c6c6f77616e63652062656c6f77207a65726f416363657373436f6e74726f6c3a2063616e206f6e6c792072656e6f756e636520726f6c657320666f722073656c6645524332305061757361626c653a20746f6b656e207472616e73666572207768696c6520706175736564a264697066735822122036b13890cc16583c2624a2a02ac41f343510c3ba96b78a58d67f40c6a9bf2cde64736f6c6343000706003345524332305061757361626c653a20746f6b656e207472616e73666572207768696c6520706175736564",
  "immutableReferences": {},
  "source": "pragma solidity ^0.7.0;\n\nimport \"@vittominacori/erc20-token/contracts/ERC20Base.sol\";\nimport \"@vittominacori/erc20-token/contracts/access/Roles.sol\";\nimport \"@openzeppelin/contracts/utils/Address.sol\";\nimport \"@openzeppelin/contracts/utils/Pausable.sol\";\nimport \"@openzeppelin/contracts/math/SafeMath.sol\";\nimport \"@openzeppelin/contracts/access/Ownable.sol\";\nimport \"@openzeppelin/contracts/access/AccessControl.sol\";\n\ncontract DFY is ERC20Base, Pausable {\n\n    constructor () ERC20Base(\n        \"DeFi For You.\", \n        \"DFY\", \n        18, \n        1e27, \n        1e27, \n        false\n    ) {}\n\n    // Add required getOwner\n    function getOwner() external view returns (address) {\n        return owner();\n    }\n\n    // Override ERC20Base before transfer to allow pauseable contract\n    function _beforeTokenTransfer(address from, address to, uint256 amount) internal virtual override(ERC20Base) {\n        super._beforeTokenTransfer(from, to, amount);\n\n        require(!paused(), \"ERC20Pausable: token transfer while paused\");\n    }\n\n    // Override transferOwnership to grant role\n    function transferOwnership(address newOwner) public virtual onlyOwner override(Ownable) {\n        super.transferOwnership(newOwner);\n        grantRole(DEFAULT_ADMIN_ROLE, newOwner);\n        grantRole(MINTER_ROLE, newOwner);\n        grantRole(OPERATOR_ROLE, newOwner);\n\n        revokeRole(OPERATOR_ROLE, _msgSender());\n        revokeRole(MINTER_ROLE, _msgSender());\n        revokeRole(DEFAULT_ADMIN_ROLE, _msgSender());\n    }\n\n    // Functions for reward reputations\n\n    using SafeMath for uint256;\n    using Address for address;\n\n    mapping (address => uint256) private _pawnReputationScore;\n    bool private _rewardPawnReputationEnabled = true;\n\n    event RewardPawnReputationEnabled();\n    event RewardPawnReputationDisabled();\n    event PawnReputationRewarded(address indexed to, uint256 score);\n    event PawnReputationReduced(address indexed to, uint256 score);    \n\n    function rewardPawnReputationEnabled() public view returns (bool) {\n        return _rewardPawnReputationEnabled;\n    }\n\n    modifier canRewardPawnReputation() {\n        require(\n            _rewardPawnReputationEnabled && hasRole(OPERATOR_ROLE, _msgSender())\n            , \"DFY: Reward Pawn Reputation is disabled or caller doesn't have permission to do this\");\n        _;\n    }\n\n    function enableRewardPawnReputation() public onlyOwner {\n        _rewardPawnReputationEnabled = true;\n\n        emit RewardPawnReputationEnabled();\n    }\n\n    function disableRewardPawnReputation() public onlyOwner {\n        _rewardPawnReputationEnabled = false;\n\n        emit RewardPawnReputationDisabled();\n    }\n\n    function pawnReputationOf(address account) public view returns (uint256) {\n        return _pawnReputationScore[account];\n    }\n\n    function rewardPawnReputation(address to, uint256 score) public canRewardPawnReputation whenNotPaused returns (uint256) {\n        _rewardPawnReputation(to, score);\n        return _pawnReputationScore[to];\n    }\n\n    function reducePawnReputation(address to, uint256 score) public canRewardPawnReputation whenNotPaused returns (uint256) {\n        _reducePawnReputation(to, score);\n        return _pawnReputationScore[to];\n    }\n\n    function _rewardPawnReputation(address to, uint256 score) internal virtual {\n        require(to != address(0), \"DFY: Reward pawn reputation to the zero address\");\n\n        _pawnReputationScore[to] = _pawnReputationScore[to].add(score);\n        emit PawnReputationRewarded(to, score);\n    }\n\n    function _reducePawnReputation(address to, uint256 score) internal virtual {\n        require(to != address(0), \"DFY: Reward pawn reputation to the zero address\");\n\n        _pawnReputationScore[to] = _pawnReputationScore[to].sub(score, \"ERC20: reduce amount exceeds balance\");\n        emit PawnReputationReduced(to, score);\n    }\n}\n",
  "sourcePath": "/home/ylgr/Edsolabs/defi-smartcontract/contracts/DFY.sol",
  "compiler": {
    "name": "solc",
    "version": "0.7.6+commit.7338295f.Emscripten.clang"
  },
  "schemaVersion": "3.3.3",
  "updatedAt": "2021-01-07T10:27:56.822Z",
  "devdoc": {
    "kind": "dev",
    "methods": {
      "allowance(address,address)": {
        "details": "See {IERC20-allowance}."
      },
      "approve(address,uint256)": {
        "details": "See {IERC20-approve}. Requirements: - `spender` cannot be the zero address."
      },
      "approveAndCall(address,uint256)": {
        "details": "Approve spender to transfer tokens and then execute a callback on recipient.",
        "params": {
          "spender": "The address allowed to transfer to",
          "value": "The amount allowed to be transferred"
        },
        "returns": {
          "_0": "A boolean that indicates if the operation was successful."
        }
      },
      "approveAndCall(address,uint256,bytes)": {
        "details": "Approve spender to transfer tokens and then execute a callback on recipient.",
        "params": {
          "data": "Additional data with no specified format.",
          "spender": "The address allowed to transfer to.",
          "value": "The amount allowed to be transferred."
        },
        "returns": {
          "_0": "A boolean that indicates if the operation was successful."
        }
      },
      "balanceOf(address)": {
        "details": "See {IERC20-balanceOf}."
      },
      "burn(uint256)": {
        "details": "Destroys `amount` tokens from the caller. See {ERC20-_burn}."
      },
      "burnFrom(address,uint256)": {
        "details": "Destroys `amount` tokens from `account`, deducting from the caller's allowance. See {ERC20-_burn} and {ERC20-allowance}. Requirements: - the caller must have allowance for ``accounts``'s tokens of at least `amount`."
      },
      "cap()": {
        "details": "Returns the cap on the token's total supply."
      },
      "decimals()": {
        "details": "Returns the number of decimals used to get its user representation. For example, if `decimals` equals `2`, a balance of `505` tokens should be displayed to a user as `5,05` (`505 / 10 ** 2`). Tokens usually opt for a value of 18, imitating the relationship between Ether and Wei. This is the value {ERC20} uses, unless {_setupDecimals} is called. NOTE: This information is only used for _display_ purposes: it in no way affects any of the arithmetic of the contract, including {IERC20-balanceOf} and {IERC20-transfer}."
      },
      "decreaseAllowance(address,uint256)": {
        "details": "Atomically decreases the allowance granted to `spender` by the caller. This is an alternative to {approve} that can be used as a mitigation for problems described in {IERC20-approve}. Emits an {Approval} event indicating the updated allowance. Requirements: - `spender` cannot be the zero address. - `spender` must have allowance for the caller of at least `subtractedValue`."
      },
      "enableTransfer()": {
        "details": "Function to enable transfers."
      },
      "finishMinting()": {
        "details": "Function to stop minting new tokens."
      },
      "getRoleAdmin(bytes32)": {
        "details": "Returns the admin role that controls `role`. See {grantRole} and {revokeRole}. To change a role's admin, use {_setRoleAdmin}."
      },
      "getRoleMember(bytes32,uint256)": {
        "details": "Returns one of the accounts that have `role`. `index` must be a value between 0 and {getRoleMemberCount}, non-inclusive. Role bearers are not sorted in any particular way, and their ordering may change at any point. WARNING: When using {getRoleMember} and {getRoleMemberCount}, make sure you perform all queries on the same block. See the following https://forum.openzeppelin.com/t/iterating-over-elements-on-enumerableset-in-openzeppelin-contracts/2296[forum post] for more information."
      },
      "getRoleMemberCount(bytes32)": {
        "details": "Returns the number of accounts that have `role`. Can be used together with {getRoleMember} to enumerate all bearers of a role."
      },
      "grantRole(bytes32,address)": {
        "details": "Grants `role` to `account`. If `account` had not been already granted `role`, emits a {RoleGranted} event. Requirements: - the caller must have ``role``'s admin role."
      },
      "hasRole(bytes32,address)": {
        "details": "Returns `true` if `account` has been granted `role`."
      },
      "increaseAllowance(address,uint256)": {
        "details": "Atomically increases the allowance granted to `spender` by the caller. This is an alternative to {approve} that can be used as a mitigation for problems described in {IERC20-approve}. Emits an {Approval} event indicating the updated allowance. Requirements: - `spender` cannot be the zero address."
      },
      "mint(address,uint256)": {
        "details": "Function to mint tokens.",
        "params": {
          "to": "The address that will receive the minted tokens",
          "value": "The amount of tokens to mint"
        }
      },
      "mintingFinished()": {
        "returns": {
          "_0": "if minting is finished or not."
        }
      },
      "name()": {
        "details": "Returns the name of the token."
      },
      "owner()": {
        "details": "Returns the address of the current owner."
      },
      "paused()": {
        "details": "Returns true if the contract is paused, and false otherwise."
      },
      "recoverERC20(address,uint256)": {
        "details": "Remember that only owner can call so be careful when use on contracts generated from other contracts.",
        "params": {
          "tokenAddress": "The token contract address",
          "tokenAmount": "Number of tokens to be sent"
        }
      },
      "renounceOwnership()": {
        "details": "Leaves the contract without owner. It will not be possible to call `onlyOwner` functions anymore. Can only be called by the current owner. NOTE: Renouncing ownership will leave the contract without an owner, thereby removing any functionality that is only available to the owner."
      },
      "renounceRole(bytes32,address)": {
        "details": "Revokes `role` from the calling account. Roles are often managed via {grantRole} and {revokeRole}: this function's purpose is to provide a mechanism for accounts to lose their privileges if they are compromised (such as when a trusted device is misplaced). If the calling account had been granted `role`, emits a {RoleRevoked} event. Requirements: - the caller must be `account`."
      },
      "revokeRole(bytes32,address)": {
        "details": "Revokes `role` from `account`. If `account` had been granted `role`, emits a {RoleRevoked} event. Requirements: - the caller must have ``role``'s admin role."
      },
      "supportsInterface(bytes4)": {
        "details": "See {IERC165-supportsInterface}. Time complexity O(1), guaranteed to always use less than 30 000 gas."
      },
      "symbol()": {
        "details": "Returns the symbol of the token, usually a shorter version of the name."
      },
      "totalSupply()": {
        "details": "See {IERC20-totalSupply}."
      },
      "transfer(address,uint256)": {
        "details": "Transfer tokens to a specified address.",
        "params": {
          "to": "The address to transfer to",
          "value": "The amount to be transferred"
        },
        "returns": {
          "_0": "A boolean that indicates if the operation was successful."
        }
      },
      "transferAndCall(address,uint256)": {
        "details": "Transfer tokens to a specified address and then execute a callback on recipient.",
        "params": {
          "to": "The address to transfer to.",
          "value": "The amount to be transferred."
        },
        "returns": {
          "_0": "A boolean that indicates if the operation was successful."
        }
      },
      "transferAndCall(address,uint256,bytes)": {
        "details": "Transfer tokens to a specified address and then execute a callback on recipient.",
        "params": {
          "data": "Additional data with no specified format",
          "to": "The address to transfer to",
          "value": "The amount to be transferred"
        },
        "returns": {
          "_0": "A boolean that indicates if the operation was successful."
        }
      },
      "transferEnabled()": {
        "returns": {
          "_0": "if transfer is enabled or not."
        }
      },
      "transferFrom(address,address,uint256)": {
        "details": "Transfer tokens from one address to another.",
        "params": {
          "from": "The address which you want to send tokens from",
          "to": "The address which you want to transfer to",
          "value": "the amount of tokens to be transferred"
        },
        "returns": {
          "_0": "A boolean that indicates if the operation was successful."
        }
      },
      "transferFromAndCall(address,address,uint256)": {
        "details": "Transfer tokens from one address to another and then execute a callback on recipient.",
        "params": {
          "from": "The address which you want to send tokens from",
          "to": "The address which you want to transfer to",
          "value": "The amount of tokens to be transferred"
        },
        "returns": {
          "_0": "A boolean that indicates if the operation was successful."
        }
      },
      "transferFromAndCall(address,address,uint256,bytes)": {
        "details": "Transfer tokens from one address to another and then execute a callback on recipient.",
        "params": {
          "data": "Additional data with no specified format",
          "from": "The address which you want to send tokens from",
          "to": "The address which you want to transfer to",
          "value": "The amount of tokens to be transferred"
        },
        "returns": {
          "_0": "A boolean that indicates if the operation was successful."
        }
      },
      "transferOwnership(address)": {
        "details": "Transfers ownership of the contract to a new account (`newOwner`). Can only be called by the current owner."
      }
    },
    "version": 1
  },
  "userdoc": {
    "kind": "user",
    "methods": {},
    "version": 1
  }
}