{
  "contractName": "ERC20Base",
  "abi": [
    {
      "inputs": [
        {
          "internalType": "string",
          "name": "name",
          "type": "string"
        },
        {
          "internalType": "string",
          "name": "symbol",
          "type": "string"
        },
        {
          "internalType": "uint8",
          "name": "decimals",
          "type": "uint8"
        },
        {
          "internalType": "uint256",
          "name": "cap",
          "type": "uint256"
        },
        {
          "internalType": "uint256",
          "name": "initialSupply",
          "type": "uint256"
        },
        {
          "internalType": "bool",
          "name": "transferEnabled",
          "type": "bool"
        }
      ],
      "stateMutability": "nonpayable",
      "type": "constructor"
    },
    {
      "anonymous": false,
      "inputs": [
        {
          "indexed": true,
          "internalType": "address",
          "name": "owner",
          "type": "address"
        },
        {
          "indexed": true,
          "internalType": "address",
          "name": "spender",
          "type": "address"
        },
        {
          "indexed": false,
          "internalType": "uint256",
          "name": "value",
          "type": "uint256"
        }
      ],
      "name": "Approval",
      "type": "event"
    },
    {
      "anonymous": false,
      "inputs": [],
      "name": "MintFinished",
      "type": "event"
    },
    {
      "anonymous": false,
      "inputs": [
        {
          "indexed": true,
          "internalType": "address",
          "name": "previousOwner",
          "type": "address"
        },
        {
          "indexed": true,
          "internalType": "address",
          "name": "newOwner",
          "type": "address"
        }
      ],
      "name": "OwnershipTransferred",
      "type": "event"
    },
    {
      "anonymous": false,
      "inputs": [
        {
          "indexed": true,
          "internalType": "bytes32",
          "name": "role",
          "type": "bytes32"
        },
        {
          "indexed": true,
          "internalType": "bytes32",
          "name": "previousAdminRole",
          "type": "bytes32"
        },
        {
          "indexed": true,
          "internalType": "bytes32",
          "name": "newAdminRole",
          "type": "bytes32"
        }
      ],
      "name": "RoleAdminChanged",
      "type": "event"
    },
    {
      "anonymous": false,
      "inputs": [
        {
          "indexed": true,
          "internalType": "bytes32",
          "name": "role",
          "type": "bytes32"
        },
        {
          "indexed": true,
          "internalType": "address",
          "name": "account",
          "type": "address"
        },
        {
          "indexed": true,
          "internalType": "address",
          "name": "sender",
          "type": "address"
        }
      ],
      "name": "RoleGranted",
      "type": "event"
    },
    {
      "anonymous": false,
      "inputs": [
        {
          "indexed": true,
          "internalType": "bytes32",
          "name": "role",
          "type": "bytes32"
        },
        {
          "indexed": true,
          "internalType": "address",
          "name": "account",
          "type": "address"
        },
        {
          "indexed": true,
          "internalType": "address",
          "name": "sender",
          "type": "address"
        }
      ],
      "name": "RoleRevoked",
      "type": "event"
    },
    {
      "anonymous": false,
      "inputs": [
        {
          "indexed": true,
          "internalType": "address",
          "name": "from",
          "type": "address"
        },
        {
          "indexed": true,
          "internalType": "address",
          "name": "to",
          "type": "address"
        },
        {
          "indexed": false,
          "internalType": "uint256",
          "name": "value",
          "type": "uint256"
        }
      ],
      "name": "Transfer",
      "type": "event"
    },
    {
      "anonymous": false,
      "inputs": [],
      "name": "TransferEnabled",
      "type": "event"
    },
    {
      "inputs": [],
      "name": "DEFAULT_ADMIN_ROLE",
      "outputs": [
        {
          "internalType": "bytes32",
          "name": "",
          "type": "bytes32"
        }
      ],
      "stateMutability": "view",
      "type": "function"
    },
    {
      "inputs": [],
      "name": "MINTER_ROLE",
      "outputs": [
        {
          "internalType": "bytes32",
          "name": "",
          "type": "bytes32"
        }
      ],
      "stateMutability": "view",
      "type": "function"
    },
    {
      "inputs": [],
      "name": "OPERATOR_ROLE",
      "outputs": [
        {
          "internalType": "bytes32",
          "name": "",
          "type": "bytes32"
        }
      ],
      "stateMutability": "view",
      "type": "function"
    },
    {
      "inputs": [
        {
          "internalType": "address",
          "name": "owner",
          "type": "address"
        },
        {
          "internalType": "address",
          "name": "spender",
          "type": "address"
        }
      ],
      "name": "allowance",
      "outputs": [
        {
          "internalType": "uint256",
          "name": "",
          "type": "uint256"
        }
      ],
      "stateMutability": "view",
      "type": "function"
    },
    {
      "inputs": [
        {
          "internalType": "address",
          "name": "spender",
          "type": "address"
        },
        {
          "internalType": "uint256",
          "name": "amount",
          "type": "uint256"
        }
      ],
      "name": "approve",
      "outputs": [
        {
          "internalType": "bool",
          "name": "",
          "type": "bool"
        }
      ],
      "stateMutability": "nonpayable",
      "type": "function"
    },
    {
      "inputs": [
        {
          "internalType": "address",
          "name": "spender",
          "type": "address"
        },
        {
          "internalType": "uint256",
          "name": "value",
          "type": "uint256"
        }
      ],
      "name": "approveAndCall",
      "outputs": [
        {
          "internalType": "bool",
          "name": "",
          "type": "bool"
        }
      ],
      "stateMutability": "nonpayable",
      "type": "function"
    },
    {
      "inputs": [
        {
          "internalType": "address",
          "name": "spender",
          "type": "address"
        },
        {
          "internalType": "uint256",
          "name": "value",
          "type": "uint256"
        },
        {
          "internalType": "bytes",
          "name": "data",
          "type": "bytes"
        }
      ],
      "name": "approveAndCall",
      "outputs": [
        {
          "internalType": "bool",
          "name": "",
          "type": "bool"
        }
      ],
      "stateMutability": "nonpayable",
      "type": "function"
    },
    {
      "inputs": [
        {
          "internalType": "address",
          "name": "account",
          "type": "address"
        }
      ],
      "name": "balanceOf",
      "outputs": [
        {
          "internalType": "uint256",
          "name": "",
          "type": "uint256"
        }
      ],
      "stateMutability": "view",
      "type": "function"
    },
    {
      "inputs": [
        {
          "internalType": "uint256",
          "name": "amount",
          "type": "uint256"
        }
      ],
      "name": "burn",
      "outputs": [],
      "stateMutability": "nonpayable",
      "type": "function"
    },
    {
      "inputs": [
        {
          "internalType": "address",
          "name": "account",
          "type": "address"
        },
        {
          "internalType": "uint256",
          "name": "amount",
          "type": "uint256"
        }
      ],
      "name": "burnFrom",
      "outputs": [],
      "stateMutability": "nonpayable",
      "type": "function"
    },
    {
      "inputs": [],
      "name": "cap",
      "outputs": [
        {
          "internalType": "uint256",
          "name": "",
          "type": "uint256"
        }
      ],
      "stateMutability": "view",
      "type": "function"
    },
    {
      "inputs": [],
      "name": "decimals",
      "outputs": [
        {
          "internalType": "uint8",
          "name": "",
          "type": "uint8"
        }
      ],
      "stateMutability": "view",
      "type": "function"
    },
    {
      "inputs": [
        {
          "internalType": "address",
          "name": "spender",
          "type": "address"
        },
        {
          "internalType": "uint256",
          "name": "subtractedValue",
          "type": "uint256"
        }
      ],
      "name": "decreaseAllowance",
      "outputs": [
        {
          "internalType": "bool",
          "name": "",
          "type": "bool"
        }
      ],
      "stateMutability": "nonpayable",
      "type": "function"
    },
    {
      "inputs": [
        {
          "internalType": "bytes32",
          "name": "role",
          "type": "bytes32"
        }
      ],
      "name": "getRoleAdmin",
      "outputs": [
        {
          "internalType": "bytes32",
          "name": "",
          "type": "bytes32"
        }
      ],
      "stateMutability": "view",
      "type": "function"
    },
    {
      "inputs": [
        {
          "internalType": "bytes32",
          "name": "role",
          "type": "bytes32"
        },
        {
          "internalType": "uint256",
          "name": "index",
          "type": "uint256"
        }
      ],
      "name": "getRoleMember",
      "outputs": [
        {
          "internalType": "address",
          "name": "",
          "type": "address"
        }
      ],
      "stateMutability": "view",
      "type": "function"
    },
    {
      "inputs": [
        {
          "internalType": "bytes32",
          "name": "role",
          "type": "bytes32"
        }
      ],
      "name": "getRoleMemberCount",
      "outputs": [
        {
          "internalType": "uint256",
          "name": "",
          "type": "uint256"
        }
      ],
      "stateMutability": "view",
      "type": "function"
    },
    {
      "inputs": [
        {
          "internalType": "bytes32",
          "name": "role",
          "type": "bytes32"
        },
        {
          "internalType": "address",
          "name": "account",
          "type": "address"
        }
      ],
      "name": "grantRole",
      "outputs": [],
      "stateMutability": "nonpayable",
      "type": "function"
    },
    {
      "inputs": [
        {
          "internalType": "bytes32",
          "name": "role",
          "type": "bytes32"
        },
        {
          "internalType": "address",
          "name": "account",
          "type": "address"
        }
      ],
      "name": "hasRole",
      "outputs": [
        {
          "internalType": "bool",
          "name": "",
          "type": "bool"
        }
      ],
      "stateMutability": "view",
      "type": "function"
    },
    {
      "inputs": [
        {
          "internalType": "address",
          "name": "spender",
          "type": "address"
        },
        {
          "internalType": "uint256",
          "name": "addedValue",
          "type": "uint256"
        }
      ],
      "name": "increaseAllowance",
      "outputs": [
        {
          "internalType": "bool",
          "name": "",
          "type": "bool"
        }
      ],
      "stateMutability": "nonpayable",
      "type": "function"
    },
    {
      "inputs": [],
      "name": "name",
      "outputs": [
        {
          "internalType": "string",
          "name": "",
          "type": "string"
        }
      ],
      "stateMutability": "view",
      "type": "function"
    },
    {
      "inputs": [],
      "name": "owner",
      "outputs": [
        {
          "internalType": "address",
          "name": "",
          "type": "address"
        }
      ],
      "stateMutability": "view",
      "type": "function"
    },
    {
      "inputs": [
        {
          "internalType": "address",
          "name": "tokenAddress",
          "type": "address"
        },
        {
          "internalType": "uint256",
          "name": "tokenAmount",
          "type": "uint256"
        }
      ],
      "name": "recoverERC20",
      "outputs": [],
      "stateMutability": "nonpayable",
      "type": "function"
    },
    {
      "inputs": [],
      "name": "renounceOwnership",
      "outputs": [],
      "stateMutability": "nonpayable",
      "type": "function"
    },
    {
      "inputs": [
        {
          "internalType": "bytes32",
          "name": "role",
          "type": "bytes32"
        },
        {
          "internalType": "address",
          "name": "account",
          "type": "address"
        }
      ],
      "name": "renounceRole",
      "outputs": [],
      "stateMutability": "nonpayable",
      "type": "function"
    },
    {
      "inputs": [
        {
          "internalType": "bytes32",
          "name": "role",
          "type": "bytes32"
        },
        {
          "internalType": "address",
          "name": "account",
          "type": "address"
        }
      ],
      "name": "revokeRole",
      "outputs": [],
      "stateMutability": "nonpayable",
      "type": "function"
    },
    {
      "inputs": [
        {
          "internalType": "bytes4",
          "name": "interfaceId",
          "type": "bytes4"
        }
      ],
      "name": "supportsInterface",
      "outputs": [
        {
          "internalType": "bool",
          "name": "",
          "type": "bool"
        }
      ],
      "stateMutability": "view",
      "type": "function"
    },
    {
      "inputs": [],
      "name": "symbol",
      "outputs": [
        {
          "internalType": "string",
          "name": "",
          "type": "string"
        }
      ],
      "stateMutability": "view",
      "type": "function"
    },
    {
      "inputs": [],
      "name": "totalSupply",
      "outputs": [
        {
          "internalType": "uint256",
          "name": "",
          "type": "uint256"
        }
      ],
      "stateMutability": "view",
      "type": "function"
    },
    {
      "inputs": [
        {
          "internalType": "address",
          "name": "to",
          "type": "address"
        },
        {
          "internalType": "uint256",
          "name": "value",
          "type": "uint256"
        }
      ],
      "name": "transferAndCall",
      "outputs": [
        {
          "internalType": "bool",
          "name": "",
          "type": "bool"
        }
      ],
      "stateMutability": "nonpayable",
      "type": "function"
    },
    {
      "inputs": [
        {
          "internalType": "address",
          "name": "to",
          "type": "address"
        },
        {
          "internalType": "uint256",
          "name": "value",
          "type": "uint256"
        },
        {
          "internalType": "bytes",
          "name": "data",
          "type": "bytes"
        }
      ],
      "name": "transferAndCall",
      "outputs": [
        {
          "internalType": "bool",
          "name": "",
          "type": "bool"
        }
      ],
      "stateMutability": "nonpayable",
      "type": "function"
    },
    {
      "inputs": [
        {
          "internalType": "address",
          "name": "from",
          "type": "address"
        },
        {
          "internalType": "address",
          "name": "to",
          "type": "address"
        },
        {
          "internalType": "uint256",
          "name": "value",
          "type": "uint256"
        },
        {
          "internalType": "bytes",
          "name": "data",
          "type": "bytes"
        }
      ],
      "name": "transferFromAndCall",
      "outputs": [
        {
          "internalType": "bool",
          "name": "",
          "type": "bool"
        }
      ],
      "stateMutability": "nonpayable",
      "type": "function"
    },
    {
      "inputs": [
        {
          "internalType": "address",
          "name": "from",
          "type": "address"
        },
        {
          "internalType": "address",
          "name": "to",
          "type": "address"
        },
        {
          "internalType": "uint256",
          "name": "value",
          "type": "uint256"
        }
      ],
      "name": "transferFromAndCall",
      "outputs": [
        {
          "internalType": "bool",
          "name": "",
          "type": "bool"
        }
      ],
      "stateMutability": "nonpayable",
      "type": "function"
    },
    {
      "inputs": [
        {
          "internalType": "address",
          "name": "newOwner",
          "type": "address"
        }
      ],
      "name": "transferOwnership",
      "outputs": [],
      "stateMutability": "nonpayable",
      "type": "function"
    },
    {
      "inputs": [],
      "name": "mintingFinished",
      "outputs": [
        {
          "internalType": "bool",
          "name": "",
          "type": "bool"
        }
      ],
      "stateMutability": "view",
      "type": "function"
    },
    {
      "inputs": [],
      "name": "transferEnabled",
      "outputs": [
        {
          "internalType": "bool",
          "name": "",
          "type": "bool"
        }
      ],
      "stateMutability": "view",
      "type": "function"
    },
    {
      "inputs": [
        {
          "internalType": "address",
          "name": "to",
          "type": "address"
        },
        {
          "internalType": "uint256",
          "name": "value",
          "type": "uint256"
        }
      ],
      "name": "mint",
      "outputs": [],
      "stateMutability": "nonpayable",
      "type": "function"
    },
    {
      "inputs": [
        {
          "internalType": "address",
          "name": "to",
          "type": "address"
        },
        {
          "internalType": "uint256",
          "name": "value",
          "type": "uint256"
        }
      ],
      "name": "transfer",
      "outputs": [
        {
          "internalType": "bool",
          "name": "",
          "type": "bool"
        }
      ],
      "stateMutability": "nonpayable",
      "type": "function"
    },
    {
      "inputs": [
        {
          "internalType": "address",
          "name": "from",
          "type": "address"
        },
        {
          "internalType": "address",
          "name": "to",
          "type": "address"
        },
        {
          "internalType": "uint256",
          "name": "value",
          "type": "uint256"
        }
      ],
      "name": "transferFrom",
      "outputs": [
        {
          "internalType": "bool",
          "name": "",
          "type": "bool"
        }
      ],
      "stateMutability": "nonpayable",
      "type": "function"
    },
    {
      "inputs": [],
      "name": "finishMinting",
      "outputs": [],
      "stateMutability": "nonpayable",
      "type": "function"
    },
    {
      "inputs": [],
      "name": "enableTransfer",
      "outputs": [],
      "stateMutability": "nonpayable",
      "type": "function"
    }
  ],
  "bytecode": "0x60806040526009805461ffff60a01b191690553480156200001f57600080fd5b5060405162002dc338038062002dc3833981810160405260c08110156200004557600080fd5b81019080805160405193929190846401000000008211156200006657600080fd5b9083019060208201858111156200007c57600080fd5b82516401000000008111828201881017156200009757600080fd5b82525081516020918201929091019080838360005b83811015620000c6578181015183820152602001620000ac565b50505050905090810190601f168015620000f45780820380516001836020036101000a031916815260200191505b50604052602001805160405193929190846401000000008211156200011857600080fd5b9083019060208201858111156200012e57600080fd5b82516401000000008111828201881017156200014957600080fd5b82525081516020918201929091019080838360005b83811015620001785781810151838201526020016200015e565b50505050905090810190601f168015620001a65780820380516001836020036101000a031916815260200191505b50604090815260208281015191830151606084015160809094015188519396509094509187918791869184918491620001e59160039185019062000845565b508051620001fb90600490602084019062000845565b50506005805460ff1916601217905550806200025e576040805162461bcd60e51b815260206004820152601560248201527f45524332304361707065643a2063617020697320300000000000000000000000604482015290519081900360640190fd5b600655620002736301ffc9a760e01b620003ac565b62000285634bbee2df60e01b620003ac565b62000297637dcf646760e11b620003ac565b50620002b090506000620002aa62000431565b62000435565b620002df7ff0887ba65ee2024ea881d91b74c2450ef19e1557f03bed3ea9f16b037cbe2dc9620002aa62000431565b6200030e7f523a704056dcd17bcf83bed8b68c59416dac1119be77755efe3bde0a64e46e0c620002aa62000431565b60006200031a62000431565b600980546001600160a01b0319166001600160a01b038316908117909155604051919250906000907f8be0079c531659141344cd1fd0a4f28419497f9722a3daafe3b4186f6b6457e0908290a350620003738462000445565b81156200038f576200038f620003886200045b565b836200046a565b8015620003a057620003a062000579565b505050505050620008f1565b6001600160e01b031980821614156200040c576040805162461bcd60e51b815260206004820152601c60248201527f4552433136353a20696e76616c696420696e7465726661636520696400000000604482015290519081900360640190fd5b6001600160e01b0319166000908152600760205260409020805460ff19166001179055565b3390565b62000441828262000624565b5050565b6005805460ff191660ff92909216919091179055565b6009546001600160a01b031690565b6001600160a01b038216620004c6576040805162461bcd60e51b815260206004820152601f60248201527f45524332303a206d696e7420746f20746865207a65726f206164647265737300604482015290519081900360640190fd5b620004d4600083836200069f565b620004f081600254620006bc60201b620015b61790919060201c565b6002556001600160a01b0382166000908152602081815260409091205462000523918390620015b6620006bc821b17901c565b6001600160a01b0383166000818152602081815260408083209490945583518581529351929391927fddf252ad1be2c89b69c2b068fc378daa952ba7f163c4a11628f55a4df523b3ef9281900390910190a35050565b6200058362000431565b6009546001600160a01b03908116911614620005e6576040805162461bcd60e51b815260206004820181905260248201527f4f776e61626c653a2063616c6c6572206973206e6f7420746865206f776e6572604482015290519081900360640190fd5b6009805460ff60a81b1916600160a81b1790556040517f75fce015c314a132947a3e42f6ab79ab8e05397dabf35b4d742dea228bbadc2d90600090a1565b60008281526008602090815260409091206200064b9183906200161062000720821b17901c565b1562000441576200065b62000431565b6001600160a01b0316816001600160a01b0316837f2f8788117e7eff1d82e926ec794901d17c78024a50270940304540a733656f0d60405160405180910390a45050565b620006b78383836200073760201b620016251760201c565b505050565b60008282018381101562000717576040805162461bcd60e51b815260206004820152601b60248201527f536166654d6174683a206164646974696f6e206f766572666c6f770000000000604482015290519081900360640190fd5b90505b92915050565b600062000717836001600160a01b038416620007d8565b6200074f838383620006b760201b62000ef31760201c565b6001600160a01b038316620006b75760065462000784826200077062000827565b620006bc60201b620015b61790919060201c565b1115620006b7576040805162461bcd60e51b815260206004820152601960248201527f45524332304361707065643a2063617020657863656564656400000000000000604482015290519081900360640190fd5b6000620007e683836200082d565b6200081e575081546001818101845560008481526020808220909301849055845484825282860190935260409020919091556200071a565b5060006200071a565b60025490565b60009081526001919091016020526040902054151590565b828054600181600116156101000203166002900490600052602060002090601f0160209004810192826200087d5760008555620008c8565b82601f106200089857805160ff1916838001178555620008c8565b82800160010185558215620008c8579182015b82811115620008c8578251825591602001919060010190620008ab565b50620008d6929150620008da565b5090565b5b80821115620008d65760008155600101620008db565b6124c280620009016000396000f3fe608060405234801561001057600080fd5b50600436106102485760003560e01c806379cc67901161013b578063c1d34b89116100b8578063d8fbe9941161007c578063d8fbe994146108f1578063dd62ed3e14610927578063f1b50c1d14610955578063f2fde38b1461095d578063f5b541a61461098357610248565b8063c1d34b891461071f578063ca15c873146107e5578063cae9ca5114610802578063d5391393146108bd578063d547741f146108c557610248565b806391d14854116100ff57806391d148541461068b57806395d89b41146106b7578063a217fddf146106bf578063a457c2d7146106c7578063a9059cbb146106f357610248565b806379cc6790146105e45780637d64bcb4146106105780638980f11f146106185780638da5cb5b146106445780639010d07c1461066857610248565b80633177029f116101c957806340c10f191161018d57806340c10f191461056557806342966c68146105915780634cd412d5146105ae57806370a08231146105b6578063715018a6146105dc57610248565b80633177029f1461041e578063355274ea1461044a57806336568abe14610452578063395093511461047e5780634000aea0146104aa57610248565b806318160ddd1161021057806318160ddd1461036557806323b872dd1461037f578063248a9ca3146103b55780632f2ff15d146103d2578063313ce5671461040057610248565b806301ffc9a71461024d57806305d2035b1461028857806306fdde0314610290578063095ea7b31461030d5780631296ee6214610339575b600080fd5b6102746004803603602081101561026357600080fd5b50356001600160e01b03191661098b565b604080519115158252519081900360200190f35b6102746109aa565b6102986109ba565b6040805160208082528351818301528351919283929083019185019080838360005b838110156102d25781810151838201526020016102ba565b50505050905090810190601f1680156102ff5780820380516001836020036101000a031916815260200191505b509250505060405180910390f35b6102746004803603604081101561032357600080fd5b506001600160a01b038135169060200135610a50565b6102746004803603604081101561034f57600080fd5b506001600160a01b038135169060200135610a6e565b61036d610a91565b60408051918252519081900360200190f35b6102746004803603606081101561039557600080fd5b506001600160a01b03813581169160208101359091169060400135610a97565b61036d600480360360208110156103cb57600080fd5b5035610b28565b6103fe600480360360408110156103e857600080fd5b50803590602001356001600160a01b0316610b3d565b005b610408610ba9565b6040805160ff9092168252519081900360200190f35b6102746004803603604081101561043457600080fd5b506001600160a01b038135169060200135610bb2565b61036d610bce565b6103fe6004803603604081101561046857600080fd5b50803590602001356001600160a01b0316610bd4565b6102746004803603604081101561049457600080fd5b506001600160a01b038135169060200135610c35565b610274600480360360608110156104c057600080fd5b6001600160a01b03823516916020810135918101906060810160408201356401000000008111156104f057600080fd5b82018360208201111561050257600080fd5b8035906020019184600183028401116401000000008311171561052457600080fd5b91908080601f016020809104026020016040519081016040528093929190818152602001838380828437600092019190915250929550610c88945050505050565b6103fe6004803603604081101561057b57600080fd5b506001600160a01b038135169060200135610ced565b6103fe600480360360208110156105a757600080fd5b5035610dbd565b610274610dd1565b61036d600480360360208110156105cc57600080fd5b50356001600160a01b0316610de1565b6103fe610dfc565b6103fe600480360360408110156105fa57600080fd5b506001600160a01b038135169060200135610e9e565b6103fe610ef8565b6103fe6004803603604081101561062e57600080fd5b506001600160a01b038135169060200135610fed565b61064c6110d3565b604080516001600160a01b039092168252519081900360200190f35b61064c6004803603604081101561067e57600080fd5b50803590602001356110e2565b610274600480360360408110156106a157600080fd5b50803590602001356001600160a01b03166110fa565b610298611112565b61036d611173565b610274600480360360408110156106dd57600080fd5b506001600160a01b038135169060200135611178565b6102746004803603604081101561070957600080fd5b506001600160a01b0381351690602001356111e0565b6102746004803603608081101561073557600080fd5b6001600160a01b0382358116926020810135909116916040820135919081019060808101606082013564010000000081111561077057600080fd5b82018360208201111561078257600080fd5b803590602001918460018302840111640100000000831117156107a457600080fd5b91908080601f016020809104026020016040519081016040528093929190818152602001838380828437600092019190915250929550611274945050505050565b61036d600480360360208110156107fb57600080fd5b50356112d4565b6102746004803603606081101561081857600080fd5b6001600160a01b038235169160208101359181019060608101604082013564010000000081111561084857600080fd5b82018360208201111561085a57600080fd5b8035906020019184600183028401116401000000008311171561087c57600080fd5b91908080601f0160208091040260200160405190810160405280939291908181526020018383808284376000920191909152509295506112eb945050505050565b61036d61133e565b6103fe600480360360408110156108db57600080fd5b50803590602001356001600160a01b0316611362565b6102746004803603606081101561090757600080fd5b506001600160a01b038135811691602081013590911690604001356113bb565b61036d6004803603604081101561093d57600080fd5b506001600160a01b03813581169160200135166113d8565b6103fe611403565b6103fe6004803603602081101561097357600080fd5b50356001600160a01b0316611499565b61036d611592565b6001600160e01b03191660009081526007602052604090205460ff1690565b600954600160a01b900460ff1690565b60038054604080516020601f6002600019610100600188161502019095169490940493840181900481028201810190925282815260609390929091830182828015610a465780601f10610a1b57610100808354040283529160200191610a46565b820191906000526020600020905b815481529060010190602001808311610a2957829003601f168201915b5050505050905090565b6000610a64610a5d6116a6565b84846116aa565b5060015b92915050565b6000610a8a838360405180602001604052806000815250610c88565b9392505050565b60025490565b6009546000908490600160a81b900460ff1680610ad95750610ad97f523a704056dcd17bcf83bed8b68c59416dac1119be77755efe3bde0a64e46e0c826110fa565b610b145760405162461bcd60e51b815260040180806020018281038252604a8152602001806123ef604a913960600191505060405180910390fd5b610b1f858585611796565b95945050505050565b60009081526008602052604090206002015490565b600082815260086020526040902060020154610b6090610b5b6116a6565b6110fa565b610b9b5760405162461bcd60e51b815260040180806020018281038252602f8152602001806121b4602f913960400191505060405180910390fd5b610ba5828261180e565b5050565b60055460ff1690565b6000610a8a8383604051806020016040528060008152506112eb565b60065490565b610bdc6116a6565b6001600160a01b0316816001600160a01b031614610c2b5760405162461bcd60e51b815260040180806020018281038252602f81526020018061245e602f913960400191505060405180910390fd5b610ba58282611877565b6000610a64610c426116a6565b84610c838560016000610c536116a6565b6001600160a01b03908116825260208083019390935260409182016000908120918c1681529252902054906115b6565b6116aa565b6000610c9484846111e0565b50610ca8610ca06116a6565b8585856118e0565b610ce35760405162461bcd60e51b81526004018080602001828103825260268152602001806122f36026913960400191505060405180910390fd5b5060019392505050565b600954600160a01b900460ff1615610d4c576040805162461bcd60e51b815260206004820152601e60248201527f4552433230426173653a206d696e74696e672069732066696e69736865640000604482015290519081900360640190fd5b610d787ff0887ba65ee2024ea881d91b74c2450ef19e1557f03bed3ea9f16b037cbe2dc9610b5b6116a6565b610db35760405162461bcd60e51b815260040180806020018281038252602b8152602001806122c8602b913960400191505060405180910390fd5b610ba58282611a25565b610dce610dc86116a6565b82611b15565b50565b600954600160a81b900460ff1690565b6001600160a01b031660009081526020819052604090205490565b610e046116a6565b6009546001600160a01b03908116911614610e54576040805162461bcd60e51b81526020600482018190526024820152600080516020612341833981519152604482015290519081900360640190fd5b6009546040516000916001600160a01b0316907f8be0079c531659141344cd1fd0a4f28419497f9722a3daafe3b4186f6b6457e0908390a3600980546001600160a01b0319169055565b6000610ed58260405180606001604052806024815260200161236160249139610ece86610ec96116a6565b6113d8565b9190611c11565b9050610ee983610ee36116a6565b836116aa565b610ef38383611b15565b505050565b600954600160a01b900460ff1615610f57576040805162461bcd60e51b815260206004820152601e60248201527f4552433230426173653a206d696e74696e672069732066696e69736865640000604482015290519081900360640190fd5b610f5f6116a6565b6009546001600160a01b03908116911614610faf576040805162461bcd60e51b81526020600482018190526024820152600080516020612341833981519152604482015290519081900360640190fd5b6009805460ff60a01b1916600160a01b1790556040517fae5184fba832cb2b1f702aca6117b8d265eaf03ad33eb133f19dde0f5920fa0890600090a1565b610ff56116a6565b6009546001600160a01b03908116911614611045576040805162461bcd60e51b81526020600482018190526024820152600080516020612341833981519152604482015290519081900360640190fd5b816001600160a01b031663a9059cbb61105c6110d3565b836040518363ffffffff1660e01b815260040180836001600160a01b0316815260200182815260200192505050602060405180830381600087803b1580156110a357600080fd5b505af11580156110b7573d6000803e3d6000fd5b505050506040513d60208110156110cd57600080fd5b50505050565b6009546001600160a01b031690565b6000828152600860205260408120610a8a9083611ca8565b6000828152600860205260408120610a8a9083611cb4565b60048054604080516020601f6002600019610100600188161502019095169490940493840181900481028201810190925282815260609390929091830182828015610a465780601f10610a1b57610100808354040283529160200191610a46565b600081565b6000610a646111856116a6565b84610c838560405180606001604052806025815260200161243960259139600160006111af6116a6565b6001600160a01b03908116825260208083019390935260409182016000908120918d16815292529020549190611c11565b60006111ea6116a6565b600954600160a81b900460ff168061122757506112277f523a704056dcd17bcf83bed8b68c59416dac1119be77755efe3bde0a64e46e0c826110fa565b6112625760405162461bcd60e51b815260040180806020018281038252604a8152602001806123ef604a913960600191505060405180910390fd5b61126c8484611cc9565b949350505050565b6000611281858585610a97565b5061128e858585856118e0565b6112c95760405162461bcd60e51b81526004018080602001828103825260268152602001806122f36026913960400191505060405180910390fd5b506001949350505050565b6000818152600860205260408120610a6890611cdd565b60006112f78484610a50565b50611303848484611ce8565b610ce35760405162461bcd60e51b815260040180806020018281038252602581526020018061224d6025913960400191505060405180910390fd5b7ff0887ba65ee2024ea881d91b74c2450ef19e1557f03bed3ea9f16b037cbe2dc981565b60008281526008602052604090206002015461138090610b5b6116a6565b610c2b5760405162461bcd60e51b81526004018080602001828103825260308152602001806122986030913960400191505060405180910390fd5b600061126c84848460405180602001604052806000815250611274565b6001600160a01b03918216600090815260016020908152604080832093909416825291909152205490565b61140b6116a6565b6009546001600160a01b0390811691161461145b576040805162461bcd60e51b81526020600482018190526024820152600080516020612341833981519152604482015290519081900360640190fd5b6009805460ff60a81b1916600160a81b1790556040517f75fce015c314a132947a3e42f6ab79ab8e05397dabf35b4d742dea228bbadc2d90600090a1565b6114a16116a6565b6009546001600160a01b039081169116146114f1576040805162461bcd60e51b81526020600482018190526024820152600080516020612341833981519152604482015290519081900360640190fd5b6001600160a01b0381166115365760405162461bcd60e51b81526004018080602001828103825260268152602001806122056026913960400191505060405180910390fd5b6009546040516001600160a01b038084169216907f8be0079c531659141344cd1fd0a4f28419497f9722a3daafe3b4186f6b6457e090600090a3600980546001600160a01b0319166001600160a01b0392909216919091179055565b7f523a704056dcd17bcf83bed8b68c59416dac1119be77755efe3bde0a64e46e0c81565b600082820183811015610a8a576040805162461bcd60e51b815260206004820152601b60248201527f536166654d6174683a206164646974696f6e206f766572666c6f770000000000604482015290519081900360640190fd5b6000610a8a836001600160a01b038416611e1b565b611630838383610ef3565b6001600160a01b038316610ef3576006546116538261164d610a91565b906115b6565b1115610ef3576040805162461bcd60e51b815260206004820152601960248201527f45524332304361707065643a2063617020657863656564656400000000000000604482015290519081900360640190fd5b3390565b6001600160a01b0383166116ef5760405162461bcd60e51b81526004018080602001828103825260248152602001806123cb6024913960400191505060405180910390fd5b6001600160a01b0382166117345760405162461bcd60e51b815260040180806020018281038252602281526020018061222b6022913960400191505060405180910390fd5b6001600160a01b03808416600081815260016020908152604080832094871680845294825291829020859055815185815291517f8c5be1e5ebec7d5bd14f71427d1e84f3dd0314c0f7b2291e5b200ac8c7c3b9259281900390910190a3505050565b60006117a3848484611e65565b610ce3846117af6116a6565b610c8385604051806060016040528060288152602001612319602891396001600160a01b038a166000908152600160205260408120906117ed6116a6565b6001600160a01b031681526020810191909152604001600020549190611c11565b60008281526008602052604090206118269082611610565b15610ba5576118336116a6565b6001600160a01b0316816001600160a01b0316837f2f8788117e7eff1d82e926ec794901d17c78024a50270940304540a733656f0d60405160405180910390a45050565b600082815260086020526040902061188f9082611fc0565b15610ba55761189c6116a6565b6001600160a01b0316816001600160a01b0316837ff6391f5c32d9c69d2a47ea670b442974b53935d1edc7fd64eb21e047a839171b60405160405180910390a45050565b60006118f4846001600160a01b0316611fd5565b6119005750600061126c565b6000846001600160a01b03166388a7ca5c6119196116a6565b8887876040518563ffffffff1660e01b815260040180856001600160a01b03168152602001846001600160a01b0316815260200183815260200180602001828103825283818151815260200191508051906020019080838360005b8381101561198c578181015183820152602001611974565b50505050905090810190601f1680156119b95780820380516001836020036101000a031916815260200191505b5095505050505050602060405180830381600087803b1580156119db57600080fd5b505af11580156119ef573d6000803e3d6000fd5b505050506040513d6020811015611a0557600080fd5b50516001600160e01b031916632229f29760e21b14915050949350505050565b6001600160a01b038216611a80576040805162461bcd60e51b815260206004820152601f60248201527f45524332303a206d696e7420746f20746865207a65726f206164647265737300604482015290519081900360640190fd5b611a8c60008383611fdb565b600254611a9990826115b6565b6002556001600160a01b038216600090815260208190526040902054611abf90826115b6565b6001600160a01b0383166000818152602081815260408083209490945583518581529351929391927fddf252ad1be2c89b69c2b068fc378daa952ba7f163c4a11628f55a4df523b3ef9281900390910190a35050565b6001600160a01b038216611b5a5760405162461bcd60e51b81526004018080602001828103825260218152602001806123856021913960400191505060405180910390fd5b611b6682600083611fdb565b611ba3816040518060600160405280602281526020016121e3602291396001600160a01b0385166000908152602081905260409020549190611c11565b6001600160a01b038316600090815260208190526040902055600254611bc99082611fe6565b6002556040805182815290516000916001600160a01b038516917fddf252ad1be2c89b69c2b068fc378daa952ba7f163c4a11628f55a4df523b3ef9181900360200190a35050565b60008184841115611ca05760405162461bcd60e51b81526004018080602001828103825283818151815260200191508051906020019080838360005b83811015611c65578181015183820152602001611c4d565b50505050905090810190601f168015611c925780820380516001836020036101000a031916815260200191505b509250505060405180910390fd5b505050900390565b6000610a8a8383612028565b6000610a8a836001600160a01b03841661208c565b6000610a64611cd66116a6565b8484611e65565b6000610a68826120a4565b6000611cfc846001600160a01b0316611fd5565b611d0857506000610a8a565b6000846001600160a01b0316637b04a2d0611d216116a6565b86866040518463ffffffff1660e01b815260040180846001600160a01b0316815260200183815260200180602001828103825283818151815260200191508051906020019080838360005b83811015611d84578181015183820152602001611d6c565b50505050905090810190601f168015611db15780820380516001836020036101000a031916815260200191505b50945050505050602060405180830381600087803b158015611dd257600080fd5b505af1158015611de6573d6000803e3d6000fd5b505050506040513d6020811015611dfc57600080fd5b50516001600160e01b0319166307b04a2d60e41b149150509392505050565b6000611e27838361208c565b611e5d57508154600181810184556000848152602080822090930184905584548482528286019093526040902091909155610a68565b506000610a68565b6001600160a01b038316611eaa5760405162461bcd60e51b81526004018080602001828103825260258152602001806123a66025913960400191505060405180910390fd5b6001600160a01b038216611eef5760405162461bcd60e51b81526004018080602001828103825260238152602001806121916023913960400191505060405180910390fd5b611efa838383611fdb565b611f3781604051806060016040528060268152602001612272602691396001600160a01b0386166000908152602081905260409020549190611c11565b6001600160a01b038085166000908152602081905260408082209390935590841681522054611f6690826115b6565b6001600160a01b038084166000818152602081815260409182902094909455805185815290519193928716927fddf252ad1be2c89b69c2b068fc378daa952ba7f163c4a11628f55a4df523b3ef92918290030190a3505050565b6000610a8a836001600160a01b0384166120a8565b3b151590565b610ef3838383611625565b6000610a8a83836040518060400160405280601e81526020017f536166654d6174683a207375627472616374696f6e206f766572666c6f770000815250611c11565b8154600090821061206a5760405162461bcd60e51b815260040180806020018281038252602281526020018061216f6022913960400191505060405180910390fd5b82600001828154811061207957fe5b9060005260206000200154905092915050565b60009081526001919091016020526040902054151590565b5490565b6000818152600183016020526040812054801561216457835460001980830191908101906000908790839081106120db57fe5b90600052602060002001549050808760000184815481106120f857fe5b60009182526020808320909101929092558281526001898101909252604090209084019055865487908061212857fe5b60019003818190600052602060002001600090559055866001016000878152602001908152602001600020600090556001945050505050610a68565b6000915050610a6856fe456e756d657261626c655365743a20696e646578206f7574206f6620626f756e647345524332303a207472616e7366657220746f20746865207a65726f2061646472657373416363657373436f6e74726f6c3a2073656e646572206d75737420626520616e2061646d696e20746f206772616e7445524332303a206275726e20616d6f756e7420657863656564732062616c616e63654f776e61626c653a206e6577206f776e657220697320746865207a65726f206164647265737345524332303a20617070726f766520746f20746865207a65726f2061646472657373455243313336333a205f636865636b416e6443616c6c417070726f7665207265766572747345524332303a207472616e7366657220616d6f756e7420657863656564732062616c616e6365416363657373436f6e74726f6c3a2073656e646572206d75737420626520616e2061646d696e20746f207265766f6b65526f6c65733a2063616c6c657220646f6573206e6f74206861766520746865204d494e54455220726f6c65455243313336333a205f636865636b416e6443616c6c5472616e73666572207265766572747345524332303a207472616e7366657220616d6f756e74206578636565647320616c6c6f77616e63654f776e61626c653a2063616c6c6572206973206e6f7420746865206f776e657245524332303a206275726e20616d6f756e74206578636565647320616c6c6f77616e636545524332303a206275726e2066726f6d20746865207a65726f206164647265737345524332303a207472616e736665722066726f6d20746865207a65726f206164647265737345524332303a20617070726f76652066726f6d20746865207a65726f20616464726573734552433230426173653a207472616e73666572206973206e6f7420656e61626c6564206f722066726f6d20646f6573206e6f74206861766520746865204f50455241544f5220726f6c6545524332303a2064656372656173656420616c6c6f77616e63652062656c6f77207a65726f416363657373436f6e74726f6c3a2063616e206f6e6c792072656e6f756e636520726f6c657320666f722073656c66a26469706673582212206b81452bce86a5abf5fae78870ee2ac9e30c18cecb1b0cd1683a4c9f4373b0d764736f6c63430007060033",
  "immutableReferences": {},
  "source": "// SPDX-License-Identifier: MIT\n\npragma solidity ^0.7.0;\n\nimport \"@openzeppelin/contracts/token/ERC20/ERC20Capped.sol\";\nimport \"@openzeppelin/contracts/token/ERC20/ERC20Burnable.sol\";\nimport \"erc-payable-token/contracts/token/ERC1363/ERC1363.sol\";\nimport \"eth-token-recover/contracts/TokenRecover.sol\";\nimport \"./access/Roles.sol\";\n\n/**\n * @title ERC20Base\n * @author Vittorio Minacori (https://github.com/vittominacori)\n * @dev Implementation of the ERC20Base\n */\ncontract ERC20Base is ERC20Capped, ERC20Burnable, ERC1363, Roles, TokenRecover {\n\n    // indicates if minting is finished\n    bool private _mintingFinished = false;\n\n    // indicates if transfer is enabled\n    bool private _transferEnabled = false;\n\n    /**\n     * @dev Emitted during finish minting\n     */\n    event MintFinished();\n\n    /**\n     * @dev Emitted during transfer enabling\n     */\n    event TransferEnabled();\n\n    /**\n     * @dev Tokens can be minted only before minting finished.\n     */\n    modifier canMint() {\n        require(!_mintingFinished, \"ERC20Base: minting is finished\");\n        _;\n    }\n\n    /**\n     * @dev Tokens can be moved only after if transfer enabled or if you are an approved operator.\n     */\n    modifier canTransfer(address from) {\n        require(\n            _transferEnabled || hasRole(OPERATOR_ROLE, from),\n            \"ERC20Base: transfer is not enabled or from does not have the OPERATOR role\"\n        );\n        _;\n    }\n\n    /**\n     * @param name Name of the token\n     * @param symbol A symbol to be used as ticker\n     * @param decimals Number of decimals. All the operations are done using the smallest and indivisible token unit\n     * @param cap Maximum number of tokens mintable\n     * @param initialSupply Initial token supply\n     * @param transferEnabled If transfer is enabled on token creation\n     */\n    constructor(\n        string memory name,\n        string memory symbol,\n        uint8 decimals,\n        uint256 cap,\n        uint256 initialSupply,\n        bool transferEnabled\n    )\n        ERC20Capped(cap)\n        ERC1363(name, symbol)\n    {\n        _setupDecimals(decimals);\n\n        if (initialSupply > 0) {\n            _mint(owner(), initialSupply);\n        }\n\n        if (transferEnabled) {\n            enableTransfer();\n        }\n    }\n\n    /**\n     * @return if minting is finished or not.\n     */\n    function mintingFinished() public view returns (bool) {\n        return _mintingFinished;\n    }\n\n    /**\n     * @return if transfer is enabled or not.\n     */\n    function transferEnabled() public view returns (bool) {\n        return _transferEnabled;\n    }\n\n    /**\n     * @dev Function to mint tokens.\n     * @param to The address that will receive the minted tokens\n     * @param value The amount of tokens to mint\n     */\n    function mint(address to, uint256 value) public canMint onlyMinter {\n        _mint(to, value);\n    }\n\n    /**\n     * @dev Transfer tokens to a specified address.\n     * @param to The address to transfer to\n     * @param value The amount to be transferred\n     * @return A boolean that indicates if the operation was successful.\n     */\n    function transfer(address to, uint256 value) public virtual override(ERC20) canTransfer(_msgSender()) returns (bool) {\n        return super.transfer(to, value);\n    }\n\n    /**\n     * @dev Transfer tokens from one address to another.\n     * @param from The address which you want to send tokens from\n     * @param to The address which you want to transfer to\n     * @param value the amount of tokens to be transferred\n     * @return A boolean that indicates if the operation was successful.\n     */\n    function transferFrom(address from, address to, uint256 value) public virtual override(ERC20) canTransfer(from) returns (bool) {\n        return super.transferFrom(from, to, value);\n    }\n\n    /**\n     * @dev Function to stop minting new tokens.\n     */\n    function finishMinting() public canMint onlyOwner {\n        _mintingFinished = true;\n\n        emit MintFinished();\n    }\n\n    /**\n     * @dev Function to enable transfers.\n     */\n    function enableTransfer() public onlyOwner {\n        _transferEnabled = true;\n\n        emit TransferEnabled();\n    }\n\n    /**\n     * @dev See {ERC20-_beforeTokenTransfer}.\n     */\n    function _beforeTokenTransfer(address from, address to, uint256 amount) internal virtual override(ERC20, ERC20Capped) {\n        super._beforeTokenTransfer(from, to, amount);\n    }\n}\n",
  "sourcePath": "@vittominacori/erc20-token/contracts/ERC20Base.sol",
  "compiler": {
    "name": "solc",
    "version": "0.7.6+commit.7338295f.Emscripten.clang"
  },
  "schemaVersion": "3.3.3",
  "updatedAt": "2021-01-07T10:27:57.051Z",
  "devdoc": {
    "author": "Vittorio Minacori (https://github.com/vittominacori)",
    "details": "Implementation of the ERC20Base",
    "events": {
      "MintFinished()": {
        "details": "Emitted during finish minting"
      },
      "TransferEnabled()": {
        "details": "Emitted during transfer enabling"
      }
    },
    "kind": "dev",
    "methods": {
      "allowance(address,address)": {
        "details": "See {IERC20-allowance}."
      },
      "approve(address,uint256)": {
        "details": "See {IERC20-approve}. Requirements: - `spender` cannot be the zero address."
      },
      "approveAndCall(address,uint256)": {
        "details": "Approve spender to transfer tokens and then execute a callback on recipient.",
        "params": {
          "spender": "The address allowed to transfer to",
          "value": "The amount allowed to be transferred"
        },
        "returns": {
          "_0": "A boolean that indicates if the operation was successful."
        }
      },
      "approveAndCall(address,uint256,bytes)": {
        "details": "Approve spender to transfer tokens and then execute a callback on recipient.",
        "params": {
          "data": "Additional data with no specified format.",
          "spender": "The address allowed to transfer to.",
          "value": "The amount allowed to be transferred."
        },
        "returns": {
          "_0": "A boolean that indicates if the operation was successful."
        }
      },
      "balanceOf(address)": {
        "details": "See {IERC20-balanceOf}."
      },
      "burn(uint256)": {
        "details": "Destroys `amount` tokens from the caller. See {ERC20-_burn}."
      },
      "burnFrom(address,uint256)": {
        "details": "Destroys `amount` tokens from `account`, deducting from the caller's allowance. See {ERC20-_burn} and {ERC20-allowance}. Requirements: - the caller must have allowance for ``accounts``'s tokens of at least `amount`."
      },
      "cap()": {
        "details": "Returns the cap on the token's total supply."
      },
      "constructor": {
        "params": {
          "cap": "Maximum number of tokens mintable",
          "decimals": "Number of decimals. All the operations are done using the smallest and indivisible token unit",
          "initialSupply": "Initial token supply",
          "name": "Name of the token",
          "symbol": "A symbol to be used as ticker",
          "transferEnabled": "If transfer is enabled on token creation"
        }
      },
      "decimals()": {
        "details": "Returns the number of decimals used to get its user representation. For example, if `decimals` equals `2`, a balance of `505` tokens should be displayed to a user as `5,05` (`505 / 10 ** 2`). Tokens usually opt for a value of 18, imitating the relationship between Ether and Wei. This is the value {ERC20} uses, unless {_setupDecimals} is called. NOTE: This information is only used for _display_ purposes: it in no way affects any of the arithmetic of the contract, including {IERC20-balanceOf} and {IERC20-transfer}."
      },
      "decreaseAllowance(address,uint256)": {
        "details": "Atomically decreases the allowance granted to `spender` by the caller. This is an alternative to {approve} that can be used as a mitigation for problems described in {IERC20-approve}. Emits an {Approval} event indicating the updated allowance. Requirements: - `spender` cannot be the zero address. - `spender` must have allowance for the caller of at least `subtractedValue`."
      },
      "enableTransfer()": {
        "details": "Function to enable transfers."
      },
      "finishMinting()": {
        "details": "Function to stop minting new tokens."
      },
      "getRoleAdmin(bytes32)": {
        "details": "Returns the admin role that controls `role`. See {grantRole} and {revokeRole}. To change a role's admin, use {_setRoleAdmin}."
      },
      "getRoleMember(bytes32,uint256)": {
        "details": "Returns one of the accounts that have `role`. `index` must be a value between 0 and {getRoleMemberCount}, non-inclusive. Role bearers are not sorted in any particular way, and their ordering may change at any point. WARNING: When using {getRoleMember} and {getRoleMemberCount}, make sure you perform all queries on the same block. See the following https://forum.openzeppelin.com/t/iterating-over-elements-on-enumerableset-in-openzeppelin-contracts/2296[forum post] for more information."
      },
      "getRoleMemberCount(bytes32)": {
        "details": "Returns the number of accounts that have `role`. Can be used together with {getRoleMember} to enumerate all bearers of a role."
      },
      "grantRole(bytes32,address)": {
        "details": "Grants `role` to `account`. If `account` had not been already granted `role`, emits a {RoleGranted} event. Requirements: - the caller must have ``role``'s admin role."
      },
      "hasRole(bytes32,address)": {
        "details": "Returns `true` if `account` has been granted `role`."
      },
      "increaseAllowance(address,uint256)": {
        "details": "Atomically increases the allowance granted to `spender` by the caller. This is an alternative to {approve} that can be used as a mitigation for problems described in {IERC20-approve}. Emits an {Approval} event indicating the updated allowance. Requirements: - `spender` cannot be the zero address."
      },
      "mint(address,uint256)": {
        "details": "Function to mint tokens.",
        "params": {
          "to": "The address that will receive the minted tokens",
          "value": "The amount of tokens to mint"
        }
      },
      "mintingFinished()": {
        "returns": {
          "_0": "if minting is finished or not."
        }
      },
      "name()": {
        "details": "Returns the name of the token."
      },
      "owner()": {
        "details": "Returns the address of the current owner."
      },
      "recoverERC20(address,uint256)": {
        "details": "Remember that only owner can call so be careful when use on contracts generated from other contracts.",
        "params": {
          "tokenAddress": "The token contract address",
          "tokenAmount": "Number of tokens to be sent"
        }
      },
      "renounceOwnership()": {
        "details": "Leaves the contract without owner. It will not be possible to call `onlyOwner` functions anymore. Can only be called by the current owner. NOTE: Renouncing ownership will leave the contract without an owner, thereby removing any functionality that is only available to the owner."
      },
      "renounceRole(bytes32,address)": {
        "details": "Revokes `role` from the calling account. Roles are often managed via {grantRole} and {revokeRole}: this function's purpose is to provide a mechanism for accounts to lose their privileges if they are compromised (such as when a trusted device is misplaced). If the calling account had been granted `role`, emits a {RoleRevoked} event. Requirements: - the caller must be `account`."
      },
      "revokeRole(bytes32,address)": {
        "details": "Revokes `role` from `account`. If `account` had been granted `role`, emits a {RoleRevoked} event. Requirements: - the caller must have ``role``'s admin role."
      },
      "supportsInterface(bytes4)": {
        "details": "See {IERC165-supportsInterface}. Time complexity O(1), guaranteed to always use less than 30 000 gas."
      },
      "symbol()": {
        "details": "Returns the symbol of the token, usually a shorter version of the name."
      },
      "totalSupply()": {
        "details": "See {IERC20-totalSupply}."
      },
      "transfer(address,uint256)": {
        "details": "Transfer tokens to a specified address.",
        "params": {
          "to": "The address to transfer to",
          "value": "The amount to be transferred"
        },
        "returns": {
          "_0": "A boolean that indicates if the operation was successful."
        }
      },
      "transferAndCall(address,uint256)": {
        "details": "Transfer tokens to a specified address and then execute a callback on recipient.",
        "params": {
          "to": "The address to transfer to.",
          "value": "The amount to be transferred."
        },
        "returns": {
          "_0": "A boolean that indicates if the operation was successful."
        }
      },
      "transferAndCall(address,uint256,bytes)": {
        "details": "Transfer tokens to a specified address and then execute a callback on recipient.",
        "params": {
          "data": "Additional data with no specified format",
          "to": "The address to transfer to",
          "value": "The amount to be transferred"
        },
        "returns": {
          "_0": "A boolean that indicates if the operation was successful."
        }
      },
      "transferEnabled()": {
        "returns": {
          "_0": "if transfer is enabled or not."
        }
      },
      "transferFrom(address,address,uint256)": {
        "details": "Transfer tokens from one address to another.",
        "params": {
          "from": "The address which you want to send tokens from",
          "to": "The address which you want to transfer to",
          "value": "the amount of tokens to be transferred"
        },
        "returns": {
          "_0": "A boolean that indicates if the operation was successful."
        }
      },
      "transferFromAndCall(address,address,uint256)": {
        "details": "Transfer tokens from one address to another and then execute a callback on recipient.",
        "params": {
          "from": "The address which you want to send tokens from",
          "to": "The address which you want to transfer to",
          "value": "The amount of tokens to be transferred"
        },
        "returns": {
          "_0": "A boolean that indicates if the operation was successful."
        }
      },
      "transferFromAndCall(address,address,uint256,bytes)": {
        "details": "Transfer tokens from one address to another and then execute a callback on recipient.",
        "params": {
          "data": "Additional data with no specified format",
          "from": "The address which you want to send tokens from",
          "to": "The address which you want to transfer to",
          "value": "The amount of tokens to be transferred"
        },
        "returns": {
          "_0": "A boolean that indicates if the operation was successful."
        }
      },
      "transferOwnership(address)": {
        "details": "Transfers ownership of the contract to a new account (`newOwner`). Can only be called by the current owner."
      }
    },
    "title": "ERC20Base",
    "version": 1
  },
  "userdoc": {
    "kind": "user",
    "methods": {},
    "version": 1
  }
}