{
  "contractName": "IdoDFY",
  "abi": [
    {
      "inputs": [
        {
          "internalType": "address",
          "name": "_DFYToken",
          "type": "address"
        },
        {
          "internalType": "uint256",
          "name": "_buyMinimum",
          "type": "uint256"
        },
        {
          "internalType": "uint256",
          "name": "_buyMaximum",
          "type": "uint256"
        },
        {
          "internalType": "uint256",
          "name": "_maxPersonRef",
          "type": "uint256"
        },
        {
          "internalType": "uint256",
          "name": "_maxRewardFromRef",
          "type": "uint256"
        },
        {
          "internalType": "uint256",
          "name": "_refRewardPercent",
          "type": "uint256"
        },
        {
          "internalType": "uint256",
          "name": "_start",
          "type": "uint256"
        },
        {
          "internalType": "uint256",
          "name": "_end",
          "type": "uint256"
        }
      ],
      "stateMutability": "nonpayable",
      "type": "constructor"
    },
    {
      "anonymous": false,
      "inputs": [
        {
          "indexed": false,
          "internalType": "address",
          "name": "token",
          "type": "address"
        },
        {
          "indexed": false,
          "internalType": "address",
          "name": "user",
          "type": "address"
        },
        {
          "indexed": false,
          "internalType": "uint256",
          "name": "amount",
          "type": "uint256"
        },
        {
          "indexed": false,
          "internalType": "uint256",
          "name": "dfyAmount",
          "type": "uint256"
        },
        {
          "indexed": false,
          "internalType": "address",
          "name": "referral",
          "type": "address"
        },
        {
          "indexed": false,
          "internalType": "uint256",
          "name": "referralAmount",
          "type": "uint256"
        },
        {
          "indexed": false,
          "internalType": "uint256",
          "name": "time",
          "type": "uint256"
        }
      ],
      "name": "BuyIDO",
      "type": "event"
    },
    {
      "anonymous": false,
      "inputs": [
        {
          "indexed": false,
          "internalType": "address",
          "name": "token",
          "type": "address"
        },
        {
          "indexed": false,
          "internalType": "uint256",
          "name": "time",
          "type": "uint256"
        }
      ],
      "name": "DeleteExchangePair",
      "type": "event"
    },
    {
      "anonymous": false,
      "inputs": [
        {
          "indexed": true,
          "internalType": "address",
          "name": "previousOwner",
          "type": "address"
        },
        {
          "indexed": true,
          "internalType": "address",
          "name": "newOwner",
          "type": "address"
        }
      ],
      "name": "OwnershipTransferred",
      "type": "event"
    },
    {
      "anonymous": false,
      "inputs": [
        {
          "indexed": false,
          "internalType": "address",
          "name": "token",
          "type": "address"
        },
        {
          "indexed": false,
          "internalType": "uint256",
          "name": "input",
          "type": "uint256"
        },
        {
          "indexed": false,
          "internalType": "uint256",
          "name": "output",
          "type": "uint256"
        },
        {
          "indexed": false,
          "internalType": "uint256",
          "name": "time",
          "type": "uint256"
        }
      ],
      "name": "UpdateExchangePair",
      "type": "event"
    },
    {
      "anonymous": false,
      "inputs": [
        {
          "indexed": false,
          "internalType": "address",
          "name": "token",
          "type": "address"
        },
        {
          "indexed": false,
          "internalType": "uint256",
          "name": "amount",
          "type": "uint256"
        },
        {
          "indexed": false,
          "internalType": "address",
          "name": "receiveAddress",
          "type": "address"
        }
      ],
      "name": "WithdrawnToken",
      "type": "event"
    },
    {
      "inputs": [
        {
          "internalType": "address",
          "name": "",
          "type": "address"
        }
      ],
      "name": "beReferred",
      "outputs": [
        {
          "internalType": "address",
          "name": "",
          "type": "address"
        }
      ],
      "stateMutability": "view",
      "type": "function"
    },
    {
      "inputs": [
        {
          "internalType": "address",
          "name": "",
          "type": "address"
        }
      ],
      "name": "boughtAmountTotals",
      "outputs": [
        {
          "internalType": "uint256",
          "name": "",
          "type": "uint256"
        }
      ],
      "stateMutability": "view",
      "type": "function"
    },
    {
      "inputs": [],
      "name": "buyMaximum",
      "outputs": [
        {
          "internalType": "uint256",
          "name": "",
          "type": "uint256"
        }
      ],
      "stateMutability": "view",
      "type": "function"
    },
    {
      "inputs": [],
      "name": "buyMinimum",
      "outputs": [
        {
          "internalType": "uint256",
          "name": "",
          "type": "uint256"
        }
      ],
      "stateMutability": "view",
      "type": "function"
    },
    {
      "inputs": [],
      "name": "end",
      "outputs": [
        {
          "internalType": "uint256",
          "name": "",
          "type": "uint256"
        }
      ],
      "stateMutability": "view",
      "type": "function"
    },
    {
      "inputs": [
        {
          "internalType": "address",
          "name": "",
          "type": "address"
        }
      ],
      "name": "exchangePairs",
      "outputs": [
        {
          "internalType": "uint256",
          "name": "output",
          "type": "uint256"
        },
        {
          "internalType": "uint256",
          "name": "input",
          "type": "uint256"
        },
        {
          "internalType": "bool",
          "name": "status",
          "type": "bool"
        }
      ],
      "stateMutability": "view",
      "type": "function"
    },
    {
      "inputs": [],
      "name": "maxPersonRef",
      "outputs": [
        {
          "internalType": "uint256",
          "name": "",
          "type": "uint256"
        }
      ],
      "stateMutability": "view",
      "type": "function"
    },
    {
      "inputs": [],
      "name": "maxRewardFromRef",
      "outputs": [
        {
          "internalType": "uint256",
          "name": "",
          "type": "uint256"
        }
      ],
      "stateMutability": "view",
      "type": "function"
    },
    {
      "inputs": [],
      "name": "owner",
      "outputs": [
        {
          "internalType": "address",
          "name": "",
          "type": "address"
        }
      ],
      "stateMutability": "view",
      "type": "function"
    },
    {
      "inputs": [],
      "name": "refRewardPercent",
      "outputs": [
        {
          "internalType": "uint256",
          "name": "",
          "type": "uint256"
        }
      ],
      "stateMutability": "view",
      "type": "function"
    },
    {
      "inputs": [
        {
          "internalType": "address",
          "name": "",
          "type": "address"
        }
      ],
      "name": "referralRewardTotal",
      "outputs": [
        {
          "internalType": "uint256",
          "name": "",
          "type": "uint256"
        }
      ],
      "stateMutability": "view",
      "type": "function"
    },
    {
      "inputs": [
        {
          "internalType": "address",
          "name": "",
          "type": "address"
        }
      ],
      "name": "referralUserTotal",
      "outputs": [
        {
          "internalType": "uint8",
          "name": "",
          "type": "uint8"
        }
      ],
      "stateMutability": "view",
      "type": "function"
    },
    {
      "inputs": [],
      "name": "renounceOwnership",
      "outputs": [],
      "stateMutability": "nonpayable",
      "type": "function"
    },
    {
      "inputs": [],
      "name": "stage",
      "outputs": [
        {
          "internalType": "enum IdoDFY.Stage",
          "name": "",
          "type": "uint8"
        }
      ],
      "stateMutability": "view",
      "type": "function"
    },
    {
      "inputs": [],
      "name": "start",
      "outputs": [
        {
          "internalType": "uint256",
          "name": "",
          "type": "uint256"
        }
      ],
      "stateMutability": "view",
      "type": "function"
    },
    {
      "inputs": [
        {
          "internalType": "uint256",
          "name": "",
          "type": "uint256"
        }
      ],
      "name": "supportedTokens",
      "outputs": [
        {
          "internalType": "address",
          "name": "",
          "type": "address"
        }
      ],
      "stateMutability": "view",
      "type": "function"
    },
    {
      "inputs": [
        {
          "internalType": "address",
          "name": "newOwner",
          "type": "address"
        }
      ],
      "name": "transferOwnership",
      "outputs": [],
      "stateMutability": "nonpayable",
      "type": "function"
    },
    {
      "inputs": [
        {
          "internalType": "address",
          "name": "",
          "type": "address"
        }
      ],
      "name": "whitelist",
      "outputs": [
        {
          "internalType": "bool",
          "name": "",
          "type": "bool"
        }
      ],
      "stateMutability": "view",
      "type": "function"
    },
    {
      "inputs": [
        {
          "internalType": "enum IdoDFY.Stage",
          "name": "_stage",
          "type": "uint8"
        }
      ],
      "name": "setStage",
      "outputs": [],
      "stateMutability": "nonpayable",
      "type": "function"
    },
    {
      "inputs": [
        {
          "internalType": "bool",
          "name": "_isPublic",
          "type": "bool"
        }
      ],
      "name": "setPublic",
      "outputs": [],
      "stateMutability": "nonpayable",
      "type": "function"
    },
    {
      "inputs": [
        {
          "internalType": "address",
          "name": "_whitelist",
          "type": "address"
        }
      ],
      "name": "addWhiteList",
      "outputs": [],
      "stateMutability": "nonpayable",
      "type": "function"
    },
    {
      "inputs": [
        {
          "internalType": "address",
          "name": "token",
          "type": "address"
        },
        {
          "internalType": "uint256",
          "name": "output",
          "type": "uint256"
        },
        {
          "internalType": "uint256",
          "name": "input",
          "type": "uint256"
        }
      ],
      "name": "updateExchangePair",
      "outputs": [],
      "stateMutability": "nonpayable",
      "type": "function"
    },
    {
      "inputs": [
        {
          "internalType": "address",
          "name": "token",
          "type": "address"
        }
      ],
      "name": "deleteExchangePair",
      "outputs": [],
      "stateMutability": "nonpayable",
      "type": "function"
    },
    {
      "inputs": [],
      "name": "getOwner",
      "outputs": [
        {
          "internalType": "address",
          "name": "",
          "type": "address"
        }
      ],
      "stateMutability": "view",
      "type": "function"
    },
    {
      "inputs": [
        {
          "internalType": "address",
          "name": "token",
          "type": "address"
        },
        {
          "internalType": "uint256",
          "name": "amount",
          "type": "uint256"
        },
        {
          "internalType": "address",
          "name": "referral",
          "type": "address"
        }
      ],
      "name": "buyIdo",
      "outputs": [],
      "stateMutability": "payable",
      "type": "function"
    },
    {
      "inputs": [],
      "name": "getTokenSupport",
      "outputs": [
        {
          "internalType": "address[]",
          "name": "",
          "type": "address[]"
        }
      ],
      "stateMutability": "view",
      "type": "function"
    },
    {
      "inputs": [
        {
          "internalType": "address",
          "name": "_tokenAddress",
          "type": "address"
        }
      ],
      "name": "getExchangePair",
      "outputs": [
        {
          "internalType": "address",
          "name": "tokenAddress",
          "type": "address"
        },
        {
          "internalType": "uint256",
          "name": "output",
          "type": "uint256"
        },
        {
          "internalType": "uint256",
          "name": "input",
          "type": "uint256"
        },
        {
          "internalType": "bool",
          "name": "status",
          "type": "bool"
        }
      ],
      "stateMutability": "view",
      "type": "function"
    },
    {
      "inputs": [],
      "name": "withdrawnBNB",
      "outputs": [],
      "stateMutability": "nonpayable",
      "type": "function"
    },
    {
      "inputs": [
        {
          "internalType": "address",
          "name": "_tokenAddress",
          "type": "address"
        },
        {
          "internalType": "uint256",
          "name": "amount",
          "type": "uint256"
        }
      ],
      "name": "withdrawnToken",
      "outputs": [],
      "stateMutability": "nonpayable",
      "type": "function"
    }
  ],
  "bytecode": "0x608060405234801561001057600080fd5b50604051612152380380612152833981810160405261010081101561003457600080fd5b508051602082015160408301516060840151608085015160a086015160c087015160e0909701519596949593949293919290916000610071610118565b600080546001600160a01b0319166001600160a01b0383169081178255604051929350917f8be0079c531659141344cd1fd0a4f28419497f9722a3daafe3b4186f6b6457e0908290a350600880546001600160a01b0319166001600160a01b038a16179055600d80546000919060ff1916600183021790555060019690965560029490945560049290925560055560035560065560075550600f805460ff1916905561011c565b3390565b6120278061012b6000396000f3fe6080604052600436106101c25760003560e01c8063ae579336116100f7578063d72f314911610095578063e7cd4a0411610064578063e7cd4a0414610676578063efbe1c1c146106a9578063f2fde38b146106be578063f8546ba7146106f1576101c2565b8063d72f3149146105ba578063da51ad89146105cf578063e18610131461060e578063e5c85a6a14610623576101c2565b8063c040e6b8116100d1578063c040e6b814610518578063c62556261461054e578063ce3cd99714610578578063d434d39f146105a5576101c2565b8063ae57933614610468578063b58fbfa01461049e578063be9a655514610503576101c2565b8063715018a611610164578063893d20e81161013e578063893d20e8146103c65780638da5cb5b146103f75780639b19251a1461040c5780639ccc9dcb14610453576101c2565b8063715018a614610313578063756248a31461032857806383d899fc14610361576101c2565b80634e751b84116101a05780634e751b841461028857806356bd5e101461029d5780635bcdd5f0146102d25780635cbcec4e146102e7576101c2565b80630f925096146101c7578063217bc6961461020c57806347825acd1461023f575b600080fd5b3480156101d357600080fd5b506101fa600480360360208110156101ea57600080fd5b50356001600160a01b0316610724565b60408051918252519081900360200190f35b34801561021857600080fd5b506101fa6004803603602081101561022f57600080fd5b50356001600160a01b0316610736565b34801561024b57600080fd5b506102726004803603602081101561026257600080fd5b50356001600160a01b0316610748565b6040805160ff9092168252519081900360200190f35b34801561029457600080fd5b506101fa61075d565b3480156102a957600080fd5b506102d0600480360360208110156102c057600080fd5b50356001600160a01b0316610763565b005b3480156102de57600080fd5b506101fa610931565b3480156102f357600080fd5b506102d06004803603602081101561030a57600080fd5b50351515610937565b34801561031f57600080fd5b506102d06109a2565b34801561033457600080fd5b506102d06004803603604081101561034b57600080fd5b506001600160a01b038135169060200135610a44565b34801561036d57600080fd5b50610376610d58565b60408051602080825283518183015283519192839290830191858101910280838360005b838110156103b257818101518382015260200161039a565b505050509050019250505060405180910390f35b3480156103d257600080fd5b506103db610dba565b604080516001600160a01b039092168252519081900360200190f35b34801561040357600080fd5b506103db610dc9565b34801561041857600080fd5b5061043f6004803603602081101561042f57600080fd5b50356001600160a01b0316610dd8565b604080519115158252519081900360200190f35b34801561045f57600080fd5b506101fa610ded565b6102d06004803603606081101561047e57600080fd5b506001600160a01b03813581169160208101359160409091013516610df3565b3480156104aa57600080fd5b506104d1600480360360208110156104c157600080fd5b50356001600160a01b0316611528565b604080516001600160a01b03909516855260208501939093528383019190915215156060830152519081900360800190f35b34801561050f57600080fd5b506101fa611557565b34801561052457600080fd5b5061052d61155d565b6040518082600181111561053d57fe5b815260200191505060405180910390f35b34801561055a57600080fd5b506103db6004803603602081101561057157600080fd5b5035611566565b34801561058457600080fd5b506102d06004803603602081101561059b57600080fd5b503560ff16611590565b3480156105b157600080fd5b506101fa611608565b3480156105c657600080fd5b506102d061160e565b3480156105db57600080fd5b506102d0600480360360608110156105f257600080fd5b506001600160a01b0381351690602081013590604001356116af565b34801561061a57600080fd5b506101fa611814565b34801561062f57600080fd5b506106566004803603602081101561064657600080fd5b50356001600160a01b031661181a565b604080519384526020840192909252151582820152519081900360600190f35b34801561068257600080fd5b506102d06004803603602081101561069957600080fd5b50356001600160a01b031661183e565b3480156106b557600080fd5b506101fa6118ba565b3480156106ca57600080fd5b506102d0600480360360208110156106e157600080fd5b50356001600160a01b03166118c0565b3480156106fd57600080fd5b506103db6004803603602081101561071457600080fd5b50356001600160a01b03166119b8565b600c6020526000908152604090205481565b600a6020526000908152604090205481565b600b6020526000908152604090205460ff1681565b60015481565b61076b6119d3565b6000546001600160a01b039081169116146107bb576040805162461bcd60e51b81526020600482018190526024820152600080516020611fd2833981519152604482015290519081900360640190fd5b6001600160a01b03811660009081526010602052604090206002015460ff1661081c576040805162461bcd60e51b815260206004820152600e60248201526d14dd185d1d5cc81a5b9d985b1a5960921b604482015290519081900360640190fd5b6001600160a01b038116600090815260106020526040812081815560018101829055600201805460ff19169055805b6011548110156108d857826001600160a01b03166011828154811061086c57fe5b6000918252602090912001546001600160a01b0316146108d057816011828154811061089457fe5b60009182526020808320909101548354600181018555938352912090910180546001600160a01b0319166001600160a01b039092169190911790555b60010161084b565b5080546108e9906011908390611f25565b50604080516001600160a01b038416815242602082015281517f832955936d34e2ca89fb8b14dc4cd35d3b56be5a2667efac7e255897e0cd261f929181900390910190a15050565b60035481565b61093f6119d3565b6000546001600160a01b0390811691161461098f576040805162461bcd60e51b81526020600482018190526024820152600080516020611fd2833981519152604482015290519081900360640190fd5b600f805460ff1916911515919091179055565b6109aa6119d3565b6000546001600160a01b039081169116146109fa576040805162461bcd60e51b81526020600482018190526024820152600080516020611fd2833981519152604482015290519081900360640190fd5b600080546040516001600160a01b03909116907f8be0079c531659141344cd1fd0a4f28419497f9722a3daafe3b4186f6b6457e0908390a3600080546001600160a01b0319169055565b610a4c6119d3565b6000546001600160a01b03908116911614610a9c576040805162461bcd60e51b81526020600482018190526024820152600080516020611fd2833981519152604482015290519081900360640190fd5b604080516370a0823160e01b81523060048201529051839183916001600160a01b038416916370a08231916024808301926020929190829003018186803b158015610ae657600080fd5b505afa158015610afa573d6000803e3d6000fd5b505050506040513d6020811015610b1057600080fd5b50511015610b5a576040805162461bcd60e51b8152602060048201526012602482015271151bdad95b881a5b9cdd59999a58da595b9d60721b604482015290519081900360640190fd5b806001600160a01b031663095ea7b3610b71610dc9565b846040518363ffffffff1660e01b815260040180836001600160a01b0316815260200182815260200192505050602060405180830381600087803b158015610bb857600080fd5b505af1158015610bcc573d6000803e3d6000fd5b505050506040513d6020811015610be257600080fd5b5051610c2d576040805162461bcd60e51b8152602060048201526015602482015274546f6b656e20617070726f7665206661696c65642160581b604482015290519081900360640190fd5b806001600160a01b031663a9059cbb610c44610dc9565b846040518363ffffffff1660e01b815260040180836001600160a01b0316815260200182815260200192505050602060405180830381600087803b158015610c8b57600080fd5b505af1158015610c9f573d6000803e3d6000fd5b505050506040513d6020811015610cb557600080fd5b5051610cfe576040805162461bcd60e51b8152602060048201526013602482015272151bdad95b881d1c985b9cd9995c8819985a5b606a1b604482015290519081900360640190fd5b7fae9c2628a61b3c3fc7cdc3a52b9ae48c828b5fe544ebf779dfa0a2743478650c8383610d29610dc9565b604080516001600160a01b039485168152602081019390935292168183015290519081900360600190a1505050565b60606011805480602002602001604051908101604052809291908181526020018280548015610db057602002820191906000526020600020905b81546001600160a01b03168152600190910190602001808311610d92575b5050505050905090565b6000610dc4610dc9565b905090565b6000546001600160a01b031690565b600e6020526000908152604090205460ff1681565b60045481565b6000600d5460ff166001811115610e0657fe5b14610e46576040805162461bcd60e51b815260206004820152600b60248201526a537461676520636c6f736560a81b604482015290519081900360640190fd5b600654421015610e9d576040805162461bcd60e51b815260206004820152601760248201527f49444f2074696d65206973206e6f742073746172746564000000000000000000604482015290519081900360640190fd5b600754421115610ee7576040805162461bcd60e51b815260206004820152601060248201526f125113c81d1a5b59481dd85cc8195b9960821b604482015290519081900360640190fd5b600f5460ff1680610f075750336000908152600e602052604090205460ff165b610f58576040805162461bcd60e51b815260206004820152601a60248201527f5075626c69632073616c65207374696c6c206e6f74206f70656e000000000000604482015290519081900360640190fd5b6001600160a01b03831660009081526010602052604090206002015460ff16610fc8576040805162461bcd60e51b815260206004820152601b60248201527f45786368616e67652070616972206973206e6f74206578697374210000000000604482015290519081900360640190fd5b6001600160a01b038316610fda573491505b6001600160a01b03831660009081526010602052604081206001810154905461100e919061100890866119d7565b90611a39565b9050600154670de0b6b3a764000002811015611071576040805162461bcd60e51b815260206004820152601d60248201527f416d6f756e7420444659207265717565737420697320746f6f206c6f77000000604482015290519081900360640190fd5b600254336000908152600c6020526040902054670de0b6b3a764000090910290820111156110e6576040805162461bcd60e51b815260206004820152601f60248201527f526571756573742044465920616d6f756e742069732065786365656465642100604482015290519081900360640190fd5b336000908152600c602090815260409182902080548401905560085482516370a0823160e01b8152306004820152925184936001600160a01b03909216926370a082319260248082019391829003018186803b15801561114557600080fd5b505afa158015611159573d6000803e3d6000fd5b505050506040513d602081101561116f57600080fd5b505110156111b7576040805162461bcd60e51b815260206004820152601060248201526f111196481a5b9cdd59999a58da595b9d60821b604482015290519081900360640190fd5b6001600160a01b038416156111d5576111d08484611a7b565b6111de565b6111de83611c1b565b6111e781611c66565b60006001600160a01b0383161580159061120a57506001600160a01b0383163314155b801561122c5750336000908152600960205260409020546001600160a01b0316155b801561125457506004546001600160a01b0384166000908152600b602052604090205460ff16105b15611266576112638383611df5565b90505b80156114be576001600160a01b038084166000818152600a60209081526040808320805487019055600b8252808320805460ff8082166001011660ff199091161790553383526009825280832080546001600160a01b03191685179055600854815163095ea7b360e01b8152600481019590955260248501879052905194169363095ea7b393604480820194918390030190829087803b15801561130957600080fd5b505af115801561131d573d6000803e3d6000fd5b505050506040513d602081101561133357600080fd5b5051611386576040805162461bcd60e51b815260206004820152601760248201527f44465920617070726f766520726566206661696c656421000000000000000000604482015290519081900360640190fd5b6008546040805163a9059cbb60e01b81526001600160a01b038681166004830152602482018590529151919092169163a9059cbb9160448083019260209291908290030181600087803b1580156113dc57600080fd5b505af11580156113f0573d6000803e3d6000fd5b505050506040513d602081101561140657600080fd5b5051611459576040805162461bcd60e51b815260206004820152601a60248201527f444659207472616e7366657220726566657272616c206661696c000000000000604482015290519081900360640190fd5b604080516001600160a01b038088168252336020830152818301879052606082018590528516608082015260a081018390524260c082015290517f01549ee63c4a665f871e9ab32dce0919fe2e5bda141dd9028340374bda00aca39181900360e00190a15b604080516001600160a01b03871681523360208201528082018690526060810184905260006080820181905260a08201524260c082015290517f01549ee63c4a665f871e9ab32dce0919fe2e5bda141dd9028340374bda00aca39181900360e00190a15050505050565b6001600160a01b0381166000908152601060205260409020805460018201546002909201549293909260ff1690565b60065481565b600d5460ff1681565b6011818154811061157657600080fd5b6000918252602090912001546001600160a01b0316905081565b6115986119d3565b6000546001600160a01b039081169116146115e8576040805162461bcd60e51b81526020600482018190526024820152600080516020611fd2833981519152604482015290519081900360640190fd5b600d805482919060ff19166001838181111561160057fe5b021790555050565b60055481565b6116166119d3565b6000546001600160a01b03908116911614611666576040805162461bcd60e51b81526020600482018190526024820152600080516020611fd2833981519152604482015290519081900360640190fd5b6000611670610dc9565b60405190915081906001600160a01b038216904780156108fc02916000818181858888f193505050501580156116aa573d6000803e3d6000fd5b505050565b6116b76119d3565b6000546001600160a01b03908116911614611707576040805162461bcd60e51b81526020600482018190526024820152600080516020611fd2833981519152604482015290519081900360640190fd5b6001600160a01b03831660009081526010602052604090206002015460ff1661177657601180546001810182556000919091527f31ecc21a745e3968a04e9570e4425bc18fa8019c68028196b546d1669c200c680180546001600160a01b0319166001600160a01b0385161790555b6040805160608082018352848252602080830185815260018486018181526001600160a01b038a1660008181526010865288902096518755925191860191909155516002909401805460ff19169415159490941790935583519283528201849052818301859052429082015290517f936558683d5bab97da9ea02e8befc40ba2e5db45e5f4267e62d16b7ef5a0a307916080908290030190a1505050565b60025481565b60106020526000908152604090208054600182015460029092015490919060ff1683565b6118466119d3565b6000546001600160a01b03908116911614611896576040805162461bcd60e51b81526020600482018190526024820152600080516020611fd2833981519152604482015290519081900360640190fd5b6001600160a01b03166000908152600e60205260409020805460ff19166001179055565b60075481565b6118c86119d3565b6000546001600160a01b03908116911614611918576040805162461bcd60e51b81526020600482018190526024820152600080516020611fd2833981519152604482015290519081900360640190fd5b6001600160a01b03811661195d5760405162461bcd60e51b8152600401808060200182810382526026815260200180611f8b6026913960400191505060405180910390fd5b600080546040516001600160a01b03808516939216917f8be0079c531659141344cd1fd0a4f28419497f9722a3daafe3b4186f6b6457e091a3600080546001600160a01b0319166001600160a01b0392909216919091179055565b6009602052600090815260409020546001600160a01b031681565b3390565b6000826119e657506000611a33565b828202828482816119f357fe5b0414611a305760405162461bcd60e51b8152600401808060200182810382526021815260200180611fb16021913960400191505060405180910390fd5b90505b92915050565b6000611a3083836040518060400160405280601a81526020017f536166654d6174683a206469766973696f6e206279207a65726f000000000000815250611e83565b604080516370a0823160e01b81523360048201529051839183916001600160a01b038416916370a08231916024808301926020929190829003018186803b158015611ac557600080fd5b505afa158015611ad9573d6000803e3d6000fd5b505050506040513d6020811015611aef57600080fd5b50511015611b39576040805162461bcd60e51b8152602060048201526012602482015271151bdad95b881a5b9cdd59999a58da595b9d60721b604482015290519081900360640190fd5b806001600160a01b03166323b872dd33611b51610dc9565b856040518463ffffffff1660e01b815260040180846001600160a01b03168152602001836001600160a01b031681526020018281526020019350505050602060405180830381600087803b158015611ba857600080fd5b505af1158015611bbc573d6000803e3d6000fd5b505050506040513d6020811015611bd257600080fd5b50516116aa576040805162461bcd60e51b8152602060048201526013602482015272151bdad95b881d1c985b9cd9995c8819985a5b606a1b604482015290519081900360640190fd5b6000611c25610dc9565b60405190915081906001600160a01b0382169084156108fc029085906000818181858888f19350505050158015611c60573d6000803e3d6000fd5b50505050565b6008546040805163095ea7b360e01b81523360048201526024810184905290516001600160a01b039092169163095ea7b3916044808201926020929091908290030181600087803b158015611cba57600080fd5b505af1158015611cce573d6000803e3d6000fd5b505050506040513d6020811015611ce457600080fd5b5051611d2d576040805162461bcd60e51b815260206004820152601360248201527244465920617070726f7665206661696c65642160681b604482015290519081900360640190fd5b6008546040805163a9059cbb60e01b81523360048201526024810184905290516001600160a01b039092169163a9059cbb916044808201926020929091908290030181600087803b158015611d8157600080fd5b505af1158015611d95573d6000803e3d6000fd5b505050506040513d6020811015611dab57600080fd5b5051611df2576040805162461bcd60e51b8152602060048201526011602482015270111196481d1c985b9cd9995c8819985a5b607a1b604482015290519081900360640190fd5b50565b600080600090506000611e186064611008600354876119d790919063ffffffff16565b6005546001600160a01b0387166000908152600a6020526040902054919250670de0b6b3a76400000290820111611e5157809150611e7b565b6001600160a01b0385166000908152600a6020526040902054600554670de0b6b3a7640000020391505b509392505050565b60008183611f0f5760405162461bcd60e51b81526004018080602001828103825283818151815260200191508051906020019080838360005b83811015611ed4578181015183820152602001611ebc565b50505050905090810190601f168015611f015780820380516001836020036101000a031916815260200191505b509250505060405180910390fd5b506000838581611f1b57fe5b0495945050505050565b828054828255906000526020600020908101928215611f655760005260206000209182015b82811115611f65578254825591600101919060010190611f4a565b50611f71929150611f75565b5090565b5b80821115611f715760008155600101611f7656fe4f776e61626c653a206e6577206f776e657220697320746865207a65726f2061646472657373536166654d6174683a206d756c7469706c69636174696f6e206f766572666c6f774f776e61626c653a2063616c6c6572206973206e6f7420746865206f776e6572a2646970667358221220df73bc784d59f18a67a55e16108fa2fbe75ac1821e644439080c37a2787ef43464736f6c63430007060033",
  "immutableReferences": {},
  "source": "// SPDX-License-Identifier: MIT\npragma solidity >=0.4.22 <0.9.0;\n\nimport \"@openzeppelin/contracts/math/SafeMath.sol\";\nimport \"@openzeppelin/contracts/access/Ownable.sol\";\nimport \"@openzeppelin/contracts/token/ERC20/IERC20.sol\";\n\ncontract IdoDFY is Ownable {\n    constructor(\n        address _DFYToken,\n        uint256 _buyMinimum,\n        uint256 _buyMaximum,\n        uint256 _maxPersonRef,\n        uint256 _maxRewardFromRef,\n        uint256 _refRewardPercent,\n        uint _start,\n        uint _end\n    ) public {\n        DFYToken = IERC20(address(_DFYToken));\n        stage = Stage.Unpause;\n        buyMinimum = _buyMinimum;\n        buyMaximum = _buyMaximum;\n        maxPersonRef = _maxPersonRef;\n        maxRewardFromRef = _maxRewardFromRef;\n        refRewardPercent = _refRewardPercent;\n        start = _start;\n        end = _end;\n        isPublic = false;\n    }\n\n    uint256 public buyMinimum;\n    uint256 public buyMaximum;\n    uint256 public refRewardPercent;\n    uint256 public maxPersonRef;\n    uint256 public maxRewardFromRef;\n    uint public start;\n    uint public end;\n\n    using SafeMath for uint256;\n    IERC20 private DFYToken;\n\n    struct ExchangePair {\n        uint256 output;\n        uint256 input;\n        bool status;\n    }\n\n    mapping(address => address) public beReferred;\n    mapping(address => uint256) public referralRewardTotal;\n    mapping(address => uint8) public referralUserTotal;\n\n    mapping(address => uint256) public boughtAmountTotals;\n\n    enum Stage {Unpause, Pause}\n\n    Stage public stage;\n\n    mapping(address => bool) public whitelist;\n    bool isPublic;\n\n    modifier requireOpen {\n        require(stage == Stage.Unpause, \"Stage close\");\n        require(block.timestamp >= start, \"IDO time is not started\");\n        require(block.timestamp <= end, \"IDO time was end\");\n\n        require(isPublic || whitelist[msg.sender], \"Public sale still not open\");\n\n        _;\n    }\n\n    mapping(address => ExchangePair) public exchangePairs;\n    address[] public supportedTokens;\n\n    event UpdateExchangePair(\n        address token,\n        uint256 input,\n        uint256 output,\n        uint256 time\n    );\n\n    function setStage(Stage _stage) public onlyOwner{\n        stage = _stage;\n    }\n\n    function setPublic(bool _isPublic) public onlyOwner {\n        isPublic = _isPublic;\n    }\n\n    function addWhiteList(address _whitelist) public onlyOwner {\n        whitelist[_whitelist] = true;\n    }\n\n    function updateExchangePair(\n        address token,\n        uint256 output,\n        uint256 input\n    ) public onlyOwner {\n        // require(token != address(0), \"Token invalid\"); address(0) for BNB\n        if (!exchangePairs[token].status) {\n            supportedTokens.push(token);\n        }\n        exchangePairs[token] = ExchangePair(output, input, true);\n        emit UpdateExchangePair(token, input, output, block.timestamp);\n    }\n\n    event DeleteExchangePair(address token, uint256 time);\n\n    function deleteExchangePair(address token) public onlyOwner {\n        require(exchangePairs[token].status, \"Status invalid\");\n        delete exchangePairs[token];\n\n        address[] storage addressTokens;\n\n        for (uint i = 0; i < supportedTokens.length; i++) {\n            if(supportedTokens[i] != token) {\n                addressTokens.push(supportedTokens[i]);\n            }\n        }\n        supportedTokens = addressTokens;\n\n        emit DeleteExchangePair(token, block.timestamp);\n    }\n\n    function getOwner() external view returns (address) {\n        return owner();\n    }\n\n    event BuyIDO(\n        address token,\n        address user,\n        uint256 amount,\n        uint256 dfyAmount,\n        address referral,\n        uint256 referralAmount,\n        uint256 time\n    );\n\n\n\n    function _transferBNBToOwner(uint256 amount) internal {\n        address owner=owner();\n        address payable ownerPayable = address(uint160(owner));\n        ownerPayable.transfer(amount);\n    }\n\n    function _transferDFy(uint256 amount) internal{\n        require(\n            DFYToken.approve(msg.sender, amount),\n            \"DFY approve failed!\"\n        );\n\n        require(\n            DFYToken.transfer(msg.sender, amount),\n            \"DFY transfer fail\"\n        );\n    }\n\n    function buyIdo(\n        address token,\n        uint256 amount,\n        address referral\n    ) external requireOpen payable{\n        require(exchangePairs[token].status, \"Exchange pair is not exist!\");\n        if(token==address(0)){\n            amount=msg.value;\n        }\n        uint256 outputDFYAmount =\n        (exchangePairs[token].output.mul(amount)).div(\n            exchangePairs[token].input\n        );\n\n        require(\n            outputDFYAmount >= buyMinimum*(10 ** 18),\n            \"Amount DFY request is too low\"\n        );\n\n        require(\n            boughtAmountTotals[msg.sender] + outputDFYAmount <= buyMaximum*(10 ** 18),\n            \"Request DFY amount is exceeded!\"\n        );\n\n        boughtAmountTotals[msg.sender] += outputDFYAmount;\n\n        require(\n            DFYToken.balanceOf(address(this)) >= outputDFYAmount,\n            \"DFY insufficient\"\n        );\n\n        if(token!=address(0)){\n            _transferTokenToOwner(token, amount);\n        } else {\n            _transferBNBToOwner(amount);\n        }\n\n        _transferDFy(outputDFYAmount);\n\n        uint256 referralReceiveAmount = 0;\n        if (referral != address(0)\n        && referral != msg.sender\n        && beReferred[msg.sender] == address(0)\n        && referralUserTotal[referral] < maxPersonRef) {\n            referralReceiveAmount=_calculateReferral(referral, outputDFYAmount);\n        }\n\n        if (referralReceiveAmount > 0) {\n            referralRewardTotal[referral] += referralReceiveAmount;\n            referralUserTotal[referral] += 1;\n\n            beReferred[msg.sender] = referral;\n\n            require(\n                DFYToken.approve(referral, referralReceiveAmount),\n                \"DFY approve ref failed!\"\n            );\n\n            require(\n                DFYToken.transfer(referral, referralReceiveAmount),\n                \"DFY transfer referral fail\"\n            );\n            emit BuyIDO(\n                token,\n                msg.sender,\n                amount,\n                outputDFYAmount,\n                referral,\n                referralReceiveAmount,\n                block.timestamp\n            );\n        }\n        emit BuyIDO(\n            token,\n            msg.sender,\n            amount,\n            outputDFYAmount,\n            address(0),\n            0,\n            block.timestamp\n        );\n    }\n\n    function _transferTokenToOwner(address token, uint256 amount) internal {\n        IERC20 transferToken = IERC20(token);\n\n        require(\n            transferToken.balanceOf(msg.sender) >= amount,\n            \"Token insufficient\"\n        );\n\n        require(\n            transferToken.transferFrom(msg.sender, owner(), amount),\n            \"Token transfer fail\"\n        );\n    }\n\n    function _calculateReferral(address referral, uint256 amount) internal view returns (uint256){\n        uint256 referralReceiveAmount = 0;\n        uint256 expectedReferralReceiveAmount = (amount.mul(refRewardPercent)).div(\n                100\n            );\n\n        if(referralRewardTotal[referral] + expectedReferralReceiveAmount <= maxRewardFromRef*(10 ** 18)) {\n            referralReceiveAmount = expectedReferralReceiveAmount;\n        } else {\n            referralReceiveAmount = maxRewardFromRef*(10 ** 18) - referralRewardTotal[referral];\n        }\n\n        return referralReceiveAmount;\n    }\n\n    function getTokenSupport() public view returns (address[] memory) {\n        return supportedTokens;\n    }\n\n    function getExchangePair(address _tokenAddress) public view returns (address tokenAddress, uint256 output, uint256 input, bool status) {\n        return (_tokenAddress, exchangePairs[_tokenAddress].output, exchangePairs[_tokenAddress].input, exchangePairs[_tokenAddress].status);\n    }\n\n    function withdrawnBNB() external onlyOwner{\n        address owner=owner();\n        address payable ownerPayable = address(uint160(owner));\n        ownerPayable.transfer(address(this).balance);\n    }\n\n    event WithdrawnToken(\n        address token,\n        uint256 amount,\n        address receiveAddress\n    );\n\n    function withdrawnToken(address _tokenAddress, uint256 amount) external onlyOwner {\n        IERC20 transferToken = IERC20(_tokenAddress);\n        require(\n            transferToken.balanceOf(address(this)) >= amount,\n            \"Token insufficient\"\n        );\n\n        require(\n            transferToken.approve(owner(), amount),\n            \"Token approve failed!\"\n        );\n\n        require(\n            transferToken.transfer(owner(), amount),\n            \"Token transfer fail\"\n        );\n\n        emit WithdrawnToken(\n            _tokenAddress,\n            amount,\n            owner()\n        );\n    }\n\n}\n",
  "sourcePath": "/home/ylgr/Edsolabs/defi-smartcontract/contracts/IdoDFY.sol",
  "compiler": {
    "name": "solc",
    "version": "0.7.6+commit.7338295f.Emscripten.clang"
  },
  "schemaVersion": "3.3.3",
  "updatedAt": "2021-01-25T02:58:19.495Z",
  "devdoc": {
    "kind": "dev",
    "methods": {
      "owner()": {
        "details": "Returns the address of the current owner."
      },
      "renounceOwnership()": {
        "details": "Leaves the contract without owner. It will not be possible to call `onlyOwner` functions anymore. Can only be called by the current owner. NOTE: Renouncing ownership will leave the contract without an owner, thereby removing any functionality that is only available to the owner."
      },
      "transferOwnership(address)": {
        "details": "Transfers ownership of the contract to a new account (`newOwner`). Can only be called by the current owner."
      }
    },
    "version": 1
  },
  "userdoc": {
    "kind": "user",
    "methods": {},
    "version": 1
  }
}