{
  "contractName": "IdoDFY",
  "abi": [
    {
      "inputs": [
        {
          "internalType": "address",
          "name": "_DFYToken",
          "type": "address"
        },
        {
          "internalType": "uint256",
          "name": "_buyMaximum",
          "type": "uint256"
        },
        {
          "internalType": "uint256",
          "name": "_maxPersonRef",
          "type": "uint256"
        },
        {
          "internalType": "uint256",
          "name": "_maxRewardFromRef",
          "type": "uint256"
        },
        {
          "internalType": "uint256",
          "name": "_refRewardPercent",
          "type": "uint256"
        }
      ],
      "stateMutability": "nonpayable",
      "type": "constructor"
    },
    {
      "anonymous": false,
      "inputs": [
        {
          "indexed": false,
          "internalType": "address",
          "name": "token",
          "type": "address"
        },
        {
          "indexed": false,
          "internalType": "address",
          "name": "user",
          "type": "address"
        },
        {
          "indexed": false,
          "internalType": "uint256",
          "name": "amount",
          "type": "uint256"
        },
        {
          "indexed": false,
          "internalType": "uint256",
          "name": "dfyAmount",
          "type": "uint256"
        },
        {
          "indexed": false,
          "internalType": "address",
          "name": "referral",
          "type": "address"
        },
        {
          "indexed": false,
          "internalType": "uint256",
          "name": "referralAmount",
          "type": "uint256"
        },
        {
          "indexed": false,
          "internalType": "uint256",
          "name": "time",
          "type": "uint256"
        }
      ],
      "name": "BuyIDO",
      "type": "event"
    },
    {
      "anonymous": false,
      "inputs": [
        {
          "indexed": false,
          "internalType": "address",
          "name": "token",
          "type": "address"
        },
        {
          "indexed": false,
          "internalType": "uint256",
          "name": "time",
          "type": "uint256"
        }
      ],
      "name": "DeleteExchangePair",
      "type": "event"
    },
    {
      "anonymous": false,
      "inputs": [
        {
          "indexed": true,
          "internalType": "address",
          "name": "previousOwner",
          "type": "address"
        },
        {
          "indexed": true,
          "internalType": "address",
          "name": "newOwner",
          "type": "address"
        }
      ],
      "name": "OwnershipTransferred",
      "type": "event"
    },
    {
      "anonymous": false,
      "inputs": [
        {
          "indexed": false,
          "internalType": "address",
          "name": "token",
          "type": "address"
        },
        {
          "indexed": false,
          "internalType": "uint256",
          "name": "input",
          "type": "uint256"
        },
        {
          "indexed": false,
          "internalType": "uint256",
          "name": "output",
          "type": "uint256"
        },
        {
          "indexed": false,
          "internalType": "uint256",
          "name": "time",
          "type": "uint256"
        }
      ],
      "name": "UpdateExchangePair",
      "type": "event"
    },
    {
      "inputs": [
        {
          "internalType": "address",
          "name": "",
          "type": "address"
        }
      ],
      "name": "beReferred",
      "outputs": [
        {
          "internalType": "address",
          "name": "",
          "type": "address"
        }
      ],
      "stateMutability": "view",
      "type": "function"
    },
    {
      "inputs": [
        {
          "internalType": "address",
          "name": "",
          "type": "address"
        }
      ],
      "name": "boughtAmountTotals",
      "outputs": [
        {
          "internalType": "uint256",
          "name": "",
          "type": "uint256"
        }
      ],
      "stateMutability": "view",
      "type": "function"
    },
    {
      "inputs": [
        {
          "internalType": "address",
          "name": "",
          "type": "address"
        }
      ],
      "name": "exchangePairs",
      "outputs": [
        {
          "internalType": "uint256",
          "name": "output",
          "type": "uint256"
        },
        {
          "internalType": "uint256",
          "name": "input",
          "type": "uint256"
        },
        {
          "internalType": "bool",
          "name": "status",
          "type": "bool"
        }
      ],
      "stateMutability": "view",
      "type": "function"
    },
    {
      "inputs": [],
      "name": "owner",
      "outputs": [
        {
          "internalType": "address",
          "name": "",
          "type": "address"
        }
      ],
      "stateMutability": "view",
      "type": "function"
    },
    {
      "inputs": [
        {
          "internalType": "address",
          "name": "",
          "type": "address"
        }
      ],
      "name": "referralRewardTotal",
      "outputs": [
        {
          "internalType": "uint256",
          "name": "",
          "type": "uint256"
        }
      ],
      "stateMutability": "view",
      "type": "function"
    },
    {
      "inputs": [
        {
          "internalType": "address",
          "name": "",
          "type": "address"
        }
      ],
      "name": "referralUserTotal",
      "outputs": [
        {
          "internalType": "uint8",
          "name": "",
          "type": "uint8"
        }
      ],
      "stateMutability": "view",
      "type": "function"
    },
    {
      "inputs": [],
      "name": "renounceOwnership",
      "outputs": [],
      "stateMutability": "nonpayable",
      "type": "function"
    },
    {
      "inputs": [],
      "name": "stage",
      "outputs": [
        {
          "internalType": "enum IdoDFY.Stage",
          "name": "",
          "type": "uint8"
        }
      ],
      "stateMutability": "view",
      "type": "function"
    },
    {
      "inputs": [
        {
          "internalType": "uint256",
          "name": "",
          "type": "uint256"
        }
      ],
      "name": "supportedTokens",
      "outputs": [
        {
          "internalType": "address",
          "name": "",
          "type": "address"
        }
      ],
      "stateMutability": "view",
      "type": "function"
    },
    {
      "inputs": [
        {
          "internalType": "address",
          "name": "newOwner",
          "type": "address"
        }
      ],
      "name": "transferOwnership",
      "outputs": [],
      "stateMutability": "nonpayable",
      "type": "function"
    },
    {
      "inputs": [
        {
          "internalType": "enum IdoDFY.Stage",
          "name": "_stage",
          "type": "uint8"
        }
      ],
      "name": "setStage",
      "outputs": [],
      "stateMutability": "nonpayable",
      "type": "function"
    },
    {
      "inputs": [
        {
          "internalType": "address",
          "name": "token",
          "type": "address"
        },
        {
          "internalType": "uint256",
          "name": "output",
          "type": "uint256"
        },
        {
          "internalType": "uint256",
          "name": "input",
          "type": "uint256"
        }
      ],
      "name": "updateExchangePair",
      "outputs": [],
      "stateMutability": "nonpayable",
      "type": "function"
    },
    {
      "inputs": [
        {
          "internalType": "address",
          "name": "token",
          "type": "address"
        }
      ],
      "name": "deleteExchangePair",
      "outputs": [],
      "stateMutability": "nonpayable",
      "type": "function"
    },
    {
      "inputs": [],
      "name": "getOwner",
      "outputs": [
        {
          "internalType": "address",
          "name": "",
          "type": "address"
        }
      ],
      "stateMutability": "view",
      "type": "function"
    },
    {
      "inputs": [
        {
          "internalType": "address",
          "name": "token",
          "type": "address"
        },
        {
          "internalType": "uint256",
          "name": "amount",
          "type": "uint256"
        },
        {
          "internalType": "address",
          "name": "referral",
          "type": "address"
        }
      ],
      "name": "buyIdo",
      "outputs": [],
      "stateMutability": "nonpayable",
      "type": "function"
    },
    {
      "inputs": [],
      "name": "getTokenSupport",
      "outputs": [
        {
          "internalType": "address[]",
          "name": "",
          "type": "address[]"
        }
      ],
      "stateMutability": "view",
      "type": "function"
    },
    {
      "inputs": [
        {
          "internalType": "address",
          "name": "_tokenAddress",
          "type": "address"
        }
      ],
      "name": "getExchangePair",
      "outputs": [
        {
          "internalType": "address",
          "name": "tokenAddress",
          "type": "address"
        },
        {
          "internalType": "uint256",
          "name": "output",
          "type": "uint256"
        },
        {
          "internalType": "uint256",
          "name": "input",
          "type": "uint256"
        },
        {
          "internalType": "bool",
          "name": "status",
          "type": "bool"
        }
      ],
      "stateMutability": "view",
      "type": "function"
    }
  ],
  "bytecode": "0x608060405234801561001057600080fd5b50604051611766380380611766833981810160405260a081101561003357600080fd5b50805160208201516040830151606084015160809094015192939192909190600061005c6100ec565b600080546001600160a01b0319166001600160a01b0383169081178255604051929350917f8be0079c531659141344cd1fd0a4f28419497f9722a3daafe3b4186f6b6457e0908290a350600580546001600160a01b0319166001600160a01b038716179055600a80546001919060ff191682800217905550600193909355600391909155600455600255506100f0565b3390565b611667806100ff6000396000f3fe608060405234801561001057600080fd5b506004361061010b5760003560e01c8063ae579336116100a2578063ce3cd99711610071578063ce3cd99714610332578063da51ad8914610352578063e5c85a6a14610384578063f2fde38b146103ca578063f8546ba7146103f05761010b565b8063ae5793361461025e578063b58fbfa014610294578063c040e6b8146102ec578063c6255626146103155761010b565b8063715018a6116100de578063715018a6146101d257806383d899fc146101da578063893d20e8146102325780638da5cb5b146102565761010b565b80630f92509614610110578063217bc6961461014857806347825acd1461016e57806356bd5e10146101aa575b600080fd5b6101366004803603602081101561012657600080fd5b50356001600160a01b0316610416565b60408051918252519081900360200190f35b6101366004803603602081101561015e57600080fd5b50356001600160a01b0316610428565b6101946004803603602081101561018457600080fd5b50356001600160a01b031661043a565b6040805160ff9092168252519081900360200190f35b6101d0600480360360208110156101c057600080fd5b50356001600160a01b031661044f565b005b6101d061061d565b6101e26106bf565b60408051602080825283518183015283519192839290830191858101910280838360005b8381101561021e578181015183820152602001610206565b505050509050019250505060405180910390f35b61023a610721565b604080516001600160a01b039092168252519081900360200190f35b61023a610730565b6101d06004803603606081101561027457600080fd5b506001600160a01b0381358116916020810135916040909101351661073f565b6102ba600480360360208110156102aa57600080fd5b50356001600160a01b031661105f565b604080516001600160a01b03909516855260208501939093528383019190915215156060830152519081900360800190f35b6102f461108e565b6040518082600181111561030457fe5b815260200191505060405180910390f35b61023a6004803603602081101561032b57600080fd5b5035611097565b6101d06004803603602081101561034857600080fd5b503560ff166110c1565b6101d06004803603606081101561036857600080fd5b506001600160a01b038135169060208101359060400135611139565b6103aa6004803603602081101561039a57600080fd5b50356001600160a01b03166112e9565b604080519384526020840192909252151582820152519081900360600190f35b6101d0600480360360208110156103e057600080fd5b50356001600160a01b031661130d565b61023a6004803603602081101561040657600080fd5b50356001600160a01b0316611405565b60096020526000908152604090205481565b60076020526000908152604090205481565b60086020526000908152604090205460ff1681565b610457611420565b6000546001600160a01b039081169116146104a7576040805162461bcd60e51b81526020600482018190526024820152600080516020611612833981519152604482015290519081900360640190fd5b6001600160a01b0381166000908152600b602052604090206002015460ff16610508576040805162461bcd60e51b815260206004820152600e60248201526d14dd185d1d5cc81a5b9d985b1a5960921b604482015290519081900360640190fd5b6001600160a01b0381166000908152600b6020526040812081815560018101829055600201805460ff19169055805b600c548110156105c457826001600160a01b0316600c828154811061055857fe5b6000918252602090912001546001600160a01b0316146105bc5781600c828154811061058057fe5b60009182526020808320909101548354600181018555938352912090910180546001600160a01b0319166001600160a01b039092169190911790555b600101610537565b5080546105d590600c908390611565565b50604080516001600160a01b038416815242602082015281517f832955936d34e2ca89fb8b14dc4cd35d3b56be5a2667efac7e255897e0cd261f929181900390910190a15050565b610625611420565b6000546001600160a01b03908116911614610675576040805162461bcd60e51b81526020600482018190526024820152600080516020611612833981519152604482015290519081900360640190fd5b600080546040516001600160a01b03909116907f8be0079c531659141344cd1fd0a4f28419497f9722a3daafe3b4186f6b6457e0908390a3600080546001600160a01b0319169055565b6060600c80548060200260200160405190810160405280929190818152602001828054801561071757602002820191906000526020600020905b81546001600160a01b031681526001909101906020018083116106f9575b5050505050905090565b600061072b610730565b905090565b6000546001600160a01b031690565b6000600a5460ff16600181111561075257fe5b14610792576040805162461bcd60e51b815260206004820152600b60248201526a537461676520636c6f736560a81b604482015290519081900360640190fd5b6001600160a01b0383166000908152600b602052604090206002015460ff16610802576040805162461bcd60e51b815260206004820152601b60248201527f45786368616e67652070616972206973206e6f74206578697374210000000000604482015290519081900360640190fd5b604080516370a0823160e01b81523360048201529051849184916001600160a01b038416916370a08231916024808301926020929190829003018186803b15801561084c57600080fd5b505afa158015610860573d6000803e3d6000fd5b505050506040513d602081101561087657600080fd5b505110156108c0576040805162461bcd60e51b8152602060048201526012602482015271151bdad95b881a5b9cdd59999a58da595b9d60721b604482015290519081900360640190fd5b6001600160a01b0384166000908152600b60205260408120600181015490546108f491906108ee9087611424565b90611486565b60015433600090815260096020526040902054919250670de0b6b3a764000002908201111561096a576040805162461bcd60e51b815260206004820152601f60248201527f526571756573742044464920616d6f756e742069732065786365656465642100604482015290519081900360640190fd5b3360009081526009602090815260409182902080548401905560055482516370a0823160e01b8152306004820152925184936001600160a01b03909216926370a082319260248082019391829003018186803b1580156109c957600080fd5b505afa1580156109dd573d6000803e3d6000fd5b505050506040513d60208110156109f357600080fd5b50511015610a3b576040805162461bcd60e51b815260206004820152601060248201526f111196481a5b9cdd59999a58da595b9d60821b604482015290519081900360640190fd5b816001600160a01b03166323b872dd33610a53610730565b876040518463ffffffff1660e01b815260040180846001600160a01b03168152602001836001600160a01b031681526020018281526020019350505050602060405180830381600087803b158015610aaa57600080fd5b505af1158015610abe573d6000803e3d6000fd5b505050506040513d6020811015610ad457600080fd5b5051610b1d576040805162461bcd60e51b8152602060048201526013602482015272151bdad95b881d1c985b9cd9995c8819985a5b606a1b604482015290519081900360640190fd5b6005546040805163095ea7b360e01b81523360048201526024810184905290516001600160a01b039092169163095ea7b3916044808201926020929091908290030181600087803b158015610b7157600080fd5b505af1158015610b85573d6000803e3d6000fd5b505050506040513d6020811015610b9b57600080fd5b5051610be4576040805162461bcd60e51b815260206004820152601360248201527244465920617070726f7665206661696c65642160681b604482015290519081900360640190fd5b6005546040805163a9059cbb60e01b81523360048201526024810184905290516001600160a01b039092169163a9059cbb916044808201926020929091908290030181600087803b158015610c3857600080fd5b505af1158015610c4c573d6000803e3d6000fd5b505050506040513d6020811015610c6257600080fd5b5051610ca9576040805162461bcd60e51b8152602060048201526011602482015270111196481d1c985b9cd9995c8819985a5b607a1b604482015290519081900360640190fd5b60006001600160a01b03841615801590610ccc57506001600160a01b0384163314155b8015610cee5750336000908152600660205260409020546001600160a01b0316155b8015610d1657506003546001600160a01b03851660009081526008602052604090205460ff16105b15610d9c576000610d3760646108ee6002548661142490919063ffffffff16565b6004546001600160a01b038716600090815260076020526040902054919250670de0b6b3a76400000290820111610d7057809150610d9a565b6001600160a01b038516600090815260076020526040902054600454670de0b6b3a7640000020391505b505b8015610ff4576001600160a01b03808516600081815260076020908152604080832080548701905560088252808320805460ff8082166001011660ff199091161790553383526006825280832080546001600160a01b03191685179055600554815163095ea7b360e01b8152600481019590955260248501879052905194169363095ea7b393604480820194918390030190829087803b158015610e3f57600080fd5b505af1158015610e53573d6000803e3d6000fd5b505050506040513d6020811015610e6957600080fd5b5051610ebc576040805162461bcd60e51b815260206004820152601760248201527f44465920617070726f766520726566206661696c656421000000000000000000604482015290519081900360640190fd5b6005546040805163a9059cbb60e01b81526001600160a01b038781166004830152602482018590529151919092169163a9059cbb9160448083019260209291908290030181600087803b158015610f1257600080fd5b505af1158015610f26573d6000803e3d6000fd5b505050506040513d6020811015610f3c57600080fd5b5051610f8f576040805162461bcd60e51b815260206004820152601a60248201527f444659207472616e7366657220726566657272616c206661696c000000000000604482015290519081900360640190fd5b604080516001600160a01b038089168252336020830152818301889052606082018590528616608082015260a081018390524260c082015290517f01549ee63c4a665f871e9ab32dce0919fe2e5bda141dd9028340374bda00aca39181900360e00190a15b604080516001600160a01b03881681523360208201528082018790526060810184905260006080820181905260a08201524260c082015290517f01549ee63c4a665f871e9ab32dce0919fe2e5bda141dd9028340374bda00aca39181900360e00190a1505050505050565b6001600160a01b0381166000908152600b60205260409020805460018201546002909201549293909260ff1690565b600a5460ff1681565b600c81815481106110a757600080fd5b6000918252602090912001546001600160a01b0316905081565b6110c9611420565b6000546001600160a01b03908116911614611119576040805162461bcd60e51b81526020600482018190526024820152600080516020611612833981519152604482015290519081900360640190fd5b600a805482919060ff19166001838181111561113157fe5b021790555050565b611141611420565b6000546001600160a01b03908116911614611191576040805162461bcd60e51b81526020600482018190526024820152600080516020611612833981519152604482015290519081900360640190fd5b6001600160a01b0383166111dc576040805162461bcd60e51b815260206004820152600d60248201526c151bdad95b881a5b9d985b1a59609a1b604482015290519081900360640190fd5b6001600160a01b0383166000908152600b602052604090206002015460ff1661124b57600c80546001810182556000919091527fdf6966c971051c3d54ec59162606531493a51404a002842f56009d7e5cf4a8c70180546001600160a01b0319166001600160a01b0385161790555b6040805160608082018352848252602080830185815260018486018181526001600160a01b038a166000818152600b865288902096518755925191860191909155516002909401805460ff19169415159490941790935583519283528201849052818301859052429082015290517f936558683d5bab97da9ea02e8befc40ba2e5db45e5f4267e62d16b7ef5a0a307916080908290030190a1505050565b600b6020526000908152604090208054600182015460029092015490919060ff1683565b611315611420565b6000546001600160a01b03908116911614611365576040805162461bcd60e51b81526020600482018190526024820152600080516020611612833981519152604482015290519081900360640190fd5b6001600160a01b0381166113aa5760405162461bcd60e51b81526004018080602001828103825260268152602001806115cb6026913960400191505060405180910390fd5b600080546040516001600160a01b03808516939216917f8be0079c531659141344cd1fd0a4f28419497f9722a3daafe3b4186f6b6457e091a3600080546001600160a01b0319166001600160a01b0392909216919091179055565b6006602052600090815260409020546001600160a01b031681565b3390565b60008261143357506000611480565b8282028284828161144057fe5b041461147d5760405162461bcd60e51b81526004018080602001828103825260218152602001806115f16021913960400191505060405180910390fd5b90505b92915050565b600061147d83836040518060400160405280601a81526020017f536166654d6174683a206469766973696f6e206279207a65726f0000000000008152506000818361154f5760405162461bcd60e51b81526004018080602001828103825283818151815260200191508051906020019080838360005b838110156115145781810151838201526020016114fc565b50505050905090810190601f1680156115415780820380516001836020036101000a031916815260200191505b509250505060405180910390fd5b50600083858161155b57fe5b0495945050505050565b8280548282559060005260206000209081019282156115a55760005260206000209182015b828111156115a557825482559160010191906001019061158a565b506115b19291506115b5565b5090565b5b808211156115b157600081556001016115b656fe4f776e61626c653a206e6577206f776e657220697320746865207a65726f2061646472657373536166654d6174683a206d756c7469706c69636174696f6e206f766572666c6f774f776e61626c653a2063616c6c6572206973206e6f7420746865206f776e6572a264697066735822122018f96913bc93b7ddbefae9ff6edeb2198416c22a4061995efb448438a365beb764736f6c63430007060033",
  "immutableReferences": {},
  "source": "// SPDX-License-Identifier: MIT\npragma solidity >=0.4.22 <0.9.0;\n\nimport \"@openzeppelin/contracts/math/SafeMath.sol\";\nimport \"@openzeppelin/contracts/access/Ownable.sol\";\nimport \"@openzeppelin/contracts/token/ERC20/IERC20.sol\";\n\ncontract IdoDFY is Ownable {\n    constructor(\n        address _DFYToken,\n        uint256 _buyMaximum,\n        uint256 _maxPersonRef,\n        uint256 _maxRewardFromRef,\n        uint256 _refRewardPercent\n    ) public {\n        DFYToken = IERC20(address(_DFYToken));\n        stage = Stage.Pause;\n        buyMaximum = _buyMaximum;\n        maxPersonRef = _maxPersonRef;\n        maxRewardFromRef = _maxRewardFromRef;\n        refRewardPercent = _refRewardPercent;\n    }\n\n    uint256 buyMaximum;\n    uint256 refRewardPercent;\n    uint256 maxPersonRef;\n    uint256 maxRewardFromRef;\n\n    using SafeMath for uint256;\n    IERC20 private DFYToken;\n\n    struct ExchangePair {\n        uint256 output;\n        uint256 input;\n        bool status;\n    }\n\n    mapping(address => address) public beReferred;\n    mapping(address => uint256) public referralRewardTotal;\n    mapping(address => uint8) public referralUserTotal;\n\n    mapping(address => uint256) public boughtAmountTotals;\n\n    enum Stage {Unpause, Pause}\n\n    Stage public stage;\n\n    modifier requireOpen {\n        require(stage == Stage.Unpause, \"Stage close\");\n        _;\n    }\n\n    mapping(address => ExchangePair) public exchangePairs;\n    address[] public supportedTokens;\n\n    event UpdateExchangePair(\n        address token,\n        uint256 input,\n        uint256 output,\n        uint256 time\n    );\n\n    function setStage(Stage _stage) public onlyOwner{\n        stage=_stage;\n    }\n\n    function updateExchangePair(\n        address token,\n        uint256 output,\n        uint256 input\n    ) public onlyOwner {\n        require(token != address(0), \"Token invalid\");\n        if (!exchangePairs[token].status) {\n            supportedTokens.push(token);\n        }\n        exchangePairs[token] = ExchangePair(output, input, true);\n        emit UpdateExchangePair(token, input, output, block.timestamp);\n    }\n\n    event DeleteExchangePair(address token, uint256 time);\n\n    function deleteExchangePair(address token) public onlyOwner {\n        require(exchangePairs[token].status, \"Status invalid\");\n        delete exchangePairs[token];\n\n        address[] storage addressTokens;\n\n        for (uint i = 0; i < supportedTokens.length; i++) {\n            if(supportedTokens[i] != token) {\n                addressTokens.push(supportedTokens[i]);\n            }\n        }\n        supportedTokens = addressTokens;\n\n        emit DeleteExchangePair(token, block.timestamp);\n    }\n\n    function getOwner() external view returns (address) {\n        return owner();\n    }\n\n    event BuyIDO(\n        address token,\n        address user,\n        uint256 amount,\n        uint256 dfyAmount,\n        address referral,\n        uint256 referralAmount,\n        uint256 time\n    );\n\n    function buyIdo(\n        address token,\n        uint256 amount,\n        address referral\n    ) external requireOpen {\n        require(exchangePairs[token].status, \"Exchange pair is not exist!\");\n\n        IERC20 transferToken = IERC20(token);\n\n        require(\n            transferToken.balanceOf(msg.sender) >= amount,\n            \"Token insufficient\"\n        );\n\n        uint256 outputDFYAmount =\n        (exchangePairs[token].output.mul(amount)).div(\n            exchangePairs[token].input\n        );\n\n        require(\n            boughtAmountTotals[msg.sender] + outputDFYAmount <= buyMaximum*(10 ** 18),\n            \"Request DFI amount is exceeded!\"\n        );\n\n        boughtAmountTotals[msg.sender] += outputDFYAmount;\n\n        require(\n            DFYToken.balanceOf(address(this)) >= outputDFYAmount,\n            \"DFY insufficient\"\n        );\n\n        require(\n            transferToken.transferFrom(msg.sender, owner(), amount),\n            \"Token transfer fail\"\n        );\n\n        require(\n            DFYToken.approve(msg.sender, outputDFYAmount),\n            \"DFY approve failed!\"\n        );\n\n        require(\n            DFYToken.transfer(msg.sender, outputDFYAmount),\n            \"DFY transfer fail\"\n        );\n\n        uint256 referralReceiveAmount = 0;\n        if (referral != address(0)\n        && referral != msg.sender\n        && beReferred[msg.sender] == address(0)\n        && referralUserTotal[referral] < maxPersonRef) {\n            uint256 expectedReferralReceiveAmount = (outputDFYAmount.mul(refRewardPercent)).div(\n                100\n            );\n\n            if(referralRewardTotal[referral] + expectedReferralReceiveAmount <= maxRewardFromRef*(10 ** 18)) {\n                referralReceiveAmount = expectedReferralReceiveAmount;\n            } else {\n                referralReceiveAmount = maxRewardFromRef*(10 ** 18) - referralRewardTotal[referral];\n            }\n\n        }\n\n        if (referralReceiveAmount > 0) {\n\n            referralRewardTotal[referral] += referralReceiveAmount;\n            referralUserTotal[referral] += 1;\n\n            beReferred[msg.sender] = referral;\n\n            require(\n                DFYToken.approve(referral, referralReceiveAmount),\n                \"DFY approve ref failed!\"\n            );\n\n            require(\n                DFYToken.transfer(referral, referralReceiveAmount),\n                \"DFY transfer referral fail\"\n            );\n            emit BuyIDO(\n                token,\n                msg.sender,\n                amount,\n                outputDFYAmount,\n                referral,\n                referralReceiveAmount,\n                block.timestamp\n            );\n        }\n        emit BuyIDO(\n            token,\n            msg.sender,\n            amount,\n            outputDFYAmount,\n            address(0),\n            0,\n            block.timestamp\n        );\n    }\n\n    function getTokenSupport() public view returns (address[] memory) {\n        return supportedTokens;\n    }\n\n    function getExchangePair(address _tokenAddress) public view returns (address tokenAddress, uint256 output, uint256 input, bool status) {\n        return (_tokenAddress, exchangePairs[_tokenAddress].output, exchangePairs[_tokenAddress].input, exchangePairs[_tokenAddress].status);\n    }\n}\n",
  "sourcePath": "/home/ylgr/Edsolabs/defi-smartcontract/contracts/IdoDFY.sol",
  "compiler": {
    "name": "solc",
    "version": "0.7.6+commit.7338295f.Emscripten.clang"
  },
  "schemaVersion": "3.3.3",
  "updatedAt": "2021-01-07T10:27:56.856Z",
  "devdoc": {
    "kind": "dev",
    "methods": {
      "owner()": {
        "details": "Returns the address of the current owner."
      },
      "renounceOwnership()": {
        "details": "Leaves the contract without owner. It will not be possible to call `onlyOwner` functions anymore. Can only be called by the current owner. NOTE: Renouncing ownership will leave the contract without an owner, thereby removing any functionality that is only available to the owner."
      },
      "transferOwnership(address)": {
        "details": "Transfers ownership of the contract to a new account (`newOwner`). Can only be called by the current owner."
      }
    },
    "version": 1
  },
  "userdoc": {
    "kind": "user",
    "methods": {},
    "version": 1
  }
}