{
  "contractName": "IdoDFY",
  "abi": [
    {
      "inputs": [
        {
          "internalType": "address",
          "name": "_DFYToken",
          "type": "address"
        },
        {
          "internalType": "uint256",
          "name": "_buyMaximum",
          "type": "uint256"
        },
        {
          "internalType": "uint256",
          "name": "_maxPersonRef",
          "type": "uint256"
        },
        {
          "internalType": "uint256",
          "name": "_maxRewardFromRef",
          "type": "uint256"
        },
        {
          "internalType": "uint256",
          "name": "_refRewardPercent",
          "type": "uint256"
        },
        {
          "internalType": "uint256",
          "name": "_start",
          "type": "uint256"
        },
        {
          "internalType": "uint256",
          "name": "_end",
          "type": "uint256"
        }
      ],
      "stateMutability": "nonpayable",
      "type": "constructor"
    },
    {
      "anonymous": false,
      "inputs": [
        {
          "indexed": false,
          "internalType": "address",
          "name": "token",
          "type": "address"
        },
        {
          "indexed": false,
          "internalType": "address",
          "name": "user",
          "type": "address"
        },
        {
          "indexed": false,
          "internalType": "uint256",
          "name": "amount",
          "type": "uint256"
        },
        {
          "indexed": false,
          "internalType": "uint256",
          "name": "dfyAmount",
          "type": "uint256"
        },
        {
          "indexed": false,
          "internalType": "address",
          "name": "referral",
          "type": "address"
        },
        {
          "indexed": false,
          "internalType": "uint256",
          "name": "referralAmount",
          "type": "uint256"
        },
        {
          "indexed": false,
          "internalType": "uint256",
          "name": "time",
          "type": "uint256"
        }
      ],
      "name": "BuyIDO",
      "type": "event"
    },
    {
      "anonymous": false,
      "inputs": [
        {
          "indexed": false,
          "internalType": "address",
          "name": "token",
          "type": "address"
        },
        {
          "indexed": false,
          "internalType": "uint256",
          "name": "time",
          "type": "uint256"
        }
      ],
      "name": "DeleteExchangePair",
      "type": "event"
    },
    {
      "anonymous": false,
      "inputs": [
        {
          "indexed": true,
          "internalType": "address",
          "name": "previousOwner",
          "type": "address"
        },
        {
          "indexed": true,
          "internalType": "address",
          "name": "newOwner",
          "type": "address"
        }
      ],
      "name": "OwnershipTransferred",
      "type": "event"
    },
    {
      "anonymous": false,
      "inputs": [
        {
          "indexed": false,
          "internalType": "address",
          "name": "token",
          "type": "address"
        },
        {
          "indexed": false,
          "internalType": "uint256",
          "name": "input",
          "type": "uint256"
        },
        {
          "indexed": false,
          "internalType": "uint256",
          "name": "output",
          "type": "uint256"
        },
        {
          "indexed": false,
          "internalType": "uint256",
          "name": "time",
          "type": "uint256"
        }
      ],
      "name": "UpdateExchangePair",
      "type": "event"
    },
    {
      "anonymous": false,
      "inputs": [
        {
          "indexed": false,
          "internalType": "address",
          "name": "token",
          "type": "address"
        },
        {
          "indexed": false,
          "internalType": "uint256",
          "name": "amount",
          "type": "uint256"
        },
        {
          "indexed": false,
          "internalType": "address",
          "name": "receiveAddress",
          "type": "address"
        }
      ],
      "name": "WithdrawnToken",
      "type": "event"
    },
    {
      "inputs": [
        {
          "internalType": "address",
          "name": "",
          "type": "address"
        }
      ],
      "name": "beReferred",
      "outputs": [
        {
          "internalType": "address",
          "name": "",
          "type": "address"
        }
      ],
      "stateMutability": "view",
      "type": "function"
    },
    {
      "inputs": [
        {
          "internalType": "address",
          "name": "",
          "type": "address"
        }
      ],
      "name": "boughtAmountTotals",
      "outputs": [
        {
          "internalType": "uint256",
          "name": "",
          "type": "uint256"
        }
      ],
      "stateMutability": "view",
      "type": "function"
    },
    {
      "inputs": [],
      "name": "buyMaximum",
      "outputs": [
        {
          "internalType": "uint256",
          "name": "",
          "type": "uint256"
        }
      ],
      "stateMutability": "view",
      "type": "function"
    },
    {
      "inputs": [],
      "name": "end",
      "outputs": [
        {
          "internalType": "uint256",
          "name": "",
          "type": "uint256"
        }
      ],
      "stateMutability": "view",
      "type": "function"
    },
    {
      "inputs": [
        {
          "internalType": "address",
          "name": "",
          "type": "address"
        }
      ],
      "name": "exchangePairs",
      "outputs": [
        {
          "internalType": "uint256",
          "name": "output",
          "type": "uint256"
        },
        {
          "internalType": "uint256",
          "name": "input",
          "type": "uint256"
        },
        {
          "internalType": "bool",
          "name": "status",
          "type": "bool"
        }
      ],
      "stateMutability": "view",
      "type": "function"
    },
    {
      "inputs": [],
      "name": "maxPersonRef",
      "outputs": [
        {
          "internalType": "uint256",
          "name": "",
          "type": "uint256"
        }
      ],
      "stateMutability": "view",
      "type": "function"
    },
    {
      "inputs": [],
      "name": "maxRewardFromRef",
      "outputs": [
        {
          "internalType": "uint256",
          "name": "",
          "type": "uint256"
        }
      ],
      "stateMutability": "view",
      "type": "function"
    },
    {
      "inputs": [],
      "name": "owner",
      "outputs": [
        {
          "internalType": "address",
          "name": "",
          "type": "address"
        }
      ],
      "stateMutability": "view",
      "type": "function"
    },
    {
      "inputs": [],
      "name": "refRewardPercent",
      "outputs": [
        {
          "internalType": "uint256",
          "name": "",
          "type": "uint256"
        }
      ],
      "stateMutability": "view",
      "type": "function"
    },
    {
      "inputs": [
        {
          "internalType": "address",
          "name": "",
          "type": "address"
        }
      ],
      "name": "referralRewardTotal",
      "outputs": [
        {
          "internalType": "uint256",
          "name": "",
          "type": "uint256"
        }
      ],
      "stateMutability": "view",
      "type": "function"
    },
    {
      "inputs": [
        {
          "internalType": "address",
          "name": "",
          "type": "address"
        }
      ],
      "name": "referralUserTotal",
      "outputs": [
        {
          "internalType": "uint8",
          "name": "",
          "type": "uint8"
        }
      ],
      "stateMutability": "view",
      "type": "function"
    },
    {
      "inputs": [],
      "name": "renounceOwnership",
      "outputs": [],
      "stateMutability": "nonpayable",
      "type": "function"
    },
    {
      "inputs": [],
      "name": "stage",
      "outputs": [
        {
          "internalType": "enum IdoDFY.Stage",
          "name": "",
          "type": "uint8"
        }
      ],
      "stateMutability": "view",
      "type": "function"
    },
    {
      "inputs": [],
      "name": "start",
      "outputs": [
        {
          "internalType": "uint256",
          "name": "",
          "type": "uint256"
        }
      ],
      "stateMutability": "view",
      "type": "function"
    },
    {
      "inputs": [
        {
          "internalType": "uint256",
          "name": "",
          "type": "uint256"
        }
      ],
      "name": "supportedTokens",
      "outputs": [
        {
          "internalType": "address",
          "name": "",
          "type": "address"
        }
      ],
      "stateMutability": "view",
      "type": "function"
    },
    {
      "inputs": [
        {
          "internalType": "address",
          "name": "newOwner",
          "type": "address"
        }
      ],
      "name": "transferOwnership",
      "outputs": [],
      "stateMutability": "nonpayable",
      "type": "function"
    },
    {
      "inputs": [
        {
          "internalType": "enum IdoDFY.Stage",
          "name": "_stage",
          "type": "uint8"
        }
      ],
      "name": "setStage",
      "outputs": [],
      "stateMutability": "nonpayable",
      "type": "function"
    },
    {
      "inputs": [
        {
          "internalType": "address",
          "name": "token",
          "type": "address"
        },
        {
          "internalType": "uint256",
          "name": "output",
          "type": "uint256"
        },
        {
          "internalType": "uint256",
          "name": "input",
          "type": "uint256"
        }
      ],
      "name": "updateExchangePair",
      "outputs": [],
      "stateMutability": "nonpayable",
      "type": "function"
    },
    {
      "inputs": [
        {
          "internalType": "address",
          "name": "token",
          "type": "address"
        }
      ],
      "name": "deleteExchangePair",
      "outputs": [],
      "stateMutability": "nonpayable",
      "type": "function"
    },
    {
      "inputs": [],
      "name": "getOwner",
      "outputs": [
        {
          "internalType": "address",
          "name": "",
          "type": "address"
        }
      ],
      "stateMutability": "view",
      "type": "function"
    },
    {
      "inputs": [
        {
          "internalType": "address",
          "name": "token",
          "type": "address"
        },
        {
          "internalType": "uint256",
          "name": "amount",
          "type": "uint256"
        },
        {
          "internalType": "address",
          "name": "referral",
          "type": "address"
        }
      ],
      "name": "buyIdo",
      "outputs": [],
      "stateMutability": "nonpayable",
      "type": "function"
    },
    {
      "inputs": [],
      "name": "getTokenSupport",
      "outputs": [
        {
          "internalType": "address[]",
          "name": "",
          "type": "address[]"
        }
      ],
      "stateMutability": "view",
      "type": "function"
    },
    {
      "inputs": [
        {
          "internalType": "address",
          "name": "_tokenAddress",
          "type": "address"
        }
      ],
      "name": "getExchangePair",
      "outputs": [
        {
          "internalType": "address",
          "name": "tokenAddress",
          "type": "address"
        },
        {
          "internalType": "uint256",
          "name": "output",
          "type": "uint256"
        },
        {
          "internalType": "uint256",
          "name": "input",
          "type": "uint256"
        },
        {
          "internalType": "bool",
          "name": "status",
          "type": "bool"
        }
      ],
      "stateMutability": "view",
      "type": "function"
    },
    {
      "inputs": [
        {
          "internalType": "address",
          "name": "_tokenAddress",
          "type": "address"
        },
        {
          "internalType": "uint256",
          "name": "amount",
          "type": "uint256"
        }
      ],
      "name": "withdrawnToken",
      "outputs": [],
      "stateMutability": "nonpayable",
      "type": "function"
    }
  ],
  "bytecode": "0x608060405234801561001057600080fd5b50604051611bf8380380611bf8833981810160405260e081101561003357600080fd5b508051602082015160408301516060840151608085015160a086015160c0909601519495939492939192909190600061006a6100fc565b600080546001600160a01b0319166001600160a01b0383169081178255604051929350917f8be0079c531659141344cd1fd0a4f28419497f9722a3daafe3b4186f6b6457e0908290a350600780546001600160a01b0319166001600160a01b039890981697909717909655600c805460ff19169055600194909455600392909255600455600255600555600655610100565b3390565b611ae98061010f6000396000f3fe608060405234801561001057600080fd5b50600436106101585760003560e01c8063b58fbfa0116100c3578063da51ad891161007c578063da51ad89146103eb578063e18610131461041d578063e5c85a6a14610425578063efbe1c1c1461046b578063f2fde38b14610473578063f8546ba71461049957610158565b8063b58fbfa01461031d578063be9a655514610375578063c040e6b81461037d578063c6255626146103a6578063ce3cd997146103c3578063d434d39f146103e357610158565b8063756248a311610115578063756248a31461022f57806383d899fc1461025b578063893d20e8146102b35780638da5cb5b146102d75780639ccc9dcb146102df578063ae579336146102e757610158565b80630f9250961461015d578063217bc6961461019557806347825acd146101bb57806356bd5e10146101f75780635bcdd5f01461021f578063715018a614610227575b600080fd5b6101836004803603602081101561017357600080fd5b50356001600160a01b03166104bf565b60408051918252519081900360200190f35b610183600480360360208110156101ab57600080fd5b50356001600160a01b03166104d1565b6101e1600480360360208110156101d157600080fd5b50356001600160a01b03166104e3565b6040805160ff9092168252519081900360200190f35b61021d6004803603602081101561020d57600080fd5b50356001600160a01b03166104f8565b005b6101836106c6565b61021d6106cc565b61021d6004803603604081101561024557600080fd5b506001600160a01b03813516906020013561076e565b610263610a82565b60408051602080825283518183015283519192839290830191858101910280838360005b8381101561029f578181015183820152602001610287565b505050509050019250505060405180910390f35b6102bb610ae4565b604080516001600160a01b039092168252519081900360200190f35b6102bb610af3565b610183610b02565b61021d600480360360608110156102fd57600080fd5b506001600160a01b03813581169160208101359160409091013516610b08565b6103436004803603602081101561033357600080fd5b50356001600160a01b03166114c9565b604080516001600160a01b03909516855260208501939093528383019190915215156060830152519081900360800190f35b6101836114f8565b6103856114fe565b6040518082600181111561039557fe5b815260200191505060405180910390f35b6102bb600480360360208110156103bc57600080fd5b5035611507565b61021d600480360360208110156103d957600080fd5b503560ff16611531565b6101836115a9565b61021d6004803603606081101561040157600080fd5b506001600160a01b0381351690602081013590604001356115af565b61018361175f565b61044b6004803603602081101561043b57600080fd5b50356001600160a01b0316611765565b604080519384526020840192909252151582820152519081900360600190f35b610183611789565b61021d6004803603602081101561048957600080fd5b50356001600160a01b031661178f565b6102bb600480360360208110156104af57600080fd5b50356001600160a01b0316611887565b600b6020526000908152604090205481565b60096020526000908152604090205481565b600a6020526000908152604090205460ff1681565b6105006118a2565b6000546001600160a01b03908116911614610550576040805162461bcd60e51b81526020600482018190526024820152600080516020611a94833981519152604482015290519081900360640190fd5b6001600160a01b0381166000908152600d602052604090206002015460ff166105b1576040805162461bcd60e51b815260206004820152600e60248201526d14dd185d1d5cc81a5b9d985b1a5960921b604482015290519081900360640190fd5b6001600160a01b0381166000908152600d6020526040812081815560018101829055600201805460ff19169055805b600e5481101561066d57826001600160a01b0316600e828154811061060157fe5b6000918252602090912001546001600160a01b0316146106655781600e828154811061062957fe5b60009182526020808320909101548354600181018555938352912090910180546001600160a01b0319166001600160a01b039092169190911790555b6001016105e0565b50805461067e90600e9083906119e7565b50604080516001600160a01b038416815242602082015281517f832955936d34e2ca89fb8b14dc4cd35d3b56be5a2667efac7e255897e0cd261f929181900390910190a15050565b60025481565b6106d46118a2565b6000546001600160a01b03908116911614610724576040805162461bcd60e51b81526020600482018190526024820152600080516020611a94833981519152604482015290519081900360640190fd5b600080546040516001600160a01b03909116907f8be0079c531659141344cd1fd0a4f28419497f9722a3daafe3b4186f6b6457e0908390a3600080546001600160a01b0319169055565b6107766118a2565b6000546001600160a01b039081169116146107c6576040805162461bcd60e51b81526020600482018190526024820152600080516020611a94833981519152604482015290519081900360640190fd5b604080516370a0823160e01b81523060048201529051839183916001600160a01b038416916370a08231916024808301926020929190829003018186803b15801561081057600080fd5b505afa158015610824573d6000803e3d6000fd5b505050506040513d602081101561083a57600080fd5b50511015610884576040805162461bcd60e51b8152602060048201526012602482015271151bdad95b881a5b9cdd59999a58da595b9d60721b604482015290519081900360640190fd5b806001600160a01b031663095ea7b361089b610af3565b846040518363ffffffff1660e01b815260040180836001600160a01b0316815260200182815260200192505050602060405180830381600087803b1580156108e257600080fd5b505af11580156108f6573d6000803e3d6000fd5b505050506040513d602081101561090c57600080fd5b5051610957576040805162461bcd60e51b8152602060048201526015602482015274546f6b656e20617070726f7665206661696c65642160581b604482015290519081900360640190fd5b806001600160a01b031663a9059cbb61096e610af3565b846040518363ffffffff1660e01b815260040180836001600160a01b0316815260200182815260200192505050602060405180830381600087803b1580156109b557600080fd5b505af11580156109c9573d6000803e3d6000fd5b505050506040513d60208110156109df57600080fd5b5051610a28576040805162461bcd60e51b8152602060048201526013602482015272151bdad95b881d1c985b9cd9995c8819985a5b606a1b604482015290519081900360640190fd5b7fae9c2628a61b3c3fc7cdc3a52b9ae48c828b5fe544ebf779dfa0a2743478650c8383610a53610af3565b604080516001600160a01b039485168152602081019390935292168183015290519081900360600190a1505050565b6060600e805480602002602001604051908101604052809291908181526020018280548015610ada57602002820191906000526020600020905b81546001600160a01b03168152600190910190602001808311610abc575b5050505050905090565b6000610aee610af3565b905090565b6000546001600160a01b031690565b60035481565b6000600c5460ff166001811115610b1b57fe5b14610b5b576040805162461bcd60e51b815260206004820152600b60248201526a537461676520636c6f736560a81b604482015290519081900360640190fd5b600554421015610bb2576040805162461bcd60e51b815260206004820152601760248201527f49444f2074696d65206973206e6f742073746172746564000000000000000000604482015290519081900360640190fd5b600654421115610bfc576040805162461bcd60e51b815260206004820152601060248201526f125113c81d1a5b59481dd85cc8195b9960821b604482015290519081900360640190fd5b6001600160a01b0383166000908152600d602052604090206002015460ff16610c6c576040805162461bcd60e51b815260206004820152601b60248201527f45786368616e67652070616972206973206e6f74206578697374210000000000604482015290519081900360640190fd5b604080516370a0823160e01b81523360048201529051849184916001600160a01b038416916370a08231916024808301926020929190829003018186803b158015610cb657600080fd5b505afa158015610cca573d6000803e3d6000fd5b505050506040513d6020811015610ce057600080fd5b50511015610d2a576040805162461bcd60e51b8152602060048201526012602482015271151bdad95b881a5b9cdd59999a58da595b9d60721b604482015290519081900360640190fd5b6001600160a01b0384166000908152600d6020526040812060018101549054610d5e9190610d5890876118a6565b90611908565b600154336000908152600b6020526040902054919250670de0b6b3a7640000029082011115610dd4576040805162461bcd60e51b815260206004820152601f60248201527f526571756573742044464920616d6f756e742069732065786365656465642100604482015290519081900360640190fd5b336000908152600b602090815260409182902080548401905560075482516370a0823160e01b8152306004820152925184936001600160a01b03909216926370a082319260248082019391829003018186803b158015610e3357600080fd5b505afa158015610e47573d6000803e3d6000fd5b505050506040513d6020811015610e5d57600080fd5b50511015610ea5576040805162461bcd60e51b815260206004820152601060248201526f111196481a5b9cdd59999a58da595b9d60821b604482015290519081900360640190fd5b816001600160a01b03166323b872dd33610ebd610af3565b876040518463ffffffff1660e01b815260040180846001600160a01b03168152602001836001600160a01b031681526020018281526020019350505050602060405180830381600087803b158015610f1457600080fd5b505af1158015610f28573d6000803e3d6000fd5b505050506040513d6020811015610f3e57600080fd5b5051610f87576040805162461bcd60e51b8152602060048201526013602482015272151bdad95b881d1c985b9cd9995c8819985a5b606a1b604482015290519081900360640190fd5b6007546040805163095ea7b360e01b81523360048201526024810184905290516001600160a01b039092169163095ea7b3916044808201926020929091908290030181600087803b158015610fdb57600080fd5b505af1158015610fef573d6000803e3d6000fd5b505050506040513d602081101561100557600080fd5b505161104e576040805162461bcd60e51b815260206004820152601360248201527244465920617070726f7665206661696c65642160681b604482015290519081900360640190fd5b6007546040805163a9059cbb60e01b81523360048201526024810184905290516001600160a01b039092169163a9059cbb916044808201926020929091908290030181600087803b1580156110a257600080fd5b505af11580156110b6573d6000803e3d6000fd5b505050506040513d60208110156110cc57600080fd5b5051611113576040805162461bcd60e51b8152602060048201526011602482015270111196481d1c985b9cd9995c8819985a5b607a1b604482015290519081900360640190fd5b60006001600160a01b0384161580159061113657506001600160a01b0384163314155b80156111585750336000908152600860205260409020546001600160a01b0316155b801561118057506003546001600160a01b0385166000908152600a602052604090205460ff16105b156112065760006111a16064610d58600254866118a690919063ffffffff16565b6004546001600160a01b038716600090815260096020526040902054919250670de0b6b3a764000002908201116111da57809150611204565b6001600160a01b038516600090815260096020526040902054600454670de0b6b3a7640000020391505b505b801561145e576001600160a01b038085166000818152600960209081526040808320805487019055600a8252808320805460ff8082166001011660ff199091161790553383526008825280832080546001600160a01b03191685179055600754815163095ea7b360e01b8152600481019590955260248501879052905194169363095ea7b393604480820194918390030190829087803b1580156112a957600080fd5b505af11580156112bd573d6000803e3d6000fd5b505050506040513d60208110156112d357600080fd5b5051611326576040805162461bcd60e51b815260206004820152601760248201527f44465920617070726f766520726566206661696c656421000000000000000000604482015290519081900360640190fd5b6007546040805163a9059cbb60e01b81526001600160a01b038781166004830152602482018590529151919092169163a9059cbb9160448083019260209291908290030181600087803b15801561137c57600080fd5b505af1158015611390573d6000803e3d6000fd5b505050506040513d60208110156113a657600080fd5b50516113f9576040805162461bcd60e51b815260206004820152601a60248201527f444659207472616e7366657220726566657272616c206661696c000000000000604482015290519081900360640190fd5b604080516001600160a01b038089168252336020830152818301889052606082018590528616608082015260a081018390524260c082015290517f01549ee63c4a665f871e9ab32dce0919fe2e5bda141dd9028340374bda00aca39181900360e00190a15b604080516001600160a01b03881681523360208201528082018790526060810184905260006080820181905260a08201524260c082015290517f01549ee63c4a665f871e9ab32dce0919fe2e5bda141dd9028340374bda00aca39181900360e00190a1505050505050565b6001600160a01b0381166000908152600d60205260409020805460018201546002909201549293909260ff1690565b60055481565b600c5460ff1681565b600e818154811061151757600080fd5b6000918252602090912001546001600160a01b0316905081565b6115396118a2565b6000546001600160a01b03908116911614611589576040805162461bcd60e51b81526020600482018190526024820152600080516020611a94833981519152604482015290519081900360640190fd5b600c805482919060ff1916600183818111156115a157fe5b021790555050565b60045481565b6115b76118a2565b6000546001600160a01b03908116911614611607576040805162461bcd60e51b81526020600482018190526024820152600080516020611a94833981519152604482015290519081900360640190fd5b6001600160a01b038316611652576040805162461bcd60e51b815260206004820152600d60248201526c151bdad95b881a5b9d985b1a59609a1b604482015290519081900360640190fd5b6001600160a01b0383166000908152600d602052604090206002015460ff166116c157600e80546001810182556000919091527fbb7b4a454dc3493923482f07822329ed19e8244eff582cc204f8554c3620c3fd0180546001600160a01b0319166001600160a01b0385161790555b6040805160608082018352848252602080830185815260018486018181526001600160a01b038a166000818152600d865288902096518755925191860191909155516002909401805460ff19169415159490941790935583519283528201849052818301859052429082015290517f936558683d5bab97da9ea02e8befc40ba2e5db45e5f4267e62d16b7ef5a0a307916080908290030190a1505050565b60015481565b600d6020526000908152604090208054600182015460029092015490919060ff1683565b60065481565b6117976118a2565b6000546001600160a01b039081169116146117e7576040805162461bcd60e51b81526020600482018190526024820152600080516020611a94833981519152604482015290519081900360640190fd5b6001600160a01b03811661182c5760405162461bcd60e51b8152600401808060200182810382526026815260200180611a4d6026913960400191505060405180910390fd5b600080546040516001600160a01b03808516939216917f8be0079c531659141344cd1fd0a4f28419497f9722a3daafe3b4186f6b6457e091a3600080546001600160a01b0319166001600160a01b0392909216919091179055565b6008602052600090815260409020546001600160a01b031681565b3390565b6000826118b557506000611902565b828202828482816118c257fe5b04146118ff5760405162461bcd60e51b8152600401808060200182810382526021815260200180611a736021913960400191505060405180910390fd5b90505b92915050565b60006118ff83836040518060400160405280601a81526020017f536166654d6174683a206469766973696f6e206279207a65726f000000000000815250600081836119d15760405162461bcd60e51b81526004018080602001828103825283818151815260200191508051906020019080838360005b8381101561199657818101518382015260200161197e565b50505050905090810190601f1680156119c35780820380516001836020036101000a031916815260200191505b509250505060405180910390fd5b5060008385816119dd57fe5b0495945050505050565b828054828255906000526020600020908101928215611a275760005260206000209182015b82811115611a27578254825591600101919060010190611a0c565b50611a33929150611a37565b5090565b5b80821115611a335760008155600101611a3856fe4f776e61626c653a206e6577206f776e657220697320746865207a65726f2061646472657373536166654d6174683a206d756c7469706c69636174696f6e206f766572666c6f774f776e61626c653a2063616c6c6572206973206e6f7420746865206f776e6572a264697066735822122058987795524f7f19bb6e0f83373ffc20ebb32adc4371d8749ca134317abeee1c64736f6c63430007060033",
  "immutableReferences": {},
  "source": "// SPDX-License-Identifier: MIT\npragma solidity >=0.4.22 <0.9.0;\n\nimport \"@openzeppelin/contracts/math/SafeMath.sol\";\nimport \"@openzeppelin/contracts/access/Ownable.sol\";\nimport \"@openzeppelin/contracts/token/ERC20/IERC20.sol\";\n\ncontract IdoDFY is Ownable {\n    constructor(\n        address _DFYToken,\n        uint256 _buyMaximum,\n        uint256 _maxPersonRef,\n        uint256 _maxRewardFromRef,\n        uint256 _refRewardPercent,\n        uint _start,\n        uint _end\n    ) public {\n        DFYToken = IERC20(address(_DFYToken));\n        stage = Stage.Unpause;\n        buyMaximum = _buyMaximum;\n        maxPersonRef = _maxPersonRef;\n        maxRewardFromRef = _maxRewardFromRef;\n        refRewardPercent = _refRewardPercent;\n        start = _start;\n        end = _end;\n    }\n\n    uint256 public buyMaximum;\n    uint256 public refRewardPercent;\n    uint256 public maxPersonRef;\n    uint256 public maxRewardFromRef;\n    uint public start;\n    uint public end;\n\n    using SafeMath for uint256;\n    IERC20 private DFYToken;\n\n    struct ExchangePair {\n        uint256 output;\n        uint256 input;\n        bool status;\n    }\n\n    mapping(address => address) public beReferred;\n    mapping(address => uint256) public referralRewardTotal;\n    mapping(address => uint8) public referralUserTotal;\n\n    mapping(address => uint256) public boughtAmountTotals;\n\n    enum Stage {Unpause, Pause}\n\n    Stage public stage;\n\n    modifier requireOpen {\n        require(stage == Stage.Unpause, \"Stage close\");\n        require(block.timestamp >= start, \"IDO time is not started\");\n        require(block.timestamp <= end, \"IDO time was end\");\n        _;\n    }\n\n    mapping(address => ExchangePair) public exchangePairs;\n    address[] public supportedTokens;\n\n    event UpdateExchangePair(\n        address token,\n        uint256 input,\n        uint256 output,\n        uint256 time\n    );\n\n    function setStage(Stage _stage) public onlyOwner{\n        stage = _stage;\n    }\n\n    function updateExchangePair(\n        address token,\n        uint256 output,\n        uint256 input\n    ) public onlyOwner {\n        require(token != address(0), \"Token invalid\");\n        if (!exchangePairs[token].status) {\n            supportedTokens.push(token);\n        }\n        exchangePairs[token] = ExchangePair(output, input, true);\n        emit UpdateExchangePair(token, input, output, block.timestamp);\n    }\n\n    event DeleteExchangePair(address token, uint256 time);\n\n    function deleteExchangePair(address token) public onlyOwner {\n        require(exchangePairs[token].status, \"Status invalid\");\n        delete exchangePairs[token];\n\n        address[] storage addressTokens;\n\n        for (uint i = 0; i < supportedTokens.length; i++) {\n            if(supportedTokens[i] != token) {\n                addressTokens.push(supportedTokens[i]);\n            }\n        }\n        supportedTokens = addressTokens;\n\n        emit DeleteExchangePair(token, block.timestamp);\n    }\n\n    function getOwner() external view returns (address) {\n        return owner();\n    }\n\n    event BuyIDO(\n        address token,\n        address user,\n        uint256 amount,\n        uint256 dfyAmount,\n        address referral,\n        uint256 referralAmount,\n        uint256 time\n    );\n\n    function buyIdo(\n        address token,\n        uint256 amount,\n        address referral\n    ) external requireOpen {\n        require(exchangePairs[token].status, \"Exchange pair is not exist!\");\n\n        IERC20 transferToken = IERC20(token);\n\n        require(\n            transferToken.balanceOf(msg.sender) >= amount,\n            \"Token insufficient\"\n        );\n\n        uint256 outputDFYAmount =\n        (exchangePairs[token].output.mul(amount)).div(\n            exchangePairs[token].input\n        );\n\n        require(\n            boughtAmountTotals[msg.sender] + outputDFYAmount <= buyMaximum*(10 ** 18),\n            \"Request DFI amount is exceeded!\"\n        );\n\n        boughtAmountTotals[msg.sender] += outputDFYAmount;\n\n        require(\n            DFYToken.balanceOf(address(this)) >= outputDFYAmount,\n            \"DFY insufficient\"\n        );\n\n        require(\n            transferToken.transferFrom(msg.sender, owner(), amount),\n            \"Token transfer fail\"\n        );\n\n        require(\n            DFYToken.approve(msg.sender, outputDFYAmount),\n            \"DFY approve failed!\"\n        );\n\n        require(\n            DFYToken.transfer(msg.sender, outputDFYAmount),\n            \"DFY transfer fail\"\n        );\n\n        uint256 referralReceiveAmount = 0;\n        if (referral != address(0)\n        && referral != msg.sender\n        && beReferred[msg.sender] == address(0)\n        && referralUserTotal[referral] < maxPersonRef) {\n            uint256 expectedReferralReceiveAmount = (outputDFYAmount.mul(refRewardPercent)).div(\n                100\n            );\n\n            if(referralRewardTotal[referral] + expectedReferralReceiveAmount <= maxRewardFromRef*(10 ** 18)) {\n                referralReceiveAmount = expectedReferralReceiveAmount;\n            } else {\n                referralReceiveAmount = maxRewardFromRef*(10 ** 18) - referralRewardTotal[referral];\n            }\n\n        }\n\n        if (referralReceiveAmount > 0) {\n\n            referralRewardTotal[referral] += referralReceiveAmount;\n            referralUserTotal[referral] += 1;\n\n            beReferred[msg.sender] = referral;\n\n            require(\n                DFYToken.approve(referral, referralReceiveAmount),\n                \"DFY approve ref failed!\"\n            );\n\n            require(\n                DFYToken.transfer(referral, referralReceiveAmount),\n                \"DFY transfer referral fail\"\n            );\n            emit BuyIDO(\n                token,\n                msg.sender,\n                amount,\n                outputDFYAmount,\n                referral,\n                referralReceiveAmount,\n                block.timestamp\n            );\n        }\n        emit BuyIDO(\n            token,\n            msg.sender,\n            amount,\n            outputDFYAmount,\n            address(0),\n            0,\n            block.timestamp\n        );\n    }\n\n    function getTokenSupport() public view returns (address[] memory) {\n        return supportedTokens;\n    }\n\n    function getExchangePair(address _tokenAddress) public view returns (address tokenAddress, uint256 output, uint256 input, bool status) {\n        return (_tokenAddress, exchangePairs[_tokenAddress].output, exchangePairs[_tokenAddress].input, exchangePairs[_tokenAddress].status);\n    }\n\n    event WithdrawnToken(\n        address token,\n        uint256 amount,\n        address receiveAddress\n    );\n\n    function withdrawnToken(address _tokenAddress, uint256 amount) external onlyOwner {\n        IERC20 transferToken = IERC20(_tokenAddress);\n        require(\n            transferToken.balanceOf(address(this)) >= amount,\n            \"Token insufficient\"\n        );\n\n        require(\n            transferToken.approve(owner(), amount),\n            \"Token approve failed!\"\n        );\n\n        require(\n            transferToken.transfer(owner(), amount),\n            \"Token transfer fail\"\n        );\n\n        emit WithdrawnToken(\n            _tokenAddress,\n            amount,\n            owner()\n        );\n    }\n\n}\n",
  "sourcePath": "/home/ylgr/Edsolabs/defi-smartcontract/contracts/IdoDFY.sol",
  "compiler": {
    "name": "solc",
    "version": "0.7.6+commit.7338295f.Emscripten.clang"
  },
  "schemaVersion": "3.3.3",
  "updatedAt": "2021-01-14T04:24:12.723Z",
  "devdoc": {
    "kind": "dev",
    "methods": {
      "owner()": {
        "details": "Returns the address of the current owner."
      },
      "renounceOwnership()": {
        "details": "Leaves the contract without owner. It will not be possible to call `onlyOwner` functions anymore. Can only be called by the current owner. NOTE: Renouncing ownership will leave the contract without an owner, thereby removing any functionality that is only available to the owner."
      },
      "transferOwnership(address)": {
        "details": "Transfers ownership of the contract to a new account (`newOwner`). Can only be called by the current owner."
      }
    },
    "version": 1
  },
  "userdoc": {
    "kind": "user",
    "methods": {},
    "version": 1
  }
}