{
  "contractName": "IdoDFY",
  "abi": [
    {
      "inputs": [
        {
          "internalType": "address",
          "name": "_DFYToken",
          "type": "address"
        },
        {
          "internalType": "uint256",
          "name": "_buyMinimum",
          "type": "uint256"
        },
        {
          "internalType": "uint256",
          "name": "_buyMaximum",
          "type": "uint256"
        },
        {
          "internalType": "uint256",
          "name": "_maxPersonRef",
          "type": "uint256"
        },
        {
          "internalType": "uint256",
          "name": "_maxRewardFromRef",
          "type": "uint256"
        },
        {
          "internalType": "uint256",
          "name": "_refRewardPercent",
          "type": "uint256"
        },
        {
          "internalType": "uint256",
          "name": "_start",
          "type": "uint256"
        },
        {
          "internalType": "uint256",
          "name": "_end",
          "type": "uint256"
        }
      ],
      "stateMutability": "nonpayable",
      "type": "constructor"
    },
    {
      "anonymous": false,
      "inputs": [
        {
          "indexed": false,
          "internalType": "address",
          "name": "token",
          "type": "address"
        },
        {
          "indexed": false,
          "internalType": "address",
          "name": "user",
          "type": "address"
        },
        {
          "indexed": false,
          "internalType": "uint256",
          "name": "amount",
          "type": "uint256"
        },
        {
          "indexed": false,
          "internalType": "uint256",
          "name": "dfyAmount",
          "type": "uint256"
        },
        {
          "indexed": false,
          "internalType": "address",
          "name": "referral",
          "type": "address"
        },
        {
          "indexed": false,
          "internalType": "uint256",
          "name": "referralAmount",
          "type": "uint256"
        },
        {
          "indexed": false,
          "internalType": "uint256",
          "name": "time",
          "type": "uint256"
        }
      ],
      "name": "BuyIDO",
      "type": "event"
    },
    {
      "anonymous": false,
      "inputs": [
        {
          "indexed": false,
          "internalType": "address",
          "name": "token",
          "type": "address"
        },
        {
          "indexed": false,
          "internalType": "uint256",
          "name": "time",
          "type": "uint256"
        }
      ],
      "name": "DeleteExchangePair",
      "type": "event"
    },
    {
      "anonymous": false,
      "inputs": [
        {
          "indexed": true,
          "internalType": "address",
          "name": "previousOwner",
          "type": "address"
        },
        {
          "indexed": true,
          "internalType": "address",
          "name": "newOwner",
          "type": "address"
        }
      ],
      "name": "OwnershipTransferred",
      "type": "event"
    },
    {
      "anonymous": false,
      "inputs": [
        {
          "indexed": false,
          "internalType": "address",
          "name": "token",
          "type": "address"
        },
        {
          "indexed": false,
          "internalType": "uint256",
          "name": "input",
          "type": "uint256"
        },
        {
          "indexed": false,
          "internalType": "uint256",
          "name": "output",
          "type": "uint256"
        },
        {
          "indexed": false,
          "internalType": "uint256",
          "name": "time",
          "type": "uint256"
        }
      ],
      "name": "UpdateExchangePair",
      "type": "event"
    },
    {
      "anonymous": false,
      "inputs": [
        {
          "indexed": false,
          "internalType": "address",
          "name": "token",
          "type": "address"
        },
        {
          "indexed": false,
          "internalType": "uint256",
          "name": "amount",
          "type": "uint256"
        },
        {
          "indexed": false,
          "internalType": "address",
          "name": "receiveAddress",
          "type": "address"
        }
      ],
      "name": "WithdrawnToken",
      "type": "event"
    },
    {
      "inputs": [
        {
          "internalType": "address",
          "name": "",
          "type": "address"
        }
      ],
      "name": "beReferred",
      "outputs": [
        {
          "internalType": "address",
          "name": "",
          "type": "address"
        }
      ],
      "stateMutability": "view",
      "type": "function"
    },
    {
      "inputs": [
        {
          "internalType": "address",
          "name": "",
          "type": "address"
        }
      ],
      "name": "boughtAmountTotals",
      "outputs": [
        {
          "internalType": "uint256",
          "name": "",
          "type": "uint256"
        }
      ],
      "stateMutability": "view",
      "type": "function"
    },
    {
      "inputs": [],
      "name": "buyMaximum",
      "outputs": [
        {
          "internalType": "uint256",
          "name": "",
          "type": "uint256"
        }
      ],
      "stateMutability": "view",
      "type": "function"
    },
    {
      "inputs": [],
      "name": "buyMinimum",
      "outputs": [
        {
          "internalType": "uint256",
          "name": "",
          "type": "uint256"
        }
      ],
      "stateMutability": "view",
      "type": "function"
    },
    {
      "inputs": [],
      "name": "end",
      "outputs": [
        {
          "internalType": "uint256",
          "name": "",
          "type": "uint256"
        }
      ],
      "stateMutability": "view",
      "type": "function"
    },
    {
      "inputs": [
        {
          "internalType": "address",
          "name": "",
          "type": "address"
        }
      ],
      "name": "exchangePairs",
      "outputs": [
        {
          "internalType": "uint256",
          "name": "output",
          "type": "uint256"
        },
        {
          "internalType": "uint256",
          "name": "input",
          "type": "uint256"
        },
        {
          "internalType": "bool",
          "name": "status",
          "type": "bool"
        }
      ],
      "stateMutability": "view",
      "type": "function"
    },
    {
      "inputs": [],
      "name": "maxPersonRef",
      "outputs": [
        {
          "internalType": "uint256",
          "name": "",
          "type": "uint256"
        }
      ],
      "stateMutability": "view",
      "type": "function"
    },
    {
      "inputs": [],
      "name": "maxRewardFromRef",
      "outputs": [
        {
          "internalType": "uint256",
          "name": "",
          "type": "uint256"
        }
      ],
      "stateMutability": "view",
      "type": "function"
    },
    {
      "inputs": [],
      "name": "owner",
      "outputs": [
        {
          "internalType": "address",
          "name": "",
          "type": "address"
        }
      ],
      "stateMutability": "view",
      "type": "function"
    },
    {
      "inputs": [],
      "name": "refRewardPercent",
      "outputs": [
        {
          "internalType": "uint256",
          "name": "",
          "type": "uint256"
        }
      ],
      "stateMutability": "view",
      "type": "function"
    },
    {
      "inputs": [
        {
          "internalType": "address",
          "name": "",
          "type": "address"
        }
      ],
      "name": "referralRewardTotal",
      "outputs": [
        {
          "internalType": "uint256",
          "name": "",
          "type": "uint256"
        }
      ],
      "stateMutability": "view",
      "type": "function"
    },
    {
      "inputs": [
        {
          "internalType": "address",
          "name": "",
          "type": "address"
        }
      ],
      "name": "referralUserTotal",
      "outputs": [
        {
          "internalType": "uint8",
          "name": "",
          "type": "uint8"
        }
      ],
      "stateMutability": "view",
      "type": "function"
    },
    {
      "inputs": [],
      "name": "renounceOwnership",
      "outputs": [],
      "stateMutability": "nonpayable",
      "type": "function"
    },
    {
      "inputs": [],
      "name": "stage",
      "outputs": [
        {
          "internalType": "enum IdoDFY.Stage",
          "name": "",
          "type": "uint8"
        }
      ],
      "stateMutability": "view",
      "type": "function"
    },
    {
      "inputs": [],
      "name": "start",
      "outputs": [
        {
          "internalType": "uint256",
          "name": "",
          "type": "uint256"
        }
      ],
      "stateMutability": "view",
      "type": "function"
    },
    {
      "inputs": [
        {
          "internalType": "uint256",
          "name": "",
          "type": "uint256"
        }
      ],
      "name": "supportedTokens",
      "outputs": [
        {
          "internalType": "address",
          "name": "",
          "type": "address"
        }
      ],
      "stateMutability": "view",
      "type": "function"
    },
    {
      "inputs": [
        {
          "internalType": "address",
          "name": "newOwner",
          "type": "address"
        }
      ],
      "name": "transferOwnership",
      "outputs": [],
      "stateMutability": "nonpayable",
      "type": "function"
    },
    {
      "inputs": [
        {
          "internalType": "address",
          "name": "",
          "type": "address"
        }
      ],
      "name": "whitelist",
      "outputs": [
        {
          "internalType": "bool",
          "name": "",
          "type": "bool"
        }
      ],
      "stateMutability": "view",
      "type": "function"
    },
    {
      "inputs": [
        {
          "internalType": "enum IdoDFY.Stage",
          "name": "_stage",
          "type": "uint8"
        }
      ],
      "name": "setStage",
      "outputs": [],
      "stateMutability": "nonpayable",
      "type": "function"
    },
    {
      "inputs": [
        {
          "internalType": "bool",
          "name": "_isPublic",
          "type": "bool"
        }
      ],
      "name": "setPublic",
      "outputs": [],
      "stateMutability": "nonpayable",
      "type": "function"
    },
    {
      "inputs": [
        {
          "internalType": "address",
          "name": "_whitelist",
          "type": "address"
        }
      ],
      "name": "addWhiteList",
      "outputs": [],
      "stateMutability": "nonpayable",
      "type": "function"
    },
    {
      "inputs": [
        {
          "internalType": "address",
          "name": "token",
          "type": "address"
        },
        {
          "internalType": "uint256",
          "name": "output",
          "type": "uint256"
        },
        {
          "internalType": "uint256",
          "name": "input",
          "type": "uint256"
        }
      ],
      "name": "updateExchangePair",
      "outputs": [],
      "stateMutability": "nonpayable",
      "type": "function"
    },
    {
      "inputs": [
        {
          "internalType": "address",
          "name": "token",
          "type": "address"
        }
      ],
      "name": "deleteExchangePair",
      "outputs": [],
      "stateMutability": "nonpayable",
      "type": "function"
    },
    {
      "inputs": [],
      "name": "getOwner",
      "outputs": [
        {
          "internalType": "address",
          "name": "",
          "type": "address"
        }
      ],
      "stateMutability": "view",
      "type": "function"
    },
    {
      "inputs": [
        {
          "internalType": "address",
          "name": "token",
          "type": "address"
        },
        {
          "internalType": "uint256",
          "name": "amount",
          "type": "uint256"
        },
        {
          "internalType": "address",
          "name": "referral",
          "type": "address"
        }
      ],
      "name": "buyIdo",
      "outputs": [],
      "stateMutability": "nonpayable",
      "type": "function"
    },
    {
      "inputs": [],
      "name": "getTokenSupport",
      "outputs": [
        {
          "internalType": "address[]",
          "name": "",
          "type": "address[]"
        }
      ],
      "stateMutability": "view",
      "type": "function"
    },
    {
      "inputs": [
        {
          "internalType": "address",
          "name": "_tokenAddress",
          "type": "address"
        }
      ],
      "name": "getExchangePair",
      "outputs": [
        {
          "internalType": "address",
          "name": "tokenAddress",
          "type": "address"
        },
        {
          "internalType": "uint256",
          "name": "output",
          "type": "uint256"
        },
        {
          "internalType": "uint256",
          "name": "input",
          "type": "uint256"
        },
        {
          "internalType": "bool",
          "name": "status",
          "type": "bool"
        }
      ],
      "stateMutability": "view",
      "type": "function"
    },
    {
      "inputs": [
        {
          "internalType": "address",
          "name": "_tokenAddress",
          "type": "address"
        },
        {
          "internalType": "uint256",
          "name": "amount",
          "type": "uint256"
        }
      ],
      "name": "withdrawnToken",
      "outputs": [],
      "stateMutability": "nonpayable",
      "type": "function"
    }
  ],
  "bytecode": "0x608060405234801561001057600080fd5b50604051611edc380380611edc833981810160405261010081101561003457600080fd5b508051602082015160408301516060840151608085015160a086015160c087015160e0909701519596949593949293919290916000610071610118565b600080546001600160a01b0319166001600160a01b0383169081178255604051929350917f8be0079c531659141344cd1fd0a4f28419497f9722a3daafe3b4186f6b6457e0908290a350600880546001600160a01b0319166001600160a01b038a16179055600d80546000919060ff1916600183021790555060019690965560029490945560049290925560055560035560065560075550600f805460ff1916905561011c565b3390565b611db18061012b6000396000f3fe608060405234801561001057600080fd5b50600436106101c45760003560e01c8063ae579336116100f9578063da51ad8911610097578063e7cd4a0411610071578063e7cd4a0414610538578063efbe1c1c1461055e578063f2fde38b14610566578063f8546ba71461058c576101c4565b8063da51ad89146104b8578063e1861013146104ea578063e5c85a6a146104f2576101c4565b8063c040e6b8116100d3578063c040e6b81461044a578063c625562614610473578063ce3cd99714610490578063d434d39f146104b0576101c4565b8063ae579336146103b4578063b58fbfa0146103ea578063be9a655514610442576101c4565b8063715018a611610166578063893d20e811610140578063893d20e8146103465780638da5cb5b1461036a5780639b19251a146103725780639ccc9dcb146103ac576101c4565b8063715018a6146102ba578063756248a3146102c257806383d899fc146102ee576101c4565b80634e751b84116101a25780634e751b841461026357806356bd5e101461026b5780635bcdd5f0146102935780635cbcec4e1461029b576101c4565b80630f925096146101c9578063217bc6961461020157806347825acd14610227575b600080fd5b6101ef600480360360208110156101df57600080fd5b50356001600160a01b03166105b2565b60408051918252519081900360200190f35b6101ef6004803603602081101561021757600080fd5b50356001600160a01b03166105c4565b61024d6004803603602081101561023d57600080fd5b50356001600160a01b03166105d6565b6040805160ff9092168252519081900360200190f35b6101ef6105eb565b6102916004803603602081101561028157600080fd5b50356001600160a01b03166105f1565b005b6101ef6107bf565b610291600480360360208110156102b157600080fd5b503515156107c5565b610291610830565b610291600480360360408110156102d857600080fd5b506001600160a01b0381351690602001356108d2565b6102f6610be6565b60408051602080825283518183015283519192839290830191858101910280838360005b8381101561033257818101518382015260200161031a565b505050509050019250505060405180910390f35b61034e610c48565b604080516001600160a01b039092168252519081900360200190f35b61034e610c57565b6103986004803603602081101561038857600080fd5b50356001600160a01b0316610c66565b604080519115158252519081900360200190f35b6101ef610c7b565b610291600480360360608110156103ca57600080fd5b506001600160a01b03813581169160208101359160409091013516610c81565b6104106004803603602081101561040057600080fd5b50356001600160a01b0316611715565b604080516001600160a01b03909516855260208501939093528383019190915215156060830152519081900360800190f35b6101ef611744565b61045261174a565b6040518082600181111561046257fe5b815260200191505060405180910390f35b61034e6004803603602081101561048957600080fd5b5035611753565b610291600480360360208110156104a657600080fd5b503560ff1661177d565b6101ef6117f5565b610291600480360360608110156104ce57600080fd5b506001600160a01b0381351690602081013590604001356117fb565b6101ef6119ab565b6105186004803603602081101561050857600080fd5b50356001600160a01b03166119b1565b604080519384526020840192909252151582820152519081900360600190f35b6102916004803603602081101561054e57600080fd5b50356001600160a01b03166119d5565b6101ef611a51565b6102916004803603602081101561057c57600080fd5b50356001600160a01b0316611a57565b61034e600480360360208110156105a257600080fd5b50356001600160a01b0316611b4f565b600c6020526000908152604090205481565b600a6020526000908152604090205481565b600b6020526000908152604090205460ff1681565b60015481565b6105f9611b6a565b6000546001600160a01b03908116911614610649576040805162461bcd60e51b81526020600482018190526024820152600080516020611d5c833981519152604482015290519081900360640190fd5b6001600160a01b03811660009081526010602052604090206002015460ff166106aa576040805162461bcd60e51b815260206004820152600e60248201526d14dd185d1d5cc81a5b9d985b1a5960921b604482015290519081900360640190fd5b6001600160a01b038116600090815260106020526040812081815560018101829055600201805460ff19169055805b60115481101561076657826001600160a01b0316601182815481106106fa57fe5b6000918252602090912001546001600160a01b03161461075e57816011828154811061072257fe5b60009182526020808320909101548354600181018555938352912090910180546001600160a01b0319166001600160a01b039092169190911790555b6001016106d9565b508054610777906011908390611caf565b50604080516001600160a01b038416815242602082015281517f832955936d34e2ca89fb8b14dc4cd35d3b56be5a2667efac7e255897e0cd261f929181900390910190a15050565b60035481565b6107cd611b6a565b6000546001600160a01b0390811691161461081d576040805162461bcd60e51b81526020600482018190526024820152600080516020611d5c833981519152604482015290519081900360640190fd5b600f805460ff1916911515919091179055565b610838611b6a565b6000546001600160a01b03908116911614610888576040805162461bcd60e51b81526020600482018190526024820152600080516020611d5c833981519152604482015290519081900360640190fd5b600080546040516001600160a01b03909116907f8be0079c531659141344cd1fd0a4f28419497f9722a3daafe3b4186f6b6457e0908390a3600080546001600160a01b0319169055565b6108da611b6a565b6000546001600160a01b0390811691161461092a576040805162461bcd60e51b81526020600482018190526024820152600080516020611d5c833981519152604482015290519081900360640190fd5b604080516370a0823160e01b81523060048201529051839183916001600160a01b038416916370a08231916024808301926020929190829003018186803b15801561097457600080fd5b505afa158015610988573d6000803e3d6000fd5b505050506040513d602081101561099e57600080fd5b505110156109e8576040805162461bcd60e51b8152602060048201526012602482015271151bdad95b881a5b9cdd59999a58da595b9d60721b604482015290519081900360640190fd5b806001600160a01b031663095ea7b36109ff610c57565b846040518363ffffffff1660e01b815260040180836001600160a01b0316815260200182815260200192505050602060405180830381600087803b158015610a4657600080fd5b505af1158015610a5a573d6000803e3d6000fd5b505050506040513d6020811015610a7057600080fd5b5051610abb576040805162461bcd60e51b8152602060048201526015602482015274546f6b656e20617070726f7665206661696c65642160581b604482015290519081900360640190fd5b806001600160a01b031663a9059cbb610ad2610c57565b846040518363ffffffff1660e01b815260040180836001600160a01b0316815260200182815260200192505050602060405180830381600087803b158015610b1957600080fd5b505af1158015610b2d573d6000803e3d6000fd5b505050506040513d6020811015610b4357600080fd5b5051610b8c576040805162461bcd60e51b8152602060048201526013602482015272151bdad95b881d1c985b9cd9995c8819985a5b606a1b604482015290519081900360640190fd5b7fae9c2628a61b3c3fc7cdc3a52b9ae48c828b5fe544ebf779dfa0a2743478650c8383610bb7610c57565b604080516001600160a01b039485168152602081019390935292168183015290519081900360600190a1505050565b60606011805480602002602001604051908101604052809291908181526020018280548015610c3e57602002820191906000526020600020905b81546001600160a01b03168152600190910190602001808311610c20575b5050505050905090565b6000610c52610c57565b905090565b6000546001600160a01b031690565b600e6020526000908152604090205460ff1681565b60045481565b6000600d5460ff166001811115610c9457fe5b14610cd4576040805162461bcd60e51b815260206004820152600b60248201526a537461676520636c6f736560a81b604482015290519081900360640190fd5b600654421015610d2b576040805162461bcd60e51b815260206004820152601760248201527f49444f2074696d65206973206e6f742073746172746564000000000000000000604482015290519081900360640190fd5b600754421115610d75576040805162461bcd60e51b815260206004820152601060248201526f125113c81d1a5b59481dd85cc8195b9960821b604482015290519081900360640190fd5b600f5460ff1680610d955750336000908152600e602052604090205460ff165b610de6576040805162461bcd60e51b815260206004820152601a60248201527f5075626c69632073616c65207374696c6c206e6f74206f70656e000000000000604482015290519081900360640190fd5b6001600160a01b03831660009081526010602052604090206002015460ff16610e56576040805162461bcd60e51b815260206004820152601b60248201527f45786368616e67652070616972206973206e6f74206578697374210000000000604482015290519081900360640190fd5b604080516370a0823160e01b81523360048201529051849184916001600160a01b038416916370a08231916024808301926020929190829003018186803b158015610ea057600080fd5b505afa158015610eb4573d6000803e3d6000fd5b505050506040513d6020811015610eca57600080fd5b50511015610f14576040805162461bcd60e51b8152602060048201526012602482015271151bdad95b881a5b9cdd59999a58da595b9d60721b604482015290519081900360640190fd5b6001600160a01b038416600090815260106020526040812060018101549054610f489190610f429087611b6e565b90611bd0565b9050600154670de0b6b3a764000002811015610fab576040805162461bcd60e51b815260206004820152601d60248201527f416d6f756e7420444649207265717565737420697320746f6f206c6f77000000604482015290519081900360640190fd5b600254336000908152600c6020526040902054670de0b6b3a76400009091029082011115611020576040805162461bcd60e51b815260206004820152601f60248201527f526571756573742044464920616d6f756e742069732065786365656465642100604482015290519081900360640190fd5b336000908152600c602090815260409182902080548401905560085482516370a0823160e01b8152306004820152925184936001600160a01b03909216926370a082319260248082019391829003018186803b15801561107f57600080fd5b505afa158015611093573d6000803e3d6000fd5b505050506040513d60208110156110a957600080fd5b505110156110f1576040805162461bcd60e51b815260206004820152601060248201526f111196481a5b9cdd59999a58da595b9d60821b604482015290519081900360640190fd5b816001600160a01b03166323b872dd33611109610c57565b876040518463ffffffff1660e01b815260040180846001600160a01b03168152602001836001600160a01b031681526020018281526020019350505050602060405180830381600087803b15801561116057600080fd5b505af1158015611174573d6000803e3d6000fd5b505050506040513d602081101561118a57600080fd5b50516111d3576040805162461bcd60e51b8152602060048201526013602482015272151bdad95b881d1c985b9cd9995c8819985a5b606a1b604482015290519081900360640190fd5b6008546040805163095ea7b360e01b81523360048201526024810184905290516001600160a01b039092169163095ea7b3916044808201926020929091908290030181600087803b15801561122757600080fd5b505af115801561123b573d6000803e3d6000fd5b505050506040513d602081101561125157600080fd5b505161129a576040805162461bcd60e51b815260206004820152601360248201527244465920617070726f7665206661696c65642160681b604482015290519081900360640190fd5b6008546040805163a9059cbb60e01b81523360048201526024810184905290516001600160a01b039092169163a9059cbb916044808201926020929091908290030181600087803b1580156112ee57600080fd5b505af1158015611302573d6000803e3d6000fd5b505050506040513d602081101561131857600080fd5b505161135f576040805162461bcd60e51b8152602060048201526011602482015270111196481d1c985b9cd9995c8819985a5b607a1b604482015290519081900360640190fd5b60006001600160a01b0384161580159061138257506001600160a01b0384163314155b80156113a45750336000908152600960205260409020546001600160a01b0316155b80156113cc57506004546001600160a01b0385166000908152600b602052604090205460ff16105b156114525760006113ed6064610f4260035486611b6e90919063ffffffff16565b6005546001600160a01b0387166000908152600a6020526040902054919250670de0b6b3a7640000029082011161142657809150611450565b6001600160a01b0385166000908152600a6020526040902054600554670de0b6b3a7640000020391505b505b80156116aa576001600160a01b038085166000818152600a60209081526040808320805487019055600b8252808320805460ff8082166001011660ff199091161790553383526009825280832080546001600160a01b03191685179055600854815163095ea7b360e01b8152600481019590955260248501879052905194169363095ea7b393604480820194918390030190829087803b1580156114f557600080fd5b505af1158015611509573d6000803e3d6000fd5b505050506040513d602081101561151f57600080fd5b5051611572576040805162461bcd60e51b815260206004820152601760248201527f44465920617070726f766520726566206661696c656421000000000000000000604482015290519081900360640190fd5b6008546040805163a9059cbb60e01b81526001600160a01b038781166004830152602482018590529151919092169163a9059cbb9160448083019260209291908290030181600087803b1580156115c857600080fd5b505af11580156115dc573d6000803e3d6000fd5b505050506040513d60208110156115f257600080fd5b5051611645576040805162461bcd60e51b815260206004820152601a60248201527f444659207472616e7366657220726566657272616c206661696c000000000000604482015290519081900360640190fd5b604080516001600160a01b038089168252336020830152818301889052606082018590528616608082015260a081018390524260c082015290517f01549ee63c4a665f871e9ab32dce0919fe2e5bda141dd9028340374bda00aca39181900360e00190a15b604080516001600160a01b03881681523360208201528082018790526060810184905260006080820181905260a08201524260c082015290517f01549ee63c4a665f871e9ab32dce0919fe2e5bda141dd9028340374bda00aca39181900360e00190a1505050505050565b6001600160a01b0381166000908152601060205260409020805460018201546002909201549293909260ff1690565b60065481565b600d5460ff1681565b6011818154811061176357600080fd5b6000918252602090912001546001600160a01b0316905081565b611785611b6a565b6000546001600160a01b039081169116146117d5576040805162461bcd60e51b81526020600482018190526024820152600080516020611d5c833981519152604482015290519081900360640190fd5b600d805482919060ff1916600183818111156117ed57fe5b021790555050565b60055481565b611803611b6a565b6000546001600160a01b03908116911614611853576040805162461bcd60e51b81526020600482018190526024820152600080516020611d5c833981519152604482015290519081900360640190fd5b6001600160a01b03831661189e576040805162461bcd60e51b815260206004820152600d60248201526c151bdad95b881a5b9d985b1a59609a1b604482015290519081900360640190fd5b6001600160a01b03831660009081526010602052604090206002015460ff1661190d57601180546001810182556000919091527f31ecc21a745e3968a04e9570e4425bc18fa8019c68028196b546d1669c200c680180546001600160a01b0319166001600160a01b0385161790555b6040805160608082018352848252602080830185815260018486018181526001600160a01b038a1660008181526010865288902096518755925191860191909155516002909401805460ff19169415159490941790935583519283528201849052818301859052429082015290517f936558683d5bab97da9ea02e8befc40ba2e5db45e5f4267e62d16b7ef5a0a307916080908290030190a1505050565b60025481565b60106020526000908152604090208054600182015460029092015490919060ff1683565b6119dd611b6a565b6000546001600160a01b03908116911614611a2d576040805162461bcd60e51b81526020600482018190526024820152600080516020611d5c833981519152604482015290519081900360640190fd5b6001600160a01b03166000908152600e60205260409020805460ff19166001179055565b60075481565b611a5f611b6a565b6000546001600160a01b03908116911614611aaf576040805162461bcd60e51b81526020600482018190526024820152600080516020611d5c833981519152604482015290519081900360640190fd5b6001600160a01b038116611af45760405162461bcd60e51b8152600401808060200182810382526026815260200180611d156026913960400191505060405180910390fd5b600080546040516001600160a01b03808516939216917f8be0079c531659141344cd1fd0a4f28419497f9722a3daafe3b4186f6b6457e091a3600080546001600160a01b0319166001600160a01b0392909216919091179055565b6009602052600090815260409020546001600160a01b031681565b3390565b600082611b7d57506000611bca565b82820282848281611b8a57fe5b0414611bc75760405162461bcd60e51b8152600401808060200182810382526021815260200180611d3b6021913960400191505060405180910390fd5b90505b92915050565b6000611bc783836040518060400160405280601a81526020017f536166654d6174683a206469766973696f6e206279207a65726f00000000000081525060008183611c995760405162461bcd60e51b81526004018080602001828103825283818151815260200191508051906020019080838360005b83811015611c5e578181015183820152602001611c46565b50505050905090810190601f168015611c8b5780820380516001836020036101000a031916815260200191505b509250505060405180910390fd5b506000838581611ca557fe5b0495945050505050565b828054828255906000526020600020908101928215611cef5760005260206000209182015b82811115611cef578254825591600101919060010190611cd4565b50611cfb929150611cff565b5090565b5b80821115611cfb5760008155600101611d0056fe4f776e61626c653a206e6577206f776e657220697320746865207a65726f2061646472657373536166654d6174683a206d756c7469706c69636174696f6e206f766572666c6f774f776e61626c653a2063616c6c6572206973206e6f7420746865206f776e6572a26469706673582212204f4909328d020ad7ace3e081ee5324d0b3ed5b87e3c568cb5aa5d0d2c2f4905964736f6c63430007060033",
  "immutableReferences": {},
  "source": "// SPDX-License-Identifier: MIT\npragma solidity >=0.4.22 <0.9.0;\n\nimport \"@openzeppelin/contracts/math/SafeMath.sol\";\nimport \"@openzeppelin/contracts/access/Ownable.sol\";\nimport \"@openzeppelin/contracts/token/ERC20/IERC20.sol\";\n\ncontract IdoDFY is Ownable {\n    constructor(\n        address _DFYToken,\n        uint256 _buyMinimum,\n        uint256 _buyMaximum,\n        uint256 _maxPersonRef,\n        uint256 _maxRewardFromRef,\n        uint256 _refRewardPercent,\n        uint _start,\n        uint _end\n    ) public {\n        DFYToken = IERC20(address(_DFYToken));\n        stage = Stage.Unpause;\n        buyMinimum = _buyMinimum;\n        buyMaximum = _buyMaximum;\n        maxPersonRef = _maxPersonRef;\n        maxRewardFromRef = _maxRewardFromRef;\n        refRewardPercent = _refRewardPercent;\n        start = _start;\n        end = _end;\n        isPublic = false;\n    }\n\n    uint256 public buyMinimum;\n    uint256 public buyMaximum;\n    uint256 public refRewardPercent;\n    uint256 public maxPersonRef;\n    uint256 public maxRewardFromRef;\n    uint public start;\n    uint public end;\n\n    using SafeMath for uint256;\n    IERC20 private DFYToken;\n\n    struct ExchangePair {\n        uint256 output;\n        uint256 input;\n        bool status;\n    }\n\n    mapping(address => address) public beReferred;\n    mapping(address => uint256) public referralRewardTotal;\n    mapping(address => uint8) public referralUserTotal;\n\n    mapping(address => uint256) public boughtAmountTotals;\n\n    enum Stage {Unpause, Pause}\n\n    Stage public stage;\n\n    mapping(address => bool) public whitelist;\n    bool isPublic;\n\n    modifier requireOpen {\n        require(stage == Stage.Unpause, \"Stage close\");\n        require(block.timestamp >= start, \"IDO time is not started\");\n        require(block.timestamp <= end, \"IDO time was end\");\n\n        require(isPublic || whitelist[msg.sender], \"Public sale still not open\");\n\n        _;\n    }\n\n    mapping(address => ExchangePair) public exchangePairs;\n    address[] public supportedTokens;\n\n    event UpdateExchangePair(\n        address token,\n        uint256 input,\n        uint256 output,\n        uint256 time\n    );\n\n    function setStage(Stage _stage) public onlyOwner{\n        stage = _stage;\n    }\n\n    function setPublic(bool _isPublic) public onlyOwner {\n        isPublic = _isPublic;\n    }\n\n    function addWhiteList(address _whitelist) public onlyOwner {\n        whitelist[_whitelist] = true;\n    }\n\n    function updateExchangePair(\n        address token,\n        uint256 output,\n        uint256 input\n    ) public onlyOwner {\n        require(token != address(0), \"Token invalid\");\n        if (!exchangePairs[token].status) {\n            supportedTokens.push(token);\n        }\n        exchangePairs[token] = ExchangePair(output, input, true);\n        emit UpdateExchangePair(token, input, output, block.timestamp);\n    }\n\n    event DeleteExchangePair(address token, uint256 time);\n\n    function deleteExchangePair(address token) public onlyOwner {\n        require(exchangePairs[token].status, \"Status invalid\");\n        delete exchangePairs[token];\n\n        address[] storage addressTokens;\n\n        for (uint i = 0; i < supportedTokens.length; i++) {\n            if(supportedTokens[i] != token) {\n                addressTokens.push(supportedTokens[i]);\n            }\n        }\n        supportedTokens = addressTokens;\n\n        emit DeleteExchangePair(token, block.timestamp);\n    }\n\n    function getOwner() external view returns (address) {\n        return owner();\n    }\n\n    event BuyIDO(\n        address token,\n        address user,\n        uint256 amount,\n        uint256 dfyAmount,\n        address referral,\n        uint256 referralAmount,\n        uint256 time\n    );\n\n    function buyIdo(\n        address token,\n        uint256 amount,\n        address referral\n    ) external requireOpen {\n        require(exchangePairs[token].status, \"Exchange pair is not exist!\");\n\n        IERC20 transferToken = IERC20(token);\n\n        require(\n            transferToken.balanceOf(msg.sender) >= amount,\n            \"Token insufficient\"\n        );\n\n        uint256 outputDFYAmount =\n        (exchangePairs[token].output.mul(amount)).div(\n            exchangePairs[token].input\n        );\n\n        require(\n            outputDFYAmount >= buyMinimum*(10 ** 18),\n            \"Amount DFI request is too low\"\n        );\n\n        require(\n            boughtAmountTotals[msg.sender] + outputDFYAmount <= buyMaximum*(10 ** 18),\n            \"Request DFI amount is exceeded!\"\n        );\n\n        boughtAmountTotals[msg.sender] += outputDFYAmount;\n\n        require(\n            DFYToken.balanceOf(address(this)) >= outputDFYAmount,\n            \"DFY insufficient\"\n        );\n\n        require(\n            transferToken.transferFrom(msg.sender, owner(), amount),\n            \"Token transfer fail\"\n        );\n\n        require(\n            DFYToken.approve(msg.sender, outputDFYAmount),\n            \"DFY approve failed!\"\n        );\n\n        require(\n            DFYToken.transfer(msg.sender, outputDFYAmount),\n            \"DFY transfer fail\"\n        );\n\n        uint256 referralReceiveAmount = 0;\n        if (referral != address(0)\n        && referral != msg.sender\n        && beReferred[msg.sender] == address(0)\n        && referralUserTotal[referral] < maxPersonRef) {\n            uint256 expectedReferralReceiveAmount = (outputDFYAmount.mul(refRewardPercent)).div(\n                100\n            );\n\n            if(referralRewardTotal[referral] + expectedReferralReceiveAmount <= maxRewardFromRef*(10 ** 18)) {\n                referralReceiveAmount = expectedReferralReceiveAmount;\n            } else {\n                referralReceiveAmount = maxRewardFromRef*(10 ** 18) - referralRewardTotal[referral];\n            }\n\n        }\n\n        if (referralReceiveAmount > 0) {\n\n            referralRewardTotal[referral] += referralReceiveAmount;\n            referralUserTotal[referral] += 1;\n\n            beReferred[msg.sender] = referral;\n\n            require(\n                DFYToken.approve(referral, referralReceiveAmount),\n                \"DFY approve ref failed!\"\n            );\n\n            require(\n                DFYToken.transfer(referral, referralReceiveAmount),\n                \"DFY transfer referral fail\"\n            );\n            emit BuyIDO(\n                token,\n                msg.sender,\n                amount,\n                outputDFYAmount,\n                referral,\n                referralReceiveAmount,\n                block.timestamp\n            );\n        }\n        emit BuyIDO(\n            token,\n            msg.sender,\n            amount,\n            outputDFYAmount,\n            address(0),\n            0,\n            block.timestamp\n        );\n    }\n\n    function getTokenSupport() public view returns (address[] memory) {\n        return supportedTokens;\n    }\n\n    function getExchangePair(address _tokenAddress) public view returns (address tokenAddress, uint256 output, uint256 input, bool status) {\n        return (_tokenAddress, exchangePairs[_tokenAddress].output, exchangePairs[_tokenAddress].input, exchangePairs[_tokenAddress].status);\n    }\n\n    event WithdrawnToken(\n        address token,\n        uint256 amount,\n        address receiveAddress\n    );\n\n    function withdrawnToken(address _tokenAddress, uint256 amount) external onlyOwner {\n        IERC20 transferToken = IERC20(_tokenAddress);\n        require(\n            transferToken.balanceOf(address(this)) >= amount,\n            \"Token insufficient\"\n        );\n\n        require(\n            transferToken.approve(owner(), amount),\n            \"Token approve failed!\"\n        );\n\n        require(\n            transferToken.transfer(owner(), amount),\n            \"Token transfer fail\"\n        );\n\n        emit WithdrawnToken(\n            _tokenAddress,\n            amount,\n            owner()\n        );\n    }\n\n}\n",
  "sourcePath": "/home/ylgr/Edsolabs/defi-smartcontract/contracts/IdoDFY.sol",
  "compiler": {
    "name": "solc",
    "version": "0.7.6+commit.7338295f.Emscripten.clang"
  },
  "schemaVersion": "3.3.3",
  "updatedAt": "2021-01-18T08:45:33.401Z",
  "devdoc": {
    "kind": "dev",
    "methods": {
      "owner()": {
        "details": "Returns the address of the current owner."
      },
      "renounceOwnership()": {
        "details": "Leaves the contract without owner. It will not be possible to call `onlyOwner` functions anymore. Can only be called by the current owner. NOTE: Renouncing ownership will leave the contract without an owner, thereby removing any functionality that is only available to the owner."
      },
      "transferOwnership(address)": {
        "details": "Transfers ownership of the contract to a new account (`newOwner`). Can only be called by the current owner."
      }
    },
    "version": 1
  },
  "userdoc": {
    "kind": "user",
    "methods": {},
    "version": 1
  }
}