{
  "contractName": "IdoDFY",
  "abi": [
    {
      "inputs": [
        {
          "internalType": "address",
          "name": "_DFYToken",
          "type": "address"
        },
        {
          "internalType": "uint256",
          "name": "_buyMinimum",
          "type": "uint256"
        },
        {
          "internalType": "uint256",
          "name": "_buyMaximum",
          "type": "uint256"
        },
        {
          "internalType": "uint256",
          "name": "_maxPersonRef",
          "type": "uint256"
        },
        {
          "internalType": "uint256",
          "name": "_maxRewardFromRef",
          "type": "uint256"
        },
        {
          "internalType": "uint256",
          "name": "_refRewardPercent",
          "type": "uint256"
        },
        {
          "internalType": "uint256",
          "name": "_start",
          "type": "uint256"
        },
        {
          "internalType": "uint256",
          "name": "_end",
          "type": "uint256"
        }
      ],
      "stateMutability": "nonpayable",
      "type": "constructor"
    },
    {
      "anonymous": false,
      "inputs": [
        {
          "indexed": false,
          "internalType": "address",
          "name": "token",
          "type": "address"
        },
        {
          "indexed": false,
          "internalType": "address",
          "name": "user",
          "type": "address"
        },
        {
          "indexed": false,
          "internalType": "uint256",
          "name": "amount",
          "type": "uint256"
        },
        {
          "indexed": false,
          "internalType": "uint256",
          "name": "dfyAmount",
          "type": "uint256"
        },
        {
          "indexed": false,
          "internalType": "address",
          "name": "referral",
          "type": "address"
        },
        {
          "indexed": false,
          "internalType": "uint256",
          "name": "referralAmount",
          "type": "uint256"
        },
        {
          "indexed": false,
          "internalType": "uint256",
          "name": "time",
          "type": "uint256"
        }
      ],
      "name": "BuyIDO",
      "type": "event"
    },
    {
      "anonymous": false,
      "inputs": [
        {
          "indexed": false,
          "internalType": "address",
          "name": "token",
          "type": "address"
        },
        {
          "indexed": false,
          "internalType": "uint256",
          "name": "time",
          "type": "uint256"
        }
      ],
      "name": "DeleteExchangePair",
      "type": "event"
    },
    {
      "anonymous": false,
      "inputs": [
        {
          "indexed": true,
          "internalType": "address",
          "name": "previousOwner",
          "type": "address"
        },
        {
          "indexed": true,
          "internalType": "address",
          "name": "newOwner",
          "type": "address"
        }
      ],
      "name": "OwnershipTransferred",
      "type": "event"
    },
    {
      "anonymous": false,
      "inputs": [
        {
          "indexed": false,
          "internalType": "address",
          "name": "token",
          "type": "address"
        },
        {
          "indexed": false,
          "internalType": "uint256",
          "name": "input",
          "type": "uint256"
        },
        {
          "indexed": false,
          "internalType": "uint256",
          "name": "output",
          "type": "uint256"
        },
        {
          "indexed": false,
          "internalType": "uint256",
          "name": "time",
          "type": "uint256"
        }
      ],
      "name": "UpdateExchangePair",
      "type": "event"
    },
    {
      "anonymous": false,
      "inputs": [
        {
          "indexed": false,
          "internalType": "address",
          "name": "token",
          "type": "address"
        },
        {
          "indexed": false,
          "internalType": "uint256",
          "name": "amount",
          "type": "uint256"
        },
        {
          "indexed": false,
          "internalType": "address",
          "name": "receiveAddress",
          "type": "address"
        }
      ],
      "name": "WithdrawnToken",
      "type": "event"
    },
    {
      "inputs": [
        {
          "internalType": "address",
          "name": "",
          "type": "address"
        }
      ],
      "name": "beReferred",
      "outputs": [
        {
          "internalType": "address",
          "name": "",
          "type": "address"
        }
      ],
      "stateMutability": "view",
      "type": "function"
    },
    {
      "inputs": [
        {
          "internalType": "address",
          "name": "",
          "type": "address"
        }
      ],
      "name": "boughtAmountTotals",
      "outputs": [
        {
          "internalType": "uint256",
          "name": "",
          "type": "uint256"
        }
      ],
      "stateMutability": "view",
      "type": "function"
    },
    {
      "inputs": [],
      "name": "buyMaximum",
      "outputs": [
        {
          "internalType": "uint256",
          "name": "",
          "type": "uint256"
        }
      ],
      "stateMutability": "view",
      "type": "function"
    },
    {
      "inputs": [],
      "name": "buyMinimum",
      "outputs": [
        {
          "internalType": "uint256",
          "name": "",
          "type": "uint256"
        }
      ],
      "stateMutability": "view",
      "type": "function"
    },
    {
      "inputs": [],
      "name": "end",
      "outputs": [
        {
          "internalType": "uint256",
          "name": "",
          "type": "uint256"
        }
      ],
      "stateMutability": "view",
      "type": "function"
    },
    {
      "inputs": [
        {
          "internalType": "address",
          "name": "",
          "type": "address"
        }
      ],
      "name": "exchangePairs",
      "outputs": [
        {
          "internalType": "uint256",
          "name": "output",
          "type": "uint256"
        },
        {
          "internalType": "uint256",
          "name": "input",
          "type": "uint256"
        },
        {
          "internalType": "bool",
          "name": "status",
          "type": "bool"
        }
      ],
      "stateMutability": "view",
      "type": "function"
    },
    {
      "inputs": [],
      "name": "maxPersonRef",
      "outputs": [
        {
          "internalType": "uint256",
          "name": "",
          "type": "uint256"
        }
      ],
      "stateMutability": "view",
      "type": "function"
    },
    {
      "inputs": [],
      "name": "maxRewardFromRef",
      "outputs": [
        {
          "internalType": "uint256",
          "name": "",
          "type": "uint256"
        }
      ],
      "stateMutability": "view",
      "type": "function"
    },
    {
      "inputs": [],
      "name": "owner",
      "outputs": [
        {
          "internalType": "address",
          "name": "",
          "type": "address"
        }
      ],
      "stateMutability": "view",
      "type": "function"
    },
    {
      "inputs": [],
      "name": "refRewardPercent",
      "outputs": [
        {
          "internalType": "uint256",
          "name": "",
          "type": "uint256"
        }
      ],
      "stateMutability": "view",
      "type": "function"
    },
    {
      "inputs": [
        {
          "internalType": "address",
          "name": "",
          "type": "address"
        }
      ],
      "name": "referralRewardTotal",
      "outputs": [
        {
          "internalType": "uint256",
          "name": "",
          "type": "uint256"
        }
      ],
      "stateMutability": "view",
      "type": "function"
    },
    {
      "inputs": [
        {
          "internalType": "address",
          "name": "",
          "type": "address"
        }
      ],
      "name": "referralUserTotal",
      "outputs": [
        {
          "internalType": "uint8",
          "name": "",
          "type": "uint8"
        }
      ],
      "stateMutability": "view",
      "type": "function"
    },
    {
      "inputs": [],
      "name": "renounceOwnership",
      "outputs": [],
      "stateMutability": "nonpayable",
      "type": "function"
    },
    {
      "inputs": [],
      "name": "stage",
      "outputs": [
        {
          "internalType": "enum IdoDFY.Stage",
          "name": "",
          "type": "uint8"
        }
      ],
      "stateMutability": "view",
      "type": "function"
    },
    {
      "inputs": [],
      "name": "start",
      "outputs": [
        {
          "internalType": "uint256",
          "name": "",
          "type": "uint256"
        }
      ],
      "stateMutability": "view",
      "type": "function"
    },
    {
      "inputs": [
        {
          "internalType": "uint256",
          "name": "",
          "type": "uint256"
        }
      ],
      "name": "supportedTokens",
      "outputs": [
        {
          "internalType": "address",
          "name": "",
          "type": "address"
        }
      ],
      "stateMutability": "view",
      "type": "function"
    },
    {
      "inputs": [
        {
          "internalType": "address",
          "name": "newOwner",
          "type": "address"
        }
      ],
      "name": "transferOwnership",
      "outputs": [],
      "stateMutability": "nonpayable",
      "type": "function"
    },
    {
      "inputs": [
        {
          "internalType": "enum IdoDFY.Stage",
          "name": "_stage",
          "type": "uint8"
        }
      ],
      "name": "setStage",
      "outputs": [],
      "stateMutability": "nonpayable",
      "type": "function"
    },
    {
      "inputs": [
        {
          "internalType": "address",
          "name": "token",
          "type": "address"
        },
        {
          "internalType": "uint256",
          "name": "output",
          "type": "uint256"
        },
        {
          "internalType": "uint256",
          "name": "input",
          "type": "uint256"
        }
      ],
      "name": "updateExchangePair",
      "outputs": [],
      "stateMutability": "nonpayable",
      "type": "function"
    },
    {
      "inputs": [
        {
          "internalType": "address",
          "name": "token",
          "type": "address"
        }
      ],
      "name": "deleteExchangePair",
      "outputs": [],
      "stateMutability": "nonpayable",
      "type": "function"
    },
    {
      "inputs": [],
      "name": "getOwner",
      "outputs": [
        {
          "internalType": "address",
          "name": "",
          "type": "address"
        }
      ],
      "stateMutability": "view",
      "type": "function"
    },
    {
      "inputs": [
        {
          "internalType": "address",
          "name": "token",
          "type": "address"
        },
        {
          "internalType": "uint256",
          "name": "amount",
          "type": "uint256"
        },
        {
          "internalType": "address",
          "name": "referral",
          "type": "address"
        }
      ],
      "name": "buyIdo",
      "outputs": [],
      "stateMutability": "nonpayable",
      "type": "function"
    },
    {
      "inputs": [],
      "name": "getTokenSupport",
      "outputs": [
        {
          "internalType": "address[]",
          "name": "",
          "type": "address[]"
        }
      ],
      "stateMutability": "view",
      "type": "function"
    },
    {
      "inputs": [
        {
          "internalType": "address",
          "name": "_tokenAddress",
          "type": "address"
        }
      ],
      "name": "getExchangePair",
      "outputs": [
        {
          "internalType": "address",
          "name": "tokenAddress",
          "type": "address"
        },
        {
          "internalType": "uint256",
          "name": "output",
          "type": "uint256"
        },
        {
          "internalType": "uint256",
          "name": "input",
          "type": "uint256"
        },
        {
          "internalType": "bool",
          "name": "status",
          "type": "bool"
        }
      ],
      "stateMutability": "view",
      "type": "function"
    },
    {
      "inputs": [
        {
          "internalType": "address",
          "name": "_tokenAddress",
          "type": "address"
        },
        {
          "internalType": "uint256",
          "name": "amount",
          "type": "uint256"
        }
      ],
      "name": "withdrawnToken",
      "outputs": [],
      "stateMutability": "nonpayable",
      "type": "function"
    }
  ],
  "bytecode": "0x608060405234801561001057600080fd5b50604051611c90380380611c90833981810160405261010081101561003457600080fd5b508051602082015160408301516060840151608085015160a086015160c087015160e0909701519596949593949293919290916000610071610109565b600080546001600160a01b0319166001600160a01b0383169081178255604051929350917f8be0079c531659141344cd1fd0a4f28419497f9722a3daafe3b4186f6b6457e0908290a350600880546001600160a01b0319166001600160a01b039990991698909817909755600d805460ff1916905560019590955560029390935560049190915560055560035560065560075561010d565b3390565b611b748061011c6000396000f3fe608060405234801561001057600080fd5b50600436106101735760003560e01c8063ae579336116100de578063d434d39f11610097578063e5c85a6a11610071578063e5c85a6a14610448578063efbe1c1c1461048e578063f2fde38b14610496578063f8546ba7146104bc57610173565b8063d434d39f14610406578063da51ad891461040e578063e18610131461044057610173565b8063ae5793361461030a578063b58fbfa014610340578063be9a655514610398578063c040e6b8146103a0578063c6255626146103c9578063ce3cd997146103e657610173565b8063715018a611610130578063715018a61461024a578063756248a31461025257806383d899fc1461027e578063893d20e8146102d65780638da5cb5b146102fa5780639ccc9dcb1461030257610173565b80630f92509614610178578063217bc696146101b057806347825acd146101d65780634e751b841461021257806356bd5e101461021a5780635bcdd5f014610242575b600080fd5b61019e6004803603602081101561018e57600080fd5b50356001600160a01b03166104e2565b60408051918252519081900360200190f35b61019e600480360360208110156101c657600080fd5b50356001600160a01b03166104f4565b6101fc600480360360208110156101ec57600080fd5b50356001600160a01b0316610506565b6040805160ff9092168252519081900360200190f35b61019e61051b565b6102406004803603602081101561023057600080fd5b50356001600160a01b0316610521565b005b61019e6106ef565b6102406106f5565b6102406004803603604081101561026857600080fd5b506001600160a01b038135169060200135610797565b610286610aab565b60408051602080825283518183015283519192839290830191858101910280838360005b838110156102c25781810151838201526020016102aa565b505050509050019250505060405180910390f35b6102de610b0d565b604080516001600160a01b039092168252519081900360200190f35b6102de610b1c565b61019e610b2b565b6102406004803603606081101561032057600080fd5b506001600160a01b03813581169160208101359160409091013516610b31565b6103666004803603602081101561035657600080fd5b50356001600160a01b0316611554565b604080516001600160a01b03909516855260208501939093528383019190915215156060830152519081900360800190f35b61019e611583565b6103a8611589565b604051808260018111156103b857fe5b815260200191505060405180910390f35b6102de600480360360208110156103df57600080fd5b5035611592565b610240600480360360208110156103fc57600080fd5b503560ff166115bc565b61019e611634565b6102406004803603606081101561042457600080fd5b506001600160a01b03813516906020810135906040013561163a565b61019e6117ea565b61046e6004803603602081101561045e57600080fd5b50356001600160a01b03166117f0565b604080519384526020840192909252151582820152519081900360600190f35b61019e611814565b610240600480360360208110156104ac57600080fd5b50356001600160a01b031661181a565b6102de600480360360208110156104d257600080fd5b50356001600160a01b0316611912565b600c6020526000908152604090205481565b600a6020526000908152604090205481565b600b6020526000908152604090205460ff1681565b60015481565b61052961192d565b6000546001600160a01b03908116911614610579576040805162461bcd60e51b81526020600482018190526024820152600080516020611b1f833981519152604482015290519081900360640190fd5b6001600160a01b0381166000908152600e602052604090206002015460ff166105da576040805162461bcd60e51b815260206004820152600e60248201526d14dd185d1d5cc81a5b9d985b1a5960921b604482015290519081900360640190fd5b6001600160a01b0381166000908152600e6020526040812081815560018101829055600201805460ff19169055805b600f5481101561069657826001600160a01b0316600f828154811061062a57fe5b6000918252602090912001546001600160a01b03161461068e5781600f828154811061065257fe5b60009182526020808320909101548354600181018555938352912090910180546001600160a01b0319166001600160a01b039092169190911790555b600101610609565b5080546106a790600f908390611a72565b50604080516001600160a01b038416815242602082015281517f832955936d34e2ca89fb8b14dc4cd35d3b56be5a2667efac7e255897e0cd261f929181900390910190a15050565b60035481565b6106fd61192d565b6000546001600160a01b0390811691161461074d576040805162461bcd60e51b81526020600482018190526024820152600080516020611b1f833981519152604482015290519081900360640190fd5b600080546040516001600160a01b03909116907f8be0079c531659141344cd1fd0a4f28419497f9722a3daafe3b4186f6b6457e0908390a3600080546001600160a01b0319169055565b61079f61192d565b6000546001600160a01b039081169116146107ef576040805162461bcd60e51b81526020600482018190526024820152600080516020611b1f833981519152604482015290519081900360640190fd5b604080516370a0823160e01b81523060048201529051839183916001600160a01b038416916370a08231916024808301926020929190829003018186803b15801561083957600080fd5b505afa15801561084d573d6000803e3d6000fd5b505050506040513d602081101561086357600080fd5b505110156108ad576040805162461bcd60e51b8152602060048201526012602482015271151bdad95b881a5b9cdd59999a58da595b9d60721b604482015290519081900360640190fd5b806001600160a01b031663095ea7b36108c4610b1c565b846040518363ffffffff1660e01b815260040180836001600160a01b0316815260200182815260200192505050602060405180830381600087803b15801561090b57600080fd5b505af115801561091f573d6000803e3d6000fd5b505050506040513d602081101561093557600080fd5b5051610980576040805162461bcd60e51b8152602060048201526015602482015274546f6b656e20617070726f7665206661696c65642160581b604482015290519081900360640190fd5b806001600160a01b031663a9059cbb610997610b1c565b846040518363ffffffff1660e01b815260040180836001600160a01b0316815260200182815260200192505050602060405180830381600087803b1580156109de57600080fd5b505af11580156109f2573d6000803e3d6000fd5b505050506040513d6020811015610a0857600080fd5b5051610a51576040805162461bcd60e51b8152602060048201526013602482015272151bdad95b881d1c985b9cd9995c8819985a5b606a1b604482015290519081900360640190fd5b7fae9c2628a61b3c3fc7cdc3a52b9ae48c828b5fe544ebf779dfa0a2743478650c8383610a7c610b1c565b604080516001600160a01b039485168152602081019390935292168183015290519081900360600190a1505050565b6060600f805480602002602001604051908101604052809291908181526020018280548015610b0357602002820191906000526020600020905b81546001600160a01b03168152600190910190602001808311610ae5575b5050505050905090565b6000610b17610b1c565b905090565b6000546001600160a01b031690565b60045481565b6000600d5460ff166001811115610b4457fe5b14610b84576040805162461bcd60e51b815260206004820152600b60248201526a537461676520636c6f736560a81b604482015290519081900360640190fd5b600654421015610bdb576040805162461bcd60e51b815260206004820152601760248201527f49444f2074696d65206973206e6f742073746172746564000000000000000000604482015290519081900360640190fd5b600754421115610c25576040805162461bcd60e51b815260206004820152601060248201526f125113c81d1a5b59481dd85cc8195b9960821b604482015290519081900360640190fd5b6001600160a01b0383166000908152600e602052604090206002015460ff16610c95576040805162461bcd60e51b815260206004820152601b60248201527f45786368616e67652070616972206973206e6f74206578697374210000000000604482015290519081900360640190fd5b604080516370a0823160e01b81523360048201529051849184916001600160a01b038416916370a08231916024808301926020929190829003018186803b158015610cdf57600080fd5b505afa158015610cf3573d6000803e3d6000fd5b505050506040513d6020811015610d0957600080fd5b50511015610d53576040805162461bcd60e51b8152602060048201526012602482015271151bdad95b881a5b9cdd59999a58da595b9d60721b604482015290519081900360640190fd5b6001600160a01b0384166000908152600e6020526040812060018101549054610d879190610d819087611931565b90611993565b9050600154670de0b6b3a764000002811015610dea576040805162461bcd60e51b815260206004820152601d60248201527f416d6f756e7420444649207265717565737420697320746f6f206c6f77000000604482015290519081900360640190fd5b600254336000908152600c6020526040902054670de0b6b3a76400009091029082011115610e5f576040805162461bcd60e51b815260206004820152601f60248201527f526571756573742044464920616d6f756e742069732065786365656465642100604482015290519081900360640190fd5b336000908152600c602090815260409182902080548401905560085482516370a0823160e01b8152306004820152925184936001600160a01b03909216926370a082319260248082019391829003018186803b158015610ebe57600080fd5b505afa158015610ed2573d6000803e3d6000fd5b505050506040513d6020811015610ee857600080fd5b50511015610f30576040805162461bcd60e51b815260206004820152601060248201526f111196481a5b9cdd59999a58da595b9d60821b604482015290519081900360640190fd5b816001600160a01b03166323b872dd33610f48610b1c565b876040518463ffffffff1660e01b815260040180846001600160a01b03168152602001836001600160a01b031681526020018281526020019350505050602060405180830381600087803b158015610f9f57600080fd5b505af1158015610fb3573d6000803e3d6000fd5b505050506040513d6020811015610fc957600080fd5b5051611012576040805162461bcd60e51b8152602060048201526013602482015272151bdad95b881d1c985b9cd9995c8819985a5b606a1b604482015290519081900360640190fd5b6008546040805163095ea7b360e01b81523360048201526024810184905290516001600160a01b039092169163095ea7b3916044808201926020929091908290030181600087803b15801561106657600080fd5b505af115801561107a573d6000803e3d6000fd5b505050506040513d602081101561109057600080fd5b50516110d9576040805162461bcd60e51b815260206004820152601360248201527244465920617070726f7665206661696c65642160681b604482015290519081900360640190fd5b6008546040805163a9059cbb60e01b81523360048201526024810184905290516001600160a01b039092169163a9059cbb916044808201926020929091908290030181600087803b15801561112d57600080fd5b505af1158015611141573d6000803e3d6000fd5b505050506040513d602081101561115757600080fd5b505161119e576040805162461bcd60e51b8152602060048201526011602482015270111196481d1c985b9cd9995c8819985a5b607a1b604482015290519081900360640190fd5b60006001600160a01b038416158015906111c157506001600160a01b0384163314155b80156111e35750336000908152600960205260409020546001600160a01b0316155b801561120b57506004546001600160a01b0385166000908152600b602052604090205460ff16105b1561129157600061122c6064610d816003548661193190919063ffffffff16565b6005546001600160a01b0387166000908152600a6020526040902054919250670de0b6b3a764000002908201116112655780915061128f565b6001600160a01b0385166000908152600a6020526040902054600554670de0b6b3a7640000020391505b505b80156114e9576001600160a01b038085166000818152600a60209081526040808320805487019055600b8252808320805460ff8082166001011660ff199091161790553383526009825280832080546001600160a01b03191685179055600854815163095ea7b360e01b8152600481019590955260248501879052905194169363095ea7b393604480820194918390030190829087803b15801561133457600080fd5b505af1158015611348573d6000803e3d6000fd5b505050506040513d602081101561135e57600080fd5b50516113b1576040805162461bcd60e51b815260206004820152601760248201527f44465920617070726f766520726566206661696c656421000000000000000000604482015290519081900360640190fd5b6008546040805163a9059cbb60e01b81526001600160a01b038781166004830152602482018590529151919092169163a9059cbb9160448083019260209291908290030181600087803b15801561140757600080fd5b505af115801561141b573d6000803e3d6000fd5b505050506040513d602081101561143157600080fd5b5051611484576040805162461bcd60e51b815260206004820152601a60248201527f444659207472616e7366657220726566657272616c206661696c000000000000604482015290519081900360640190fd5b604080516001600160a01b038089168252336020830152818301889052606082018590528616608082015260a081018390524260c082015290517f01549ee63c4a665f871e9ab32dce0919fe2e5bda141dd9028340374bda00aca39181900360e00190a15b604080516001600160a01b03881681523360208201528082018790526060810184905260006080820181905260a08201524260c082015290517f01549ee63c4a665f871e9ab32dce0919fe2e5bda141dd9028340374bda00aca39181900360e00190a1505050505050565b6001600160a01b0381166000908152600e60205260409020805460018201546002909201549293909260ff1690565b60065481565b600d5460ff1681565b600f81815481106115a257600080fd5b6000918252602090912001546001600160a01b0316905081565b6115c461192d565b6000546001600160a01b03908116911614611614576040805162461bcd60e51b81526020600482018190526024820152600080516020611b1f833981519152604482015290519081900360640190fd5b600d805482919060ff19166001838181111561162c57fe5b021790555050565b60055481565b61164261192d565b6000546001600160a01b03908116911614611692576040805162461bcd60e51b81526020600482018190526024820152600080516020611b1f833981519152604482015290519081900360640190fd5b6001600160a01b0383166116dd576040805162461bcd60e51b815260206004820152600d60248201526c151bdad95b881a5b9d985b1a59609a1b604482015290519081900360640190fd5b6001600160a01b0383166000908152600e602052604090206002015460ff1661174c57600f80546001810182556000919091527f8d1108e10bcb7c27dddfc02ed9d693a074039d026cf4ea4240b40f7d581ac8020180546001600160a01b0319166001600160a01b0385161790555b6040805160608082018352848252602080830185815260018486018181526001600160a01b038a166000818152600e865288902096518755925191860191909155516002909401805460ff19169415159490941790935583519283528201849052818301859052429082015290517f936558683d5bab97da9ea02e8befc40ba2e5db45e5f4267e62d16b7ef5a0a307916080908290030190a1505050565b60025481565b600e6020526000908152604090208054600182015460029092015490919060ff1683565b60075481565b61182261192d565b6000546001600160a01b03908116911614611872576040805162461bcd60e51b81526020600482018190526024820152600080516020611b1f833981519152604482015290519081900360640190fd5b6001600160a01b0381166118b75760405162461bcd60e51b8152600401808060200182810382526026815260200180611ad86026913960400191505060405180910390fd5b600080546040516001600160a01b03808516939216917f8be0079c531659141344cd1fd0a4f28419497f9722a3daafe3b4186f6b6457e091a3600080546001600160a01b0319166001600160a01b0392909216919091179055565b6009602052600090815260409020546001600160a01b031681565b3390565b6000826119405750600061198d565b8282028284828161194d57fe5b041461198a5760405162461bcd60e51b8152600401808060200182810382526021815260200180611afe6021913960400191505060405180910390fd5b90505b92915050565b600061198a83836040518060400160405280601a81526020017f536166654d6174683a206469766973696f6e206279207a65726f00000000000081525060008183611a5c5760405162461bcd60e51b81526004018080602001828103825283818151815260200191508051906020019080838360005b83811015611a21578181015183820152602001611a09565b50505050905090810190601f168015611a4e5780820380516001836020036101000a031916815260200191505b509250505060405180910390fd5b506000838581611a6857fe5b0495945050505050565b828054828255906000526020600020908101928215611ab25760005260206000209182015b82811115611ab2578254825591600101919060010190611a97565b50611abe929150611ac2565b5090565b5b80821115611abe5760008155600101611ac356fe4f776e61626c653a206e6577206f776e657220697320746865207a65726f2061646472657373536166654d6174683a206d756c7469706c69636174696f6e206f766572666c6f774f776e61626c653a2063616c6c6572206973206e6f7420746865206f776e6572a264697066735822122052c2265f8cfc4ab57696445ff5117c7b71f421beee30c21e8dd7b4035d4e22a064736f6c63430007060033",
  "immutableReferences": {},
  "source": "// SPDX-License-Identifier: MIT\npragma solidity >=0.4.22 <0.9.0;\n\nimport \"@openzeppelin/contracts/math/SafeMath.sol\";\nimport \"@openzeppelin/contracts/access/Ownable.sol\";\nimport \"@openzeppelin/contracts/token/ERC20/IERC20.sol\";\n\ncontract IdoDFY is Ownable {\n    constructor(\n        address _DFYToken,\n        uint256 _buyMinimum,\n        uint256 _buyMaximum,\n        uint256 _maxPersonRef,\n        uint256 _maxRewardFromRef,\n        uint256 _refRewardPercent,\n        uint _start,\n        uint _end\n    ) public {\n        DFYToken = IERC20(address(_DFYToken));\n        stage = Stage.Unpause;\n        buyMinimum = _buyMinimum;\n        buyMaximum = _buyMaximum;\n        maxPersonRef = _maxPersonRef;\n        maxRewardFromRef = _maxRewardFromRef;\n        refRewardPercent = _refRewardPercent;\n        start = _start;\n        end = _end;\n    }\n\n    uint256 public buyMinimum;\n    uint256 public buyMaximum;\n    uint256 public refRewardPercent;\n    uint256 public maxPersonRef;\n    uint256 public maxRewardFromRef;\n    uint public start;\n    uint public end;\n\n    using SafeMath for uint256;\n    IERC20 private DFYToken;\n\n    struct ExchangePair {\n        uint256 output;\n        uint256 input;\n        bool status;\n    }\n\n    mapping(address => address) public beReferred;\n    mapping(address => uint256) public referralRewardTotal;\n    mapping(address => uint8) public referralUserTotal;\n\n    mapping(address => uint256) public boughtAmountTotals;\n\n    enum Stage {Unpause, Pause}\n\n    Stage public stage;\n\n    modifier requireOpen {\n        require(stage == Stage.Unpause, \"Stage close\");\n        require(block.timestamp >= start, \"IDO time is not started\");\n        require(block.timestamp <= end, \"IDO time was end\");\n        _;\n    }\n\n    mapping(address => ExchangePair) public exchangePairs;\n    address[] public supportedTokens;\n\n    event UpdateExchangePair(\n        address token,\n        uint256 input,\n        uint256 output,\n        uint256 time\n    );\n\n    function setStage(Stage _stage) public onlyOwner{\n        stage = _stage;\n    }\n\n    function updateExchangePair(\n        address token,\n        uint256 output,\n        uint256 input\n    ) public onlyOwner {\n        require(token != address(0), \"Token invalid\");\n        if (!exchangePairs[token].status) {\n            supportedTokens.push(token);\n        }\n        exchangePairs[token] = ExchangePair(output, input, true);\n        emit UpdateExchangePair(token, input, output, block.timestamp);\n    }\n\n    event DeleteExchangePair(address token, uint256 time);\n\n    function deleteExchangePair(address token) public onlyOwner {\n        require(exchangePairs[token].status, \"Status invalid\");\n        delete exchangePairs[token];\n\n        address[] storage addressTokens;\n\n        for (uint i = 0; i < supportedTokens.length; i++) {\n            if(supportedTokens[i] != token) {\n                addressTokens.push(supportedTokens[i]);\n            }\n        }\n        supportedTokens = addressTokens;\n\n        emit DeleteExchangePair(token, block.timestamp);\n    }\n\n    function getOwner() external view returns (address) {\n        return owner();\n    }\n\n    event BuyIDO(\n        address token,\n        address user,\n        uint256 amount,\n        uint256 dfyAmount,\n        address referral,\n        uint256 referralAmount,\n        uint256 time\n    );\n\n    function buyIdo(\n        address token,\n        uint256 amount,\n        address referral\n    ) external requireOpen {\n        require(exchangePairs[token].status, \"Exchange pair is not exist!\");\n\n        IERC20 transferToken = IERC20(token);\n\n        require(\n            transferToken.balanceOf(msg.sender) >= amount,\n            \"Token insufficient\"\n        );\n\n        uint256 outputDFYAmount =\n        (exchangePairs[token].output.mul(amount)).div(\n            exchangePairs[token].input\n        );\n\n        require(\n            outputDFYAmount >= buyMinimum*(10 ** 18),\n            \"Amount DFI request is too low\"\n        );\n\n        require(\n            boughtAmountTotals[msg.sender] + outputDFYAmount <= buyMaximum*(10 ** 18),\n            \"Request DFI amount is exceeded!\"\n        );\n\n        boughtAmountTotals[msg.sender] += outputDFYAmount;\n\n        require(\n            DFYToken.balanceOf(address(this)) >= outputDFYAmount,\n            \"DFY insufficient\"\n        );\n\n        require(\n            transferToken.transferFrom(msg.sender, owner(), amount),\n            \"Token transfer fail\"\n        );\n\n        require(\n            DFYToken.approve(msg.sender, outputDFYAmount),\n            \"DFY approve failed!\"\n        );\n\n        require(\n            DFYToken.transfer(msg.sender, outputDFYAmount),\n            \"DFY transfer fail\"\n        );\n\n        uint256 referralReceiveAmount = 0;\n        if (referral != address(0)\n        && referral != msg.sender\n        && beReferred[msg.sender] == address(0)\n        && referralUserTotal[referral] < maxPersonRef) {\n            uint256 expectedReferralReceiveAmount = (outputDFYAmount.mul(refRewardPercent)).div(\n                100\n            );\n\n            if(referralRewardTotal[referral] + expectedReferralReceiveAmount <= maxRewardFromRef*(10 ** 18)) {\n                referralReceiveAmount = expectedReferralReceiveAmount;\n            } else {\n                referralReceiveAmount = maxRewardFromRef*(10 ** 18) - referralRewardTotal[referral];\n            }\n\n        }\n\n        if (referralReceiveAmount > 0) {\n\n            referralRewardTotal[referral] += referralReceiveAmount;\n            referralUserTotal[referral] += 1;\n\n            beReferred[msg.sender] = referral;\n\n            require(\n                DFYToken.approve(referral, referralReceiveAmount),\n                \"DFY approve ref failed!\"\n            );\n\n            require(\n                DFYToken.transfer(referral, referralReceiveAmount),\n                \"DFY transfer referral fail\"\n            );\n            emit BuyIDO(\n                token,\n                msg.sender,\n                amount,\n                outputDFYAmount,\n                referral,\n                referralReceiveAmount,\n                block.timestamp\n            );\n        }\n        emit BuyIDO(\n            token,\n            msg.sender,\n            amount,\n            outputDFYAmount,\n            address(0),\n            0,\n            block.timestamp\n        );\n    }\n\n    function getTokenSupport() public view returns (address[] memory) {\n        return supportedTokens;\n    }\n\n    function getExchangePair(address _tokenAddress) public view returns (address tokenAddress, uint256 output, uint256 input, bool status) {\n        return (_tokenAddress, exchangePairs[_tokenAddress].output, exchangePairs[_tokenAddress].input, exchangePairs[_tokenAddress].status);\n    }\n\n    event WithdrawnToken(\n        address token,\n        uint256 amount,\n        address receiveAddress\n    );\n\n    function withdrawnToken(address _tokenAddress, uint256 amount) external onlyOwner {\n        IERC20 transferToken = IERC20(_tokenAddress);\n        require(\n            transferToken.balanceOf(address(this)) >= amount,\n            \"Token insufficient\"\n        );\n\n        require(\n            transferToken.approve(owner(), amount),\n            \"Token approve failed!\"\n        );\n\n        require(\n            transferToken.transfer(owner(), amount),\n            \"Token transfer fail\"\n        );\n\n        emit WithdrawnToken(\n            _tokenAddress,\n            amount,\n            owner()\n        );\n    }\n\n}\n",
  "sourcePath": "/home/ylgr/Edsolabs/defi-smartcontract/contracts/IdoDFY.sol",
  "compiler": {
    "name": "solc",
    "version": "0.7.6+commit.7338295f.Emscripten.clang"
  },
  "schemaVersion": "3.3.3",
  "updatedAt": "2021-01-14T10:49:02.519Z",
  "devdoc": {
    "kind": "dev",
    "methods": {
      "owner()": {
        "details": "Returns the address of the current owner."
      },
      "renounceOwnership()": {
        "details": "Leaves the contract without owner. It will not be possible to call `onlyOwner` functions anymore. Can only be called by the current owner. NOTE: Renouncing ownership will leave the contract without an owner, thereby removing any functionality that is only available to the owner."
      },
      "transferOwnership(address)": {
        "details": "Transfers ownership of the contract to a new account (`newOwner`). Can only be called by the current owner."
      }
    },
    "version": 1
  },
  "userdoc": {
    "kind": "user",
    "methods": {},
    "version": 1
  }
}