{
  "contractName": "Roles",
  "abi": [
    {
      "inputs": [],
      "stateMutability": "nonpayable",
      "type": "constructor"
    },
    {
      "anonymous": false,
      "inputs": [
        {
          "indexed": true,
          "internalType": "bytes32",
          "name": "role",
          "type": "bytes32"
        },
        {
          "indexed": true,
          "internalType": "bytes32",
          "name": "previousAdminRole",
          "type": "bytes32"
        },
        {
          "indexed": true,
          "internalType": "bytes32",
          "name": "newAdminRole",
          "type": "bytes32"
        }
      ],
      "name": "RoleAdminChanged",
      "type": "event"
    },
    {
      "anonymous": false,
      "inputs": [
        {
          "indexed": true,
          "internalType": "bytes32",
          "name": "role",
          "type": "bytes32"
        },
        {
          "indexed": true,
          "internalType": "address",
          "name": "account",
          "type": "address"
        },
        {
          "indexed": true,
          "internalType": "address",
          "name": "sender",
          "type": "address"
        }
      ],
      "name": "RoleGranted",
      "type": "event"
    },
    {
      "anonymous": false,
      "inputs": [
        {
          "indexed": true,
          "internalType": "bytes32",
          "name": "role",
          "type": "bytes32"
        },
        {
          "indexed": true,
          "internalType": "address",
          "name": "account",
          "type": "address"
        },
        {
          "indexed": true,
          "internalType": "address",
          "name": "sender",
          "type": "address"
        }
      ],
      "name": "RoleRevoked",
      "type": "event"
    },
    {
      "inputs": [],
      "name": "DEFAULT_ADMIN_ROLE",
      "outputs": [
        {
          "internalType": "bytes32",
          "name": "",
          "type": "bytes32"
        }
      ],
      "stateMutability": "view",
      "type": "function"
    },
    {
      "inputs": [],
      "name": "MINTER_ROLE",
      "outputs": [
        {
          "internalType": "bytes32",
          "name": "",
          "type": "bytes32"
        }
      ],
      "stateMutability": "view",
      "type": "function"
    },
    {
      "inputs": [],
      "name": "OPERATOR_ROLE",
      "outputs": [
        {
          "internalType": "bytes32",
          "name": "",
          "type": "bytes32"
        }
      ],
      "stateMutability": "view",
      "type": "function"
    },
    {
      "inputs": [
        {
          "internalType": "bytes32",
          "name": "role",
          "type": "bytes32"
        }
      ],
      "name": "getRoleAdmin",
      "outputs": [
        {
          "internalType": "bytes32",
          "name": "",
          "type": "bytes32"
        }
      ],
      "stateMutability": "view",
      "type": "function"
    },
    {
      "inputs": [
        {
          "internalType": "bytes32",
          "name": "role",
          "type": "bytes32"
        },
        {
          "internalType": "uint256",
          "name": "index",
          "type": "uint256"
        }
      ],
      "name": "getRoleMember",
      "outputs": [
        {
          "internalType": "address",
          "name": "",
          "type": "address"
        }
      ],
      "stateMutability": "view",
      "type": "function"
    },
    {
      "inputs": [
        {
          "internalType": "bytes32",
          "name": "role",
          "type": "bytes32"
        }
      ],
      "name": "getRoleMemberCount",
      "outputs": [
        {
          "internalType": "uint256",
          "name": "",
          "type": "uint256"
        }
      ],
      "stateMutability": "view",
      "type": "function"
    },
    {
      "inputs": [
        {
          "internalType": "bytes32",
          "name": "role",
          "type": "bytes32"
        },
        {
          "internalType": "address",
          "name": "account",
          "type": "address"
        }
      ],
      "name": "grantRole",
      "outputs": [],
      "stateMutability": "nonpayable",
      "type": "function"
    },
    {
      "inputs": [
        {
          "internalType": "bytes32",
          "name": "role",
          "type": "bytes32"
        },
        {
          "internalType": "address",
          "name": "account",
          "type": "address"
        }
      ],
      "name": "hasRole",
      "outputs": [
        {
          "internalType": "bool",
          "name": "",
          "type": "bool"
        }
      ],
      "stateMutability": "view",
      "type": "function"
    },
    {
      "inputs": [
        {
          "internalType": "bytes32",
          "name": "role",
          "type": "bytes32"
        },
        {
          "internalType": "address",
          "name": "account",
          "type": "address"
        }
      ],
      "name": "renounceRole",
      "outputs": [],
      "stateMutability": "nonpayable",
      "type": "function"
    },
    {
      "inputs": [
        {
          "internalType": "bytes32",
          "name": "role",
          "type": "bytes32"
        },
        {
          "internalType": "address",
          "name": "account",
          "type": "address"
        }
      ],
      "name": "revokeRole",
      "outputs": [],
      "stateMutability": "nonpayable",
      "type": "function"
    }
  ],
  "bytecode": "0x608060405234801561001057600080fd5b50610023600061001e610080565b610084565b61004f7ff0887ba65ee2024ea881d91b74c2450ef19e1557f03bed3ea9f16b037cbe2dc961001e610080565b61007b7f523a704056dcd17bcf83bed8b68c59416dac1119be77755efe3bde0a64e46e0c61001e610080565b610185565b3390565b61008e8282610092565b5050565b6000828152602081815260409091206100b49183906103e4610105821b17901c565b1561008e576100c1610080565b6001600160a01b0316816001600160a01b0316837f2f8788117e7eff1d82e926ec794901d17c78024a50270940304540a733656f0d60405160405180910390a45050565b600061011a836001600160a01b038416610123565b90505b92915050565b600061012f838361016d565b6101655750815460018181018455600084815260208082209093018490558454848252828601909352604090209190915561011d565b50600061011d565b60009081526001919091016020526040902054151590565b610786806101946000396000f3fe608060405234801561001057600080fd5b506004361061009e5760003560e01c8063a217fddf11610066578063a217fddf146101ab578063ca15c873146101b3578063d5391393146101d0578063d547741f146101d8578063f5b541a6146102045761009e565b8063248a9ca3146100a35780632f2ff15d146100d257806336568abe146101005780639010d07c1461012c57806391d148541461016b575b600080fd5b6100c0600480360360208110156100b957600080fd5b503561020c565b60408051918252519081900360200190f35b6100fe600480360360408110156100e857600080fd5b50803590602001356001600160a01b0316610221565b005b6100fe6004803603604081101561011657600080fd5b50803590602001356001600160a01b031661028d565b61014f6004803603604081101561014257600080fd5b50803590602001356102ee565b604080516001600160a01b039092168252519081900360200190f35b6101976004803603604081101561018157600080fd5b50803590602001356001600160a01b031661030f565b604080519115158252519081900360200190f35b6100c0610327565b6100c0600480360360208110156101c957600080fd5b503561032c565b6100c0610343565b6100fe600480360360408110156101ee57600080fd5b50803590602001356001600160a01b0316610367565b6100c06103c0565b60009081526020819052604090206002015490565b6000828152602081905260409020600201546102449061023f6103f9565b61030f565b61027f5760405162461bcd60e51b815260040180806020018281038252602f8152602001806106c3602f913960400191505060405180910390fd5b61028982826103fd565b5050565b6102956103f9565b6001600160a01b0316816001600160a01b0316146102e45760405162461bcd60e51b815260040180806020018281038252602f815260200180610722602f913960400191505060405180910390fd5b6102898282610466565b600082815260208190526040812061030690836104cf565b90505b92915050565b600082815260208190526040812061030690836104db565b600081565b6000818152602081905260408120610309906104f0565b7ff0887ba65ee2024ea881d91b74c2450ef19e1557f03bed3ea9f16b037cbe2dc981565b6000828152602081905260409020600201546103859061023f6103f9565b6102e45760405162461bcd60e51b81526004018080602001828103825260308152602001806106f26030913960400191505060405180910390fd5b7f523a704056dcd17bcf83bed8b68c59416dac1119be77755efe3bde0a64e46e0c81565b6000610306836001600160a01b0384166104fb565b3390565b600082815260208190526040902061041590826103e4565b15610289576104226103f9565b6001600160a01b0316816001600160a01b0316837f2f8788117e7eff1d82e926ec794901d17c78024a50270940304540a733656f0d60405160405180910390a45050565b600082815260208190526040902061047e9082610545565b156102895761048b6103f9565b6001600160a01b0316816001600160a01b0316837ff6391f5c32d9c69d2a47ea670b442974b53935d1edc7fd64eb21e047a839171b60405160405180910390a45050565b6000610306838361055a565b6000610306836001600160a01b0384166105be565b6000610309826105d6565b600061050783836105be565b61053d57508154600181810184556000848152602080822090930184905584548482528286019093526040902091909155610309565b506000610309565b6000610306836001600160a01b0384166105da565b8154600090821061059c5760405162461bcd60e51b81526004018080602001828103825260228152602001806106a16022913960400191505060405180910390fd5b8260000182815481106105ab57fe5b9060005260206000200154905092915050565b60009081526001919091016020526040902054151590565b5490565b60008181526001830160205260408120548015610696578354600019808301919081019060009087908390811061060d57fe5b906000526020600020015490508087600001848154811061062a57fe5b60009182526020808320909101929092558281526001898101909252604090209084019055865487908061065a57fe5b60019003818190600052602060002001600090559055866001016000878152602001908152602001600020600090556001945050505050610309565b600091505061030956fe456e756d657261626c655365743a20696e646578206f7574206f6620626f756e6473416363657373436f6e74726f6c3a2073656e646572206d75737420626520616e2061646d696e20746f206772616e74416363657373436f6e74726f6c3a2073656e646572206d75737420626520616e2061646d696e20746f207265766f6b65416363657373436f6e74726f6c3a2063616e206f6e6c792072656e6f756e636520726f6c657320666f722073656c66a264697066735822122076737126daa3abcdcd6d8e1e532593229f141f6fcfa0163041421f5fb14836a864736f6c63430007020033",
  "immutableReferences": {},
  "source": "// SPDX-License-Identifier: MIT\n\npragma solidity ^0.7.0;\n\nimport \"@openzeppelin/contracts/access/AccessControl.sol\";\n\ncontract Roles is AccessControl {\n\n    bytes32 public constant MINTER_ROLE = keccak256(\"MINTER\");\n    bytes32 public constant OPERATOR_ROLE = keccak256(\"OPERATOR\");\n\n    constructor () {\n        _setupRole(DEFAULT_ADMIN_ROLE, _msgSender());\n        _setupRole(MINTER_ROLE, _msgSender());\n        _setupRole(OPERATOR_ROLE, _msgSender());\n    }\n\n    modifier onlyMinter() {\n        require(hasRole(MINTER_ROLE, _msgSender()), \"Roles: caller does not have the MINTER role\");\n        _;\n    }\n\n    modifier onlyOperator() {\n        require(hasRole(OPERATOR_ROLE, _msgSender()), \"Roles: caller does not have the OPERATOR role\");\n        _;\n    }\n}\n",
  "sourcePath": "@vittominacori\\erc20-token\\contracts\\access\\Roles.sol",
  "compiler": {
    "name": "solc",
    "version": "0.7.2+commit.51b20bc0.Emscripten.clang"
  },
  "schemaVersion": "3.3.1",
  "updatedAt": "2020-12-08T15:15:47.387Z",
  "devdoc": {
    "kind": "dev",
    "methods": {
      "getRoleAdmin(bytes32)": {
        "details": "Returns the admin role that controls `role`. See {grantRole} and {revokeRole}. To change a role's admin, use {_setRoleAdmin}."
      },
      "getRoleMember(bytes32,uint256)": {
        "details": "Returns one of the accounts that have `role`. `index` must be a value between 0 and {getRoleMemberCount}, non-inclusive. Role bearers are not sorted in any particular way, and their ordering may change at any point. WARNING: When using {getRoleMember} and {getRoleMemberCount}, make sure you perform all queries on the same block. See the following https://forum.openzeppelin.com/t/iterating-over-elements-on-enumerableset-in-openzeppelin-contracts/2296[forum post] for more information."
      },
      "getRoleMemberCount(bytes32)": {
        "details": "Returns the number of accounts that have `role`. Can be used together with {getRoleMember} to enumerate all bearers of a role."
      },
      "grantRole(bytes32,address)": {
        "details": "Grants `role` to `account`. If `account` had not been already granted `role`, emits a {RoleGranted} event. Requirements: - the caller must have ``role``'s admin role."
      },
      "hasRole(bytes32,address)": {
        "details": "Returns `true` if `account` has been granted `role`."
      },
      "renounceRole(bytes32,address)": {
        "details": "Revokes `role` from the calling account. Roles are often managed via {grantRole} and {revokeRole}: this function's purpose is to provide a mechanism for accounts to lose their privileges if they are compromised (such as when a trusted device is misplaced). If the calling account had been granted `role`, emits a {RoleRevoked} event. Requirements: - the caller must be `account`."
      },
      "revokeRole(bytes32,address)": {
        "details": "Revokes `role` from `account`. If `account` had been granted `role`, emits a {RoleRevoked} event. Requirements: - the caller must have ``role``'s admin role."
      }
    },
    "version": 1
  },
  "userdoc": {
    "kind": "user",
    "methods": {},
    "version": 1
  }
}